:020000040000FA
:06000000CFEF28F0120012
:020006001200E6
:08000800E1CFBCF0E2CFBAF039
:10001000E9CFB8F0EACFB6F00FEF00F01200D8CF7A
:10002000E4FFE0CFE4FFE46EDACFE4FFE2CFDAFFF3
:10003000E9CFE4FFEACFE4FFE6529EAA54D0F00EE7
:100040000001D717ABA409D00001D7850001C02B50
:10005000000E0001C123AB9851D0ABA209D0000122
:10006000D7870001BE2B000E0001BF23AB9846D0FE
:10007000AECFAAF0FF0E0001AA5D0BE100016C0EED
:10008000AB6F070EAC6F0001B06BB16B0701646B17
:1000900035D0ABC0E9FFACC0EAFFAAC0EFFF00015A
:1000A000AB2B000EAC230001B051B11106E10701EA
:1000B0006C510001B06FB16B21D06C0E0001B02506
:1000C000206E070E0001B121216E0001AB51205CB2
:1000D000AC51215808E20701010E646F00016C0E5B
:1000E000AB6F070EAC6F9EA009D0CE687F0ECF6EAF
:1000F0009E90010E0001B46FB56B01D09E9AB6C000
:10010000EAFFB8C0E9FFBCC0E1FFBAC0E2FF1100DE
:10011000E552E5CFEAFFE5CFE9FFE5CFDAFFE550AD
:10012000E5CFE0FFE5CFD8FF1000050EE66E4DEC01
:1001300028F0E5521200010E9F109F6EE66AC70E6E
:10014000E66EC7EC27F0E552E5527F0ECF6ECE6823
:100150001200D9CFE6FFE1CFD9FF0C0EE1269C0EAD
:10016000F36E080EF3CFDBFF090EDB6A040EDB6AC9
:10017000050EDB6A060EDB6A070EDB6AD6DF0701B7
:10018000640536E1B0C0E6FFB1C0E6FF6D0EE66E75
:10019000070EE66EFD0EDBCFE6FFFE0EDBCFE6FFC1
:1001A000E8EC23F0146E060EE15E1450010EE66ECC
:1001B000E66AE66AFD0EDB500001B0250001146E10
:1001C000FE0EDB500001B1210001156E14C0E6FFE8
:1001D00015C0E6FF13EC24F0166E050EE15E165016
:1001E0000701646BB0C0F3FFB1C0F4FF52D050D030
:1001F0000A0ED6CFDBFF0B0ED7CFDBFF0A0EDBCF0D
:1002000014F00B0EDBCF15F0000E14C0DFFF010E53
:1002100015C0DBFF020EDB6A030EDB6A080EDBCFC4
:1002200014F0090EDBCF15F0166A176AD9CFE9FF73
:10023000DACFEAFFEE50145CEE501558EE50165827
:10024000EE50175825E2D950040FE96EDACFEAFFD5
:10025000EE2A000EEE22EE22EE22D66AD76AFB0EBE
:10026000DBCF14F0FC0EDBCF15F0166A176AD950FD
:10027000040FE96EDACFEAFFEE50145CEE50155829
:10028000EE501658EE50175803E2F368F46801D0A8
:1002900076D70C0EE15C02E2E16AE552E16EE552CE
:1002A000E7CFD9FF1200D9CFE6FFE1CFD9FF0E0E7D
:1002B000E1260C0ED6CFDBFF0D0ED7CFDBFF0C0EE9
:1002C000DBCF14F00D0EDBCF15F0000E14C0DFFFF6
:1002D000010E15C0DBFF020EDB6A030EDB6AD9CF0D
:1002E000E9FFDACFEAFFEECF06F0EECF07F0EECF70
:1002F00008F0EFCF09F0E80E0B6E030E0C6E0D6ADE
:100300000E6AF1EC27F0080E06C0DBFF090E07C0ED
:10031000DBFF0A0E08C0DBFF0B0E09C0DBFF080E77
:10032000DBCF18F0090EDBCF19F00A0EDBCF1AF085
:100330000B0EDBCF1BF0E80E0B6E030E0C6E0D6A7E
:100340000E6A18C006F019C007F01AC008F01BC0EA
:1003500009F060EC27F002C018F003C019F004C0E7
:100360001AF005C01BF0D9CFE9FFDACFEAFF185029
:10037000EE5C146E1950EE58156E1A50EE58166E4B
:100380001B50EE58176E68C71CF069C71DF01E6A37
:100390001F6A1DAE02D01E681F681C5014261D5017
:1003A00015221E5016221F501722040E14C0DBFF08
:1003B000050E15C0DBFF060E16C0DBFF070E17C0CB
:1003C000DBFF040EDBCFE6FF050EDBCFE6FF31ECF3
:1003D00028F0E552E552080EDBCF14F0090EDBCF12
:1003E00015F00A0EDBCF16F00B0EDBCF17F014C0A2
:1003F00006F015C007F016C008F017C009F00E0E81
:10040000E15C03E200D0E16AE552E16EE552E7CF3C
:10041000D9FF1200D9CFE6FFE1CFD9FF0E0EE126BA
:100420000C0ECECFDBFF0D0ECFCFDBFF0C0EDBCFE4
:1004300014F00D0EDBCF15F0000E14C0DFFF010E1F
:1004400015C0DBFF020EDB6A030EDB6AD9CFE9FFC2
:10045000DACFEAFFEECF06F0EECF07F0EECF08F0EE
:10046000EFCF09F0FA0E0B6E0C6A0D6A0E6AF1EC12
:1004700027F0080E06C0DBFF090E07C0DBFF0A0EDF
:1004800008C0DBFF0B0E09C0DBFF080EDBCF18F046
:10049000090EDBCF19F00A0EDBCF1AF00B0EDBCF03
:1004A0001BF0FA0E0B6E0C6A0D6A0E6A18C006F08D
:1004B00019C007F01AC008F01BC009F060EC27F063
:1004C00002C018F003C019F004C01AF005C01BF0F8
:1004D000D9CFE9FFDACFEAFF1850EE5C146E19505D
:1004E000EE58156E1A50EE58166E1B50EE58176ED9
:1004F000360E1426000E152216221722040E14C0E2
:10050000DBFF050E15C0DBFF060E16C0DBFF070E76
:1005100017C0DBFF040EDBCFE6FF050EDBCFE6FFE7
:1005200015EC28F0E552E552080EDBCF14F0090E69
:10053000DBCF15F00A0EDBCF16F00B0EDBCF17F07A
:1005400014C006F015C007F016C008F017C009F077
:100550000E0EE15C03E200D0E16AE552E16EE55285
:10056000E7CFD9FF1200AC6AAB6AAB88AC849E9827
:100570009D8A9D98420EAF6EAC84948C948ED08EE2
:100580009F8AF28CF28EAC8AAB8E1200400EE66E21
:10059000E66A2C0EE66E27EC27F0E552E552E552AE
:1005A0001200D9CFE6FFE1CFD9FF070EE126040EF6
:1005B000DB68FB0EDBCF08F0FC0EDBCF09F0050E8D
:1005C00008C0DBFF060E09C0DBFFD950FB0F146E1D
:1005D000FF0EDA20156E020E14C0DBFF030E15C0ED
:1005E000DBFF4A0EE66EE66AE66A600EE66E000E15
:1005F000E66E13EC24F0146E050EE15E1450010E4D
:10060000E66EE66AD950040FE66E000EDA20E66E5A
:10061000600EE66E000EE66EE8EC23F0146E060E39
:10062000E15E1450600EDE6E000EDD6EACA2FED7F1
:10063000DECFE9FFDDCFEAFFEF50E66E80EC28F079
:10064000E552010EE66EE66AD950050FE66E000E21
:10065000DA20E66E600EE66E000EE66EE8EC23F041
:10066000146E060EE15E1450ACA2FED7600EDE6E74
:10067000000EDD6EDECFE9FFDDCFEAFFEF50E66E64
:1006800080EC28F0E552DF2A010E01E3DB2AFB0EA5
:10069000DBCFE6FFFC0EDBCFE6FFFD0EDBCFE6FF98
:1006A000FE0EDBCFE6FF610EE66E000EE66EE8ECB6
:1006B00023F0146E060EE15E1450050EDB6A060E82
:1006C000DB6A050EDBCF14F0060EDBCF15F0FB0E58
:1006D000DBCF16F0FC0EDBCF17F015501718E8AE85
:1006E00002D0173404D01650145C1750155815E278
:1006F000ACA2FED7DECFE9FFDDCFEAFFEF50E66E1A
:1007000080EC28F0E552DF2A010E01E3DB2A050E1A
:10071000DB2A060E01E3DB2AD4D7070EE15C02E2F6
:10072000E16AE552E16EE552E7CFD9FF12009EAAD9
:1007300002D0010E02D0000E00D01200BAB202D0D8
:10074000010E02D0000E00D01200D9CFE6FFE1CF9B
:10075000D9FF040EE126DE6ADE6ADE6ADD6ADD525A
:10076000DD52FB0EDBCF14F0FC0EDBCF15F0FD0EDF
:10077000DBCF16F0FE0EDBCF17F0D9CFE9FFDACFD3
:10078000EAFF1450EE5C1550EE581650EE58175014
:10079000EE580FE2320EE66EEBEC28F0E552D9CFC0
:1007A000E9FFDACFEAFFEE2A000EEE22EE22EE2279
:1007B000D8D7040EE15C02E2E16AE552E16EE5524F
:1007C000E7CFD9FF1200D9CFE6FFE1CFD9FFFD0E69
:1007D000DBCFC2F0FE0EDBCFC3F0FB0EDBCFC6F0EB
:1007E000FC0EDBCFC7F00001C46BC56BC551C71948
:1007F000E8AE02D0C73504D0C651C45DC751C55953
:1008000014E29CDF000901E0FCD7C2C0E9FFC3C0CD
:10081000EAFFEF50E66E69EC28F0E5520001C22BCA
:10082000000EC323C42BC523E1D7E552E7CFD9FF80
:100830001200010EE66EE66AD40EE66E000EE66E5B
:10084000C2DFE552E552E552E5521200010EE66EB6
:10085000E66AD20EE66E000EE66EB5DFE552E552B0
:10086000E552E5521200F2DF640EE66EE66AE66AD1
:10087000E66A6BDFE552E552E552E55219EF04F006
:10088000FE0E9214926E010E8910896E010E801078
:10089000806E1200FE0E9214926EFE0E8914896E06
:1008A000FE0E8014806E1200010E9210926E010EE8
:1008B0008014010E8014010E801400D01200FD0E71
:1008C0009214926E020E8910896E020E8010806E54
:1008D0001200FD0E9214926EFD0E8914896EFD0EAB
:1008E0008014806E1200020E9210926E020E80141E
:1008F000020E8014020E801400D01200FB0E92141F
:10090000926E040E8910896E040E8010806E1200A3
:10091000FB0E9214926EFB0E8914896EFB0E8014EE
:10092000806E1200040E9210926E040E8014040E5B
:100930008014040E801400D01200F70E9214926EF0
:10094000080E8910896E080E8010806E1200F70E56
:100950009214926EF70E8914896EF70E8014806ED1
:100960001200080E9210926E080E8014080E801469
:10097000080E801400D01200EF0E9214926E100E2A
:100980008910896E100E8010806E1200EF0E921486
:10099000926EEF0E8914896EEF0E8014806E120035
:1009A000100E9210926E100E8014100E8014100E05
:1009B000801400D01200DF0E9214926E200E801070
:1009C000806E1200DF0E9214926EDF0E8014806E25
:1009D0001200200E9210926E200E8014200E8014B1
:1009E000200E801400D012007F0E9214926E800EA2
:1009F0008010806E12007F0E9214926E7F0E801413
:100A0000806E1200800E9210926E800E8014800E06
:100A10008014800E801400D01200BF0E9214926ECB
:100A2000400E8010806E1200BF0E9214926EBF0EA8
:100A30008014806E1200400E9210926E400E801450
:100A4000400E8014400E801400D01200FE0E94144C
:100A5000946E010E8210826E1200FE0E9414946E3B
:100A6000FE0E8214826E1200010E9410946E010E1E
:100A70008214010E8214010E821400D01200FD0EA9
:100A80009414946E020E8210826E1200FD0E941465
:100A9000946EFD0E8214826E1200020E9410946EFB
:100AA000020E8214020E8214020E821400D0120072
:100AB000FB0E9414946E040E8210826E1200FB0ED4
:100AC0009414946EFB0E8214826E1200040E941025
:100AD000946E040E8214040E8214040E821400D04C
:100AE0001200F70E9414946E080E8210826E12009B
:100AF000F70E9414946EF70E8214826E1200080E94
:100B00009410946E080E8214080E8214080E82143B
:100B100000D01200EF0E9414946E100E8210826EAC
:100B20001200EF0E9414946EEF0E8214826E120077
:100B3000100E9410946E100E8214100E8214100E6B
:100B4000821400D01200DF0E9414946E200E8210D6
:100B5000826E1200DF0E9414946EDF0E8214826E89
:100B60001200200E9410946E200E8214200E821417
:100B7000200E821400D01200FE0E9314936E010E0C
:100B80008110816E1200FE0E9314936EFE0E81147E
:100B9000816E1200010E9310936E010E8114010EEE
:100BA0008114010E811400D01200FD0E9314936E77
:100BB000020E8110816E1200FD0E9314936EFD0ED5
:100BC0008114816E1200020E9310936E020E811436
:100BD000020E8114020E811400D01200FB0E931439
:100BE000936E040E8110816E1200FB0E9314936EAF
:100BF000FB0E8114816E1200040E9310936E040E8E
:100C00008114040E8114040E811400D01200F70E1A
:100C10009314936E080E8110816E1200F70E9314D8
:100C2000936EF70E8114816E1200080E9310936E6E
:100C3000080E8114080E8114080E811400D01200D1
:100C4000EF0E9314936E100E8110816E1200EF0E52
:100C50009314936EEF0E8114816E1200100E931098
:100C6000936E100E8114100E8114100E811400D09A
:100C70001200DF0E9314936E200E8110816E12000D
:100C8000DF0E9314936EDF0E8114816E1200200E1E
:100C90009310936E200E8114200E8114200E811467
:100CA00000D01200BF0E9314936E400E8110816E1F
:100CB0001200BF0E9314936EBF0E8114816E12004A
:100CC000400E9310936E400E8114400E8114400E1E
:100CD000811400D012007F0E9314936E800E811049
:100CE000816E12007F0E9314936E7F0E8114816EBD
:100CF0001200800E9310936E800E8114800E81146A
:100D0000800E811400D01200D9CFE6FFE1CFD9FFC9
:100D1000FD0EDBCF08F0FE0EDBCF09F01C0E08182D
:100D200001E1095001E198D01B0E081801E10950BA
:100D300001E190D01A0E081801E1095001E188D0B4
:100D4000190E081801E1095001E180D0180E0818A9
:100D500001E1095001E178D0170E081801E10950AE
:100D600071E0160E081801E109506AE0150E081826
:100D700001E1095063E0100E081801E109505CE040
:100D80000F0E081801E1095055E00E0E081801E198
:100D900009504EE00D0E081801E1095047E00C0E15
:100DA000081801E1095040E00B0E081801E1095054
:100DB00039E00A0E081801E1095032E0090E08185E
:100DC00001E109502BE0070E081801E1095024E069
:100DD000060E081801E109501DE0050E081801E192
:100DE000095016E0040E081801E109500FE0030E47
:100DF000081801E1095008E0020E081801E1095045
:100E000001E02CD03DDD2AD05ADD28D077DD26D078
:100E100094DD24D0B1DD22D0CEDD20D0E5DD1ED0A2
:100E2000FCDD1CD013DE1AD02ADE18D041DE16D02D
:100E300058DE14D06FDE12D086DE10D09DDE0ED0CC
:100E4000B4DE0CD0CBDE0AD0E2DE08D0F9DE06D06C
:100E500010DF04D027DF02D03EDF00D0E552E7CF1D
:100E6000D9FF1200D9CFE6FFE1CFD9FFFD0EDBCFCE
:100E700008F0FE0EDBCF09F01C0E081801E1095046
:100E800001E198D01B0E081801E1095001E190D052
:100E90001A0E081801E1095001E188D0190E08184E
:100EA00001E1095001E180D0180E081801E1095054
:100EB00001E178D0170E081801E1095071E0160E13
:100EC000081801E109506AE0150E081801E10950FF
:100ED00063E0100E081801E109505CE00F0E0818DD
:100EE00001E1095055E00E0E081801E109504EE0ED
:100EF0000D0E081801E1095047E00C0E081801E139
:100F0000095040E00B0E081801E1095039E00A0EC3
:100F1000081801E1095032E0090E081801E10950F2
:100F20002BE0070E081801E1095024E0060E08180E
:100F300001E109501DE0050E081801E1095016E015
:100F4000040E081801E109500FE0030E081801E132
:100F5000095008E0020E081801E1095001E02CD008
:100F600099DC2AD0B6DC28D0D3DC26D0F0DC24D023
:100F70000DDD22D027DD20D03EDD1ED055DD1CD07A
:100F80006CDD1AD083DD18D09ADD16D0B1DD14D017
:100F9000C8DD12D0DFDD10D0F6DD0ED00DDE0CD0B6
:100FA00024DE0AD03BDE08D052DE06D069DE04D053
:100FB00080DE02D097DE00D0E552E7CFD9FF1200E5
:100FC000D9CFE6FFE1CFD9FFFD0EDBCF08F0FE0E53
:100FD000DBCF09F01C0E081801E1095001E136D100
:100FE0001B0E081801E1095001E127D11A0E08185B
:100FF00001E1095001E118D1190E081801E1095069
:1010000001E109D1180E081801E1095001E1FAD0F7
:10101000170E081801E1095001E1EBD0160E08186F
:1010200001E1095001E1DCD0150E081801E1095079
:1010300001E1CDD0100E081801E1095001E1BED048
:101040000F0E081801E1095001E1AFD00E0E08188B
:1010500001E1095001E1A0D00D0E081801E109508D
:1010600001E191D00C0E081801E1095001E182D094
:101070000B0E081801E1095074E00A0E081801E18E
:10108000095066E0090E081801E1095058E0070E02
:10109000081801E109504AE0060E081801E109505C
:1010A0003CE0050E081801E109502EE0040E081876
:1010B00001E109501FE0030E081801E1095010E09A
:1010C000020E081801E1095001E0C9D054EC04F007
:1010D000146E156A14C0F3FF15C0F4FFC0D0BFD062
:1010E00073EC04F0146E156A14C0F3FF15C0F4FF1E
:1010F000B6D0B5D092EC04F0146E156A14C0F3FFAC
:1011000015C0F4FFACD0ABD02CDC146E156A14C043
:10111000F3FF15C0F4FFA3D0A2D042DC146E156A11
:1011200014C0F3FF15C0F4FF9AD099D052DC146EAE
:10113000156A14C0F3FF15C0F4FF91D090D062DCA3
:10114000146E156A14C0F3FF15C0F4FF88D087D061
:1011500072DC146E156A14C0F3FF15C0F4FF7FD063
:101160007ED082DC146E156A14C0F3FF15C0F4FF44
:1011700076D075D092DC146E156A14C0F3FF15C0DA
:10118000F4FF6DD06CD0A2DC146E156A14C0F3FFAE
:1011900015C0F4FF64D063D0B2DC146E156A14C0BD
:1011A000F3FF15C0F4FF5BD05AD0C2DC146E156A91
:1011B00014C0F3FF15C0F4FF52D051D0D2DC146E2E
:1011C000156A14C0F3FF15C0F4FF49D048D0E2DC23
:1011D000146E156A14C0F3FF15C0F4FF40D03FD061
:1011E000F2DC146E156A14C0F3FF15C0F4FF37D09B
:1011F00036D002DD146E156A14C0F3FF15C0F4FF7B
:101200002ED02DD012DD146E156A14C0F3FF15C058
:10121000F4FF25D024D022DD146E156A14C0F3FF2C
:1012200015C0F4FF1CD01BD032DD146E156A14C03B
:10123000F3FF15C0F4FF13D012D042DD146E156A0F
:1012400014C0F3FF15C0F4FF0AD009D052DD146EAC
:10125000156A14C0F3FF15C0F4FF01D000D0E552A9
:10126000E7CFD9FF1200D9CFE6FFE1CFD9FFFD0EBE
:10127000DBCF16F0FE0EDBCF17F00001800E171447
:101280000BE0FD0EDBCF14F0FE0EDBCF15F0146C7F
:10129000151E000E152206D0FD0EDBCF14F0FE0E3B
:1012A000DBCF15F014C0F3FF15C0F4FF00D0E552FA
:1012B000E7CFD9FF1200010E0B01406F416B70ECBC
:1012C00012F0D00EE66E070EE66EE66AE66AA5EC50
:1012D00003F0E552E552E552E55226EC04F0F80E33
:1012E000E66E0B0EE66E3BEC1AF0E552E552880E08
:1012F000E66E130EE66EE66AE66AA5EC03F0E552CA
:10130000E552E552E55226EC04F027EC13F0350ED9
:10131000E66E0C0EE66E3BEC1AF0E552E552E80E76
:10132000E66E030EE66EE66AE66AA5EC03F0E552A9
:10133000E552E552E55201011E6B050E1E5D11E2FC
:101340007FEC13F001018F51901103E127EC13F0B2
:1013500005D0A0EC15F00101050E1E6F01011E2B3A
:10136000ECD7903504E28F510008000E90553EE214
:1013700026EC04F08FC1E6FF90C1E6FFC90E146EA3
:101380004B0E156E166A14C0E6FF15C0E6FF16C0B8
:10139000E6FF790EE66E010EE66EEDEC25F0176EB7
:1013A000070EE15E1750790EE66E010EE66E3BEC1D
:1013B0001AF0E552E552E80EE66E030EE66EE66AB6
:1013C000E66AA5EC03F0E552E552E552E5526BEC16
:1013D00018F061EC1AF064EC12F0F3CF14F0F4CFD3
:1013E00015F0145015100FE0000E0ED080EC12F026
:1013F00026EC04F0080EE66E0C0EE66E3BEC1AF0DE
:10140000E552E552FFD7010E0B01CD6FCD512AE019
:10141000F40EE66E010EE66EE66AE66AA5EC03F0EF
:10142000E552E552E552E55226EC04F0280EE66E50
:101430000C0EE66E3BEC1AF0E552E552E80EE66E55
:101440000B0EE66EC4EC12F0E552E552880EE66E25
:10145000130EE66EE66AE66AA5EC03F0E552E55285
:10146000E552E5520B01CD5101E1B9D0126B136B7E
:10147000D25128E10B01020E121901E1135120E0B3
:1014800026EC04F0710EE66E0B0EE66E3BEC1AF0E5
:10149000E552E552020EE66EE66A3D0EE66E0B0E72
:1014A000E66E69EC0FF0E552E552E552E55283EC49
:1014B0000FF0F3CF12FBF4CF13FB9BEC00F0DAD765
:1014C000CEEC11F00B01CE2B000ECF2326EC04F056
:1014D000140EE66EE66AE66A000EE66E010EE66E31
:1014E00013EC24F0146E050EE15E1450CECBE6FF33
:1014F000CFCBE6FFC00E146E4B0E156E166A14C0ED
:10150000E6FF15C0E6FF16C0E6FF000EE66E010E10
:10151000E66EEDEC25F0176E070EE15E1750140E27
:10152000E66EE66A000EE66E010EE66E69EC0FF0FE
:10153000E552E552E552E55264EC12F0F3CF14F0B7
:10154000F4CF15F01450151037E12BEC1AF0F3CF4F
:1015500014F0F4CF15F0010E141801E115502BE131
:101560000C01A72B000EA823A7CC1DF7A8CC1EF7B3
:101570000A0E0D6E0E6A1DC708F01EC709F097EC23
:1015800028F008C01DF709C01EF71DC714F01EC7BC
:1015900015F00A0E1502F3CF15F01402F3CF14F074
:1015A000F45015260C01A751141802E1A851151882
:1015B00002E173EC11F0C0D7CECBE6FFCFCBE6FF54
:1015C0009FEC19F0E552E55264EC12F0F3CF14F001
:1015D000F4CF15F01450151001E0F6D709D126EC20
:1015E00004F0180EE66E0C0EE66E3BEC1AF0E552B7
:1015F000E55283EC0FF0F3CF12FBF4CF13FB050E93
:101600000B01121901E1135101E186D0040E1219E8
:1016100001E1135101E179D0030E121901E11351D7
:1016200071E0020E121901E1135169E0010E121965
:1016300001E1135101E0DCD026EC04F0F40EE66E7B
:101640000B0EE66EB00E146E4B0E156E166A14C0BD
:10165000E6FF15C0E6FF16C0E6FF790EE66E010E46
:10166000E66EEDEC25F0176E070EE15E1750790E71
:10167000E66E010EE66E3BEC1AF0E552E552F40E12
:10168000E66E0B0EE66EC4EC12F0E552E552880EE3
:10169000E66E130EE66EE66AE66AA5EC03F0E55226
:1016A000E552E552E55226EC04F0A40E146E4B0E02
:1016B000156E166A14C0E6FF15C0E6FF16C0E6FFF9
:1016C000790EE66E010EE66EEDEC25F0176E050E56
:1016D000E15E1750790EE66E010EE66E3BEC1AF0F5
:1016E000E552E552E80EE66E030EE66EE66AE66A3D
:1016F000A5EC03F0E552E552E552E55279D0CEEC87
:1017000011F076D01AEC12F073D08FC118F790C197
:1017100019F761EC1AF06CD026EC04F0930E146EFD
:101720004B0E156E166A14C0E6FF15C0E6FF16C014
:10173000E6FF790EE66E010EE66EEDEC25F0176E13
:10174000050EE15E1750790EE66E010EE66E3BEC7B
:101750001AF0E552E552FA0EE66EE66AE66AE66AC5
:10176000A5EC03F0E552E552E552E5527DEC1DF0A3
:10177000F3CF14FBF4CF15FB020E0B01141901E19A
:10178000155132E0040E141901E115512AE0860EBC
:10179000146E4B0E156E166A14C0E6FF15C0E6FFF8
:1017A00016C0E6FF790EE66E010EE66EEDEC25F052
:1017B000176E050EE15E1750790EE66E010EE66EAD
:1017C0003BEC1AF0E552E552E80EE66E030EE66ECB
:1017D000E66AE66AA5EC03F0E552E552E552E55209
:1017E00006D0E2EC1CF003D02EEC1DF000D000D0AF
:1017F00039D61200D9CFE6FFE1CFD9FF0B0EE12693
:10180000D9CFE9FFDACFEAFF300EEE6E310EEE6E81
:10181000320EEE6E330EEE6E340EEE6E350EEE6E52
:10182000360EEE6E370EEE6E380EEE6E390EEE6E32
:10183000EE6AD9CF14F0DACF15F0FD0EDB50142488
:10184000E96EFE0EDB501520EA6EEF50146E0B0EA3
:10185000E15C03E200D0E16AE552E16E1450E5522A
:10186000E7CFD9FF1200D9CFE6FFE1CFD9FFFD0EB8
:10187000DBCFE9FFFE0EDBCFEAFF2A0EEA02F3CF51
:10188000EAFFE902F3CFE9FFF450EA26950EE926D4
:10189000010EEA22020EE926000EEA22090EEE18D7
:1018A00001E1ED5019E1FD0EDBCFE9FFFE0EDBCFCC
:1018B000EAFF2A0EEA02F3CFEAFFE902F3CFE9FFDB
:1018C000F450EA26950EE926010EEA22020EE926D8
:1018D000000EEA22EE6AED6AFD0EDBCFE9FFFE0E96
:1018E000DBCFEAFF2A0EEA02F3CFEAFFE902F3CFE9
:1018F000E9FFF450EA26950EE926010EEA22020ECF
:10190000E926000EEA22EE2AED22FD0EDBCFE9FFEA
:10191000FE0EDBCFEAFF2A0EEA02F3CFEAFFE9026E
:10192000F3CFE9FFF450EA26950EE926010EEA22EC
:10193000020EE926000EEA22EECF37F7EDCF38F798
:10194000E552E7CFD9FF1200D9CFE6FFE1CFD9FFAB
:10195000010EE66EE66EE66AAF0EE66E050EE66E08
:1019600013EC24F0146E050EE15E1450020EE66EC8
:10197000E66AE66A2A0EE66E010EE66E13EC24F0C5
:10198000146E050EE15E1450250EE66E0B0EE66E2B
:10199000F90EDBCFE6FFFA0EDBCFE6FFFB0EDBCF67
:1019A000E6FFFC0EDBCFE6FFFD0EDBCFE9FFFE0E10
:1019B000DBCFEAFF2A0EEA02F3CFEAFFE902F3CF18
:1019C000E9FFF450EA26950EE926010EEA22080EF8
:1019D000E926000EEA22E9CF14F0EACF15F014C090
:1019E000E6FF15C0E6FF0F0EE66E0B0EE66EFD0E6F
:1019F000DBCFE9FFFE0EDBCFEAFF2A0EEA02F3CFD0
:101A0000EAFFE902F3CFE9FFF450EA26950EE92652
:101A1000010EEA22020EE926000EEA22EECFE6FFD0
:101A2000EFCFE6FF760E166E4B0E176E186A16C0D5
:101A3000E6FF17C0E6FF18C0E6FFAF0EE66E050E24
:101A4000E66EEDEC25F0196E110EE15E1950AF0E49
:101A5000E66E050EE66E1BD9E552E552F3CF14F0A3
:101A6000F4CF15F014C0E6FF15C0E6FFC3DEE55263
:101A7000E5520A01DA6FDA0EE66E0A0EE66EAF0E76
:101A8000E66E050EE66E2DEC24F0E552E552E552C9
:101A9000E5520101246B256BF70EDBCF14F0F80E35
:101AA000DBCF15F025511518E8AE02D0153404D05F
:101AB0001450245D1550255901E3A8D0AF0EE66EF1
:101AC000050EE66E72EC24F0E552E552F3CF39F7DD
:101AD000F4CF3AF78AEC05F039C7E6FF3AC7E6FFDC
:101AE000AF0EE66E050EE66ED1EC02F0E552E55261
:101AF000E552E552010EE66EE66AE66AE66AA5EC94
:101B000003F0E552E552E552E55291EC05F0300E56
:101B1000E66EE66AE66AB00EE66E060EE66E13EC58
:101B200024F0146E050EE15E1450F50EDBCFE6FFD7
:101B3000F60EDBCFE6FFB00EE66E060EE66EA9EC03
:101B400000F0E552E552E552E552F3CF2CF1F4CF27
:101B50002DF101012D3504E22C510008000E2D5508
:101B600045E2030EE66EE66AE66AED0EE66E0A0EE2
:101B7000E66E13EC24F0146E050EE15E1450020EB6
:101B8000E66EE66AB60EE66E060EE66EED0EE66EE2
:101B90000A0EE66EB1EC24F0146E060EE15E1450EF
:101BA000ED0EE66E0A0EE66E04EC25F0E552E55207
:101BB000F3CF16F1F4CF17F10101070E161901E169
:101BC00017510FE1FD0EDBCFE6FFFE0EDBCFE6FF88
:101BD0004ADEE552E55258EC05F0010EF36EF46A68
:101BE0001CD0080E161901E1175100E1640EE66ED3
:101BF000E66AE66AE66AA5EC03F0E552E552E552CC
:101C0000E5520101242B000E252346D771EC05F087
:101C10000B01D26BF368F46800D0E552E7CFD9FF2F
:101C20001200D9CFE6FFE1CFD9FFFD0EDBCFE6FFF3
:101C3000FE0EDBCFE6FF72EC24F0E552E552F3CF67
:101C40003BF7F4CF3CF78AEC05F03BC7E6FF3CC717
:101C5000E6FFFD0EDBCFE6FFFE0EDBCFE6FFD1ECAD
:101C600002F0E552E552E552E552020EE66EE66AF2
:101C7000E66AE66AA5EC03F0E552E552E552E55264
:101C800091EC05F000D0E552E7CFD9FF1200D9CF93
:101C9000E6FFE1CFD9FF0701456B466B020EE66E0A
:101CA000E66AE66A490EE66E070EE66E13EC24F06D
:101CB000146E050EE15E145007013F6B406B436BE1
:101CC000446BFD0EDBCFE6FFFE0EDBCFE6FF72ECD2
:101CD00024F0E552E552F3CF14F0F4CF15F00701EC
:101CE0001450435D1550445957E2403504E23F51CA
:101CF0000208000E405502E23F6B406B3FC7E9FF10
:101D000040C7EAFFD890E936EA36AB0EE9260C0E5A
:101D1000EA22EECF41F7EDCF42F7010EE66EE66A1A
:101D2000FD0EDB5043250001146EFE0EDB50070153
:101D300044210001156E14C0E6FF15C0E6FF490EF0
:101D4000E66E070EE66EB1EC24F0166E060EE15E4E
:101D50001650490EE66E070EE66E04EC25F0E552CD
:101D6000E552F3CF14F0F4CF15F041C708F042C7A5
:101D700009F014C00DF015C00EF069EC26F0070153
:101D800045510624456F46510720466F3F2B000EF4
:101D90004023432B442395D745C747F746C748F709
:101DA0000A0E0D6E0E6A47C708F048C709F043ECEB
:101DB00026F008C047F709C048F70A0E086E096AFE
:101DC00047C70DF048C70EF069EC26F00650070132
:101DD000455D476F07504659486F47C7E6FF48C7FC
:101DE000E6FF33EC09F0E552E55200D0E552E7CFCB
:101DF000D9FF1200020EE66EE66AE66A280EE66E6B
:101E0000010EE66E13EC24F0146E050EE15E145024
:101E1000270EE66EE66AE66AE00EE66E060EE66EEF
:101E200013EC24F0146E050EE15E1450260EE66EDF
:101E3000E66A300EE66EE00EE66E060EE66E13EC17
:101E400024F0146E050EE15E1450020EE66EE66A92
:101E5000E66AF60EE66E0A0EE66E13EC24F0146ED9
:101E6000050EE15E145001011E6B190E1E5D30E27D
:101E70001E512A0DF3CFE9FFF4CFEAFF950EE926B4
:101E8000010EEA22010EEE6EED6A1E512A0DF3CF0D
:101E9000E9FFF4CFEAFF950EE926010EEA22020ED1
:101EA000E926000EEA22010EEE6EED6A1E512A0DA1
:101EB000F3CFE9FFF4CFEAFF950EE926010EEA22FF
:101EC000040EE926000EEA22EE6AED6A1E2BCDD73B
:101ED0001200D9CFE6FFE1CFD9FFFB0EDBCFE6FF43
:101EE000FC0EDBCFE6FFFD0EDBCFE6FFFE0EDBCF09
:101EF000E6FFE3EC03F0E552E552E552E552E55228
:101F0000E7CFD9FF120092EC18F007011B6F020E09
:101F1000E66EE66A600EE66E0B0EE66EDADFE552FE
:101F2000E552E552E552410E07011B5D03E0F368FF
:101F3000F468D8D10B01126B136B92EC18F0070107
:101F40001B6F350E1B5D04E1010E0B01126F136B4D
:101F5000320E07011B5D04E1020E0B01126F136BC1
:101F6000330E07011B5D04E1030E0B01126F136BAF
:101F7000370E07011B5D04E1040E0B01126F136B9A
:101F8000380E07011B5D04E1050E0B01126F136B88
:101F9000430E07011B5D04E1060E0B01126F136B6C
:101FA0002A0E07011B5D04E1070E0B01126F136B74
:101FB000230E07011B5D04E1080E0B01126F136B6A
:101FC0000B01125113111BE1020EE66EE66A600E60
:101FD000E66E0B0EE66E7DDFE552E552E552E55208
:101FE000050EE66EE66A620EE66E0B0EE66E71DFB9
:101FF000E552E552E552E552F368F46873D1060EF6
:10200000121901E1135101E188D0050E121901E105
:1020100013516DE0040E121901E1135152E0030E49
:10202000121901E1135137E0020E121901E11351A7
:102030001CE0010E121901E1135101E074D06C0E85
:10204000146E4B0E156E166A14C0E6FF15C0E6FF3F
:1020500016C0E6FFF80EE66E0A0EE66EEDEC25F011
:10206000176E050EE15E17505ED0640E146E4B0EB7
:10207000156E166A14C0E6FF15C0E6FF16C0E6FF2F
:10208000F80EE66E0A0EE66EEDEC25F0176E050E04
:10209000E15E175048D0590E146E4B0E156E166A3D
:1020A00014C0E6FF15C0E6FF16C0E6FFF80EE66EA8
:1020B0000A0EE66EEDEC25F0176E050EE15E175088
:1020C00032D04E0E146E4B0E156E166A14C0E6FF1B
:1020D00015C0E6FF16C0E6FFF80EE66E0A0EE66EC5
:1020E000EDEC25F0176E050EE15E17501CD0430E87
:1020F000146E4B0E156E166A14C0E6FF15C0E6FF8F
:1021000016C0E6FFF80EE66E0A0EE66EEDEC25F060
:10211000176E050EE15E175006D026EC04F0F3684A
:10212000F468E0D000D0F80EE66E0A0EE66E3BECE6
:102130001AF0E552E5520B01010E121901E113519B
:1021400001E0C1D0020EE66EE66A3D0EE66E0B0EB1
:10215000E66EBFDEE552E552E552E552360E146EEC
:102160004B0E156E166A14C0E6FF15C0E6FF16C0CA
:10217000E6FFF80EE66E0A0EE66EEDEC25F0176E41
:10218000050EE15E1750F80EE66E0A0EE66E3BECA9
:102190001AF0E552E55292EC18F007011C6F330E6D
:1021A0001C5D02E0000E01D0010E156E320E1C5DAA
:1021B00002E0000E01D0010E146E310E1C5D02E033
:1021C000000E01D0010E1410151062E01C51330AEC
:1021D00041E0010A21E0030A01E075D0020EE66E3B
:1021E000E66A680EE66E0B0EE66E73DEE552E552A9
:1021F000E552E552E80EE66E0B0EE66EF40EE66E64
:102200000B0EE66E51EC24F0E552E552E552E55234
:10221000010EF36EF46A66D0020EE66EE66A6B0E8D
:10222000E66E0B0EE66E55DEE552E552E552E552DE
:10223000EC0EE66E0B0EE66EF40EE66E0B0EE66E20
:1022400051EC24F0E552E552E552E552010EF36EF1
:10225000F46A48D0020EE66EE66A6E0EE66E0B0E6B
:10226000E66E37DEE552E552E552E552F00EE66ED7
:102270000B0EE66EF40EE66E0B0EE66E51EC24F0DD
:10228000E552E552E552E552010EF36EF46A2AD0AA
:10229000020EE66EE66A600EE66E0B0EE66E19DE64
:1022A000E552E552E552E552050EE66EE66A620E2B
:1022B000E66E0B0EE66E0DDEE552E552E552E55296
:1022C000F368F4680FD092EC18F007011B6F420E10
:1022D0001B5D03E0F368F46805D012CBF3FF13CB6A
:1022E000F4FF00D012000B01D20557E1010EE66E9B
:1022F000E66EE66AAF0EE66E050EE66E13EC24F0AF
:10230000146E050EE15E14500C01A951AA1102E1F0
:10231000A76BA86BA7CCE6FFA8CCE6FF240E146E33
:102320004B0E156E166A14C0E6FF15C0E6FF16C008
:10233000E6FFAF0EE66E050EE66EEDEC25F0176ECD
:10234000070EE15E1750AF0EE66E050EE66E9FDCDF
:10235000E552E552F3CF14F0F4CF15F014C0E6FFC8
:1023600015C0E6FFFAEC0BF0E552E5520A01DA6F10
:10237000DA0EE66E0A0EE66EAF0EE66E050EE66E3D
:102380002DEC24F0E552E552E552E552AF0EE66E33
:10239000050EE66E46DCE552E5521200010EE66ED1
:1023A000E66EE66AAF0EE66E050EE66E13EC24F0FE
:1023B000146E050EE15E14503E0EE66E0A0EE66ED9
:1023C000AF0EE66E050EE66E51EC24F0E552E552D6
:1023D000E552E552AF0EE66E050EE66E58DCE552AC
:1023E000E552F3CF14F0F4CF15F014C0E6FF15C09A
:1023F000E6FFFAEC0BF0E552E5520A01DA6FDA0E6D
:10240000E66E0A0EE66EAF0EE66E050EE66E2DEC7B
:1024100024F0E552E552E552E552AF0EE66E050EA8
:10242000E66E11EC0EF0E552E5520B01010ED26F93
:102430009BEF00F0010EE66EE66EE66AAF0EE66E0A
:10244000050EE66E13EC24F0146E050EE15E1450DA
:10245000520EE66E0A0EE66EAF0EE66E050EE66EE4
:1024600051EC24F0E552E552E552E552AF0EE66E2E
:10247000050EE66E0CDCE552E552F3CF14F0F4CF16
:1024800015F014C0E6FF15C0E6FFFAEC0BF0E552BC
:10249000E5520A01DA6FDA0EE66E0A0EE66EAF0E4C
:1024A000E66E050EE66E2DEC24F0E552E552E5529F
:1024B000E552AF0EE66E050EE66E11EC0EF0E5523B
:1024C000E5520B01D26B120047EC06F047EC06F028
:1024D000146E156A14C0F3FF15C0F4FF00D012008B
:1024E000C6EC02F0B3EC02F00F015C6B33EC04F0CD
:1024F000C7EC17F000D0120058EC05F000D0120025
:1025000071EC05F000D01200D9CFE6FFE1CFD9FF82
:1025100078EC05F001011E6B1E51146E156AFD0E5C
:10252000DBCF16F0FE0EDBCF17F015501718E8AE14
:1025300002D0173404D01650145C175015581FE2FF
:1025400020EC06F0E80EE66E030EE66EE66AE66A3A
:10255000A5EC03F0E552E552E552E55227EC06F012
:10256000E80EE66E030EE66EE66AE66AA5EC03F098
:10257000E552E552E552E55201011E2BCDD700D0C0
:10258000E552E7CFD9FF1200D9CFE6FFE1CFD9FF5F
:10259000010EE66EE66EE66AAF0EE66E050EE66EBC
:1025A00013EC24F0146E050EE15E14502A0EE66E54
:1025B0000A0EE66EAF0EE66E050EE66E51EC24F0E6
:1025C000E552E552E552E552030EE66EE66AFD0E6F
:1025D000DBCFE6FFFE0EDBCFE6FFB70EE66E050EA5
:1025E000E66EE8EC23F0146E060EE15E1450AF0EBA
:1025F000E66E050EE66E47EC0EF0E552E552F3CFBF
:1026000014F0F4CF15F014C0E6FF15C0E6FFFAECA5
:102610000BF0E552E5520A01DA6FDA0EE66E0A0EA9
:10262000E66EAF0EE66E050EE66E2DEC24F0E5527A
:10263000E552E552E552AF0EE66E050EE66E11EC80
:102640000EF0E552E552E552E7CFD9FF1200FAEC61
:102650000EF0010EE66EE66EE66AAF0EE66E050E51
:10266000E66E13EC24F0146E050EE15E1450020EBB
:10267000E66E0A0EE66EAF0EE66E050EE66E51ECE5
:1026800024F0E552E552E552E552AF0EE66E050E36
:10269000E66E47EC0EF0E552E552F3CF14F0F4CFBE
:1026A00015F014C0E6FF15C0E6FFFAEC0BF0E5529A
:1026B000E5520A01DA6FDA0EE66E0A0EE66EAF0E2A
:1026C000E66E050EE66E2DEC24F0E552E552E5527D
:1026D000E552AF0EE66E050EE66E11EC0EF0E55219
:1026E000E552C7EC17F0640EE66EE66AE66AE66A43
:1026F000A5EC03F0E552E552E552E5521200010E59
:10270000E66EE66EE66AAF0EE66E050EE66E13EC5A
:1027100024F0146E050EE15E14507A0EE66E0A0E79
:10272000E66EAF0EE66E050EE66E51EC24F0E55255
:10273000E552E552E552AF0EE66E050EE66E47EC49
:102740000EF0E552E552F3CF14F0F4CF15F014C0BB
:10275000E6FF15C0E6FFFAEC0BF0E552E5520A0180
:10276000DA6FDA0EE66E0A0EE66EAF0EE66E050E54
:10277000E66E2DEC24F0E552E552E552E552AF0E3F
:10278000E66E050EE66E11EC0EF0E552E552010123
:102790008F6B906BD00EE66E070EE66EB00EE66E97
:1027A000060EE66EA9EC00F0E552E552E552E55260
:1027B000F3CF2CF1F4CF2DF101012D3504E22C5192
:1027C0000008000E2D5501E3AFD1030EE66EE66A58
:1027D000E66AED0EE66E0A0EE66E13EC24F0146E59
:1027E000050EE15E1450020EE66EE66AB60EE66E67
:1027F000060EE66EED0EE66E0A0EE66EB1EC24F005
:10280000146E060EE15E1450ED0EE66E0A0EE66ED4
:1028100004EC25F0E552E552F3CF16F1F4CF17F1B1
:102820000101070E161901E1175101E07DD1040ED7
:10283000E66EE66AE66A8FC1E9FF90C1EAFF2A0EFA
:10284000EA02F3CFEAFFE902F3CFE9FFF450EA2608
:10285000950EE926010EEA22080EE926000EEA226C
:10286000E9CF14F0EACF15F014C0E6FF15C0E6FF7B
:1028700013EC24F0166E050EE15E1650030EE66EA4
:10288000E66ABF0EE66E060EE66E8FC1E9FF90C1E6
:10289000EAFF2A0EEA02F3CFEAFFE902F3CFE9FFEB
:1028A000F450EA26950EE926010EEA22080EE926E2
:1028B000000EEA22E9CF14F0EACF15F014C0E6FFCB
:1028C00015C0E6FFE8EC23F0166E060EE15E16502A
:1028D000040EE66EE66AE66A8FC1E9FF90C1EAFF80
:1028E0002A0EEA02F3CFEAFFE902F3CFE9FFF45040
:1028F000EA26950EE926010EEA22080EE926000EC8
:10290000EA22040EE926000EEA22E9CF14F0EACF0B
:1029100015F014C0E6FF15C0E6FF13EC24F0166EA8
:10292000050EE15E1650030EE66EE66AC20EE66E16
:10293000060EE66E8FC1E9FF90C1EAFF2A0EEA0299
:10294000F3CFEAFFE902F3CFE9FFF450EA26950E50
:10295000E926010EEA22080EE926000EEA22040EFC
:10296000E926000EEA22E9CF14F0EACF15F014C0F0
:10297000E6FF15C0E6FFE8EC23F0166E060EE15EFA
:102980001650020EE66EE66AE66A8FC1E9FF90C154
:10299000EAFF2A0EEA02F3CFEAFFE902F3CFE9FFEA
:1029A000F450EA26950EE926010EEA22080EE926E1
:1029B000000EEA22190EE926000EEA22E9CF14F0F1
:1029C000EACF15F014C0E6FF15C0E6FF13EC24F0C3
:1029D000166E050EE15E1650010EE66EE66ABC0E3E
:1029E000E66E060EE66E8FC1E9FF90C1EAFF2A0E81
:1029F000EA02F3CFEAFFE902F3CFE9FFF450EA2657
:102A0000950EE926010EEA22080EE926000EEA22BA
:102A1000190EE926000EEA22E9CF14F0EACF15F0EC
:102A200014C0E6FF15C0E6FFE8EC23F0166E060EB4
:102A3000E15E1650050EE66EE66AE66A8FC1E9FFB2
:102A400090C1EAFF2A0EEA02F3CFEAFFE902F3CFD0
:102A5000E9FFF450EA26950EE926010EEA22080E57
:102A6000E926000EEA221D0EE926000EEA22E9CF31
:102A700014F0EACF15F014C0E6FF15C0E6FF13EC22
:102A800024F0166E050EE15E1650020EE66EE66A42
:102A9000BD0EE66E060EE66E8FC1E9FF90C1EAFF3D
:102AA0002A0EEA02F3CFEAFFE902F3CFE9FFF4507E
:102AB000EA26950EE926010EEA22080EE926000E06
:102AC000EA221D0EE926000EEA22E9CF14F0EACF31
:102AD00015F014C0E6FF15C0E6FFE8EC23F0166E13
:102AE000060EE15E16508FC1E9FF90C1EAFF2A0E83
:102AF000EA02F3CFEAFFE902F3CFE9FFF450EA2656
:102B0000950EE926010EEA22060EE926000EEA22BB
:102B1000B1CCEEFFB2CCEDFF460E0C01B127000E9A
:102B2000B22301018F2B9023010E2DAF02D0D8903C
:102B300003D02C5D000E2D5901E201D02BD61200DE
:102B4000010EE66EE66EE66AAF0EE66E050EE66E06
:102B500013EC24F0146E050EE15E14500A0EE66EBE
:102B6000E66AE66A550EE66E070EE66E13EC24F092
:102B7000146E050EE15E1450CE0EE66E0A0EE66E81
:102B8000AF0EE66E050EE66E51EC24F0E552E5520E
:102B9000E552E5528FC1E6FF90C1E6FF1F0E146EAD
:102BA0004B0E156E166A14C0E6FF15C0E6FF16C080
:102BB000E6FF790EE66E010EE66EEDEC25F0176E7F
:102BC000070EE15E1750020EE66EE66A790EE66EBB
:102BD000010EE66EAF0EE66E050EE66E80EC24F09A
:102BE000146E060EE15E145001011E6B1E51146E30
:102BF000156A15509019E8AE02D0903504D08F5167
:102C0000145C9051155873E21E512A0DF3CFE9FF61
:102C1000F4CFEAFF950EE926010EEA22060EE92618
:102C2000000EEA22EECFE6FFEFCFE6FF1E512A0D9F
:102C3000F3CFE9FFF4CFEAFF950EE926010EEA2271
:102C4000080EE926000EEA22E9CF16F0EACF17F0C7
:102C500016C0E6FF17C0E6FF04EC25F0E552E5528A
:102C6000F3CF14F0F4CF15F014C0E6FF15C0E6FF63
:102C7000170E186E4B0E196E1A6A18C0E6FF19C0AF
:102C8000E6FF1AC0E6FF550EE66E070EE66EEDECA7
:102C900025F01B6E090EE15E1B50080EE66EE66A1B
:102CA000550EE66E070EE66EAF0EE66E050EE66E8C
:102CB00080EC24F0146E060EE15E145001011E51EA
:102CC0002A0DF3CFE9FFF4CFEAFF950EE926010EB6
:102CD000EA22060EE926000EEA22EECF91F1EFCFAE
:102CE00092F1C80E9127000E92231E2B7FD7AF0EB4
:102CF000E66E050EE66E47EC0EF0E552E552F3CFB8
:102D000014F0F4CF15F014C0E6FF15C0E6FFFAEC9E
:102D10000BF0E552E5520A01DA6FDA0EE66E0A0EA2
:102D2000E66EAF0EE66E050EE66E2DEC24F0E55273
:102D3000E552E552E552AF0EE66E050EE66E11EC79
:102D40000EF0E552E552320EE66EE66AE66AE66A93
:102D5000A5EC03F0E552E552E552E552010EE66EB0
:102D6000E66EE66AAF0EE66E050EE66E13EC24F034
:102D7000146E050EE15E14500A0EE66EE66AE66A0F
:102D8000550EE66E070EE66E13EC24F0146E050E7B
:102D9000E15E1450A40EE66E0A0EE66EAF0EE66E0D
:102DA000050EE66E51EC24F0E552E552E552E5528F
:102DB000AF0EE66E050EE66E47EC0EF0E552E552FC
:102DC000F3CF14F0F4CF15F014C0E6FF15C0E6FF02
:102DD000FAEC0BF0E552E5520A01DA6FDA0EE66E14
:102DE0000A0EE66EAF0EE66E050EE66E2DEC24F0D2
:102DF000E552E552E552E552AF0EE66E050EE66E7F
:102E000011EC0EF0E552E552320EE66EE66AE66A25
:102E1000E66AA5EC03F0E552E552E552E552010100
:102E20008F6B906B91C1E6FF92C1E6FFB00EE66E2C
:102E3000060EE66EA9EC00F0E552E552E552E552C9
:102E4000F3CF2CF1F4CF2DF101012D3504E22C51FB
:102E50000008000E2D5501E38ED0030EE66EE66AE3
:102E6000E66AED0EE66E0A0EE66E13EC24F0146EC2
:102E7000050EE15E1450020EE66EE66AB60EE66ED0
:102E8000060EE66EED0EE66E0A0EE66EB1EC24F06E
:102E9000146E060EE15E1450ED0EE66E0A0EE66E3E
:102EA00004EC25F0E552E552F3CF16F1F4CF17F11B
:102EB0000101070E161901E117515DE1110EE66ED1
:102EC000E66AE66A8FC1E9FF90C1EAFF2A0EEA02CC
:102ED000F3CFEAFFE902F3CFE9FFF450EA26950EBB
:102EE000E926010EEA22080EE926000EEA22080E63
:102EF000E926000EEA22E9CF14F0EACF15F014C05B
:102F0000E6FF15C0E6FF13EC24F0166E050EE15E39
:102F10001650100EE66EE66ABB0EE66E060EE66E04
:102F20008FC1E9FF90C1EAFF2A0EEA02F3CFEAFF60
:102F3000E902F3CFE9FFF450EA26950EE926010EE7
:102F4000EA22080EE926000EEA22080EE926000E03
:102F5000EA22E9CF14F0EACF15F014C0E6FF15C05D
:102F6000E6FFE8EC23F0166E060EE15E1650010156
:102F70008F2B000E9023010E2DAF02D0D89003D0DE
:102F80002C5D000E2D5901E201D04CD712005FECF0
:102F900005F078EC05F0AAEC05F072EF06F0D9CF59
:102FA000E6FFE1CFD9FF040EE126020EDE6EDD6AF8
:102FB000F40EF36E020EF3CFDBFF010EF36E030E81
:102FC000F3CFDBFFE4DF01012C692D69020EDBCFBB
:102FD00014F0030EDBCF15F0166A176A15AE02D097
:102FE0001668176814C0E6FF15C0E6FF16C0E6FFB6
:102FF00017C0E6FFA5EC03F0E552E552E552E552B5
:10300000020EDBCFE6FF030EDBCFE6FFDECFE6FFEF
:10301000DDCFE6FF420EE66E0B0EE66E2E0EE66E7E
:103020000B0EE66EFD0EDBCFE6FFFE0EDBCFE6FFFE
:10303000A4EC0CF0146E0A0EE15E1450F3CF2CF1E8
:10304000F4CF2DF10101010E2C1901E12D511BE1ED
:10305000FD0EDBCFE9FFFE0EDBCFEAFF2A0EEA0210
:10306000F3CFEAFFE902F3CFE9FFF450EA26950E29
:10307000E926010EEA22040EE926000EEA22010EDC
:10308000EE6EED6A19D0FD0EDBCFE9FFFE0EDBCF51
:10309000EAFF2A0EEA02F3CFEAFFE902F3CFE9FFE3
:1030A000F450EA26950EE926010EEA22040EE926DE
:1030B000000EEA22EE6AED6A2CC1F3FF2DC1F4FF87
:1030C000040EE15C03E200D0E16AE552E16EE552F4
:1030D000E7CFD9FF120001011E6B1E51146E156A55
:1030E00015509019E8AE02D0903504D08F51145C81
:1030F0009051155811E21E51E66EE66A50DFE55216
:10310000E552F3CF2CF1F4CF2DF10101800E2D15F6
:1031100001E002D01E2BE1D718C7F3FF19C7F4FF57
:1031200000D01200F00E9214926E0F0E9310936E58
:10313000896AF00E8914896E140EE66EE66AE66AF4
:10314000E66AA5EC03F0E552E552E552E5520F0EB2
:1031500081140701126F0F0E0701125D39E10F0E86
:103160008114126F78D9F3CF14F0F4CF15F0010E5B
:10317000141801E115502BE10C01A72B000EA82318
:10318000A7CC1DF7A8CC1EF70A0E0D6E0E6A1DC740
:1031900008F01EC709F097EC28F008C01DF709C019
:1031A0001EF71DC714F01EC715F00A0E1502F3CF47
:1031B00015F01402F3CF14F0F45015260C01A751AA
:1031C000141802E1A851151802E173EC11F0C3D7ED
:1031D000140EE66EE66AE66AE66AA5EC03F0E552CE
:1031E000E552E552E55226EC04F0070112510E0AB1
:1031F00012E0030A0CE0060A06E00C0A01E00FD018
:10320000156B166B0CD0010E156F166B08D0020EE5
:10321000156F166B04D0030E156F166B00D00E0ED3
:10322000896E140EE66EE66AE66AE66AA5EC03F0BD
:10323000E552E552E552E5520F0E81140701126F77
:103240000F0E125D02E2136B146B0D0E896E140EDD
:10325000E66EE66AE66AE66AA5EC03F0E552E55238
:10326000E552E5520F0E81140701126F0F0E125D29
:1032700003E2010E136F146B0B0E896E140EE66ED3
:10328000E66AE66AE66AA5EC03F0E552E552E55225
:10329000E5520F0E81140701126F0F0E125D03E24B
:1032A000020E136F146B070E896E140EE66EE66A3B
:1032B000E66AE66AA5EC03F0E552E552E552E5520E
:1032C0000F0E81140701126F0F0E125D03E2030E41
:1032D000136F146B15C714F016C715F0D890143679
:1032E0001536D89014361536D30E14260B0E15222B
:1032F00014501325E96E15501421EA6EEFCF1AF71A
:10330000F00E8914896E140EE66EE66AE66AE66AC5
:10331000A5EC03F0E552E552E552E5520F0E81149B
:103320000701126F0F0E125D04E20F0E8114126F6F
:10333000F9D719EC04F007011A5100D01200D9CFC7
:10334000E6FFE1CFD9FF140EE66EE66AE66A930E59
:10335000E66E0C0EE66E13EC24F0146E050EE15EC4
:103360001450FD0EDBCFE6FFFE0EDBCFE6FF120EA4
:10337000146E4B0E156E166A14C0E6FF15C0E6FFFC
:1033800016C0E6FF900EE66E0C0EE66EEDEC25F034
:10339000176E070EE15E1750140EE66EE66A660EB3
:1033A000E66E0A0EE66E930EE66E0C0EE66EE8EC26
:1033B00023F0146E060EE15E1450030EE66EE66A0C
:1033C000900EE66E0C0EE66E9B0EE66E0C0EE66E32
:1033D000E8EC23F0146E060EE15E1450930EE66ED8
:1033E0000C0EE66E47EC0EF0E552E552F3CF14F00A
:1033F000F4CF15F014C0E6FF15C0E6FFFAEC0BF0B1
:10340000E552E5520A01DA6FDA0EE66E0A0EE66E52
:10341000930EE66E0C0EE66E2DEC24F0E552E552AE
:10342000E552E552930EE66E0C0EE66E11EC0EF0D0
:10343000E552E5520C01A76BA86B7F0ECF6ECE68EC
:103440000001B46BB56B010E0C01A96FAA6BE552BC
:10345000E7CFD9FF12000001010EB41901E1B55107
:1034600006E1B46BB56B010EF36EF46A03D0F36A38
:10347000F46A00D01200D9CFE6FFE1CFD9FFFD0EEC
:10348000DBCFE6FFFE0EDBCFE6FF72EC24F0E55269
:10349000E552F3CF14F0F4CF15F014C0E6FF15C0D9
:1034A000E6FFFD0EDBCFE6FFFE0EDBCFE6FFE3EC33
:1034B00003F0E552E552E552E552E552E7CFD9FF78
:1034C0001200D9CFE6FFE1CFD9FF1D0EE1262A0E6B
:1034D000DF6ED950090FE96EDACFEAFF530EEE6EB8
:1034E000680EEE6E6F0EEE6E770EEE6E200EEE6EC6
:1034F000EE6AD9500F0FE96EDACFEAFF4E0EEE6E8C
:103500006F0EEE6E530EEE6E680EEE6E200EEE6EC9
:10351000EE6AD950150FE96EDACFEAFF410EEE6E72
:10352000200EEE6EEE6AD950180FE96EDACFEAFF80
:10353000440EEE6E200EEE6EEE6A010EF36E1B0E62
:10354000F3CFDBFF1C0EDB6A07015F6B606B26ECC1
:1035500004F0D9501B0FE96EDACFEAFFEE50ED1000
:1035600002E1E0DDDF6E1B0EDB6A1C0EDB6ADF5062
:10357000230A0DE0090A01E0FDD007015F07000EF4
:10358000605B800E601502E05F6B606B1ED0070110
:103590005F2B000E60238FC114F090C115F014064C
:1035A000155A15506019E8AE02D0603504D05F514D
:1035B000145C6051155808E28FC15FF790C160F745
:1035C000010E5F5F000E605B00D026EC04F0160E6B
:1035D000E66EE66AE66A790EE66E010EE66E13ECBA
:1035E00024F0146E050EE15E1450080EE66EE66AD5
:1035F000E66AD950010FE66E000EDA20E66E13EC93
:1036000024F0146E050EE15E14505FC7E9FF60C739
:10361000EAFF2A0EEA02F3CFEAFFE902F3CFE9FF5D
:10362000F450EA26950EE926010EEA22080EE92654
:10363000000EEA221D0EE926000EEA22E9CF14F060
:10364000EACF15F014C0E6FF15C0E6FFD950010F10
:10365000E66E000EDA20E66E51EC24F0E552E552FB
:10366000E552E5523D0EE66E0B0EE66ED950010FA7
:10367000E66E000EDA20E66E5FC7E9FF60C7EAFF7C
:103680002A0EEA02F3CFEAFFE902F3CFE9FFF45092
:10369000EA26950EE926010EEA22080EE926000E1A
:1036A000EA22E9CF14F0EACF15F014C0E6FF15C006
:1036B000E6FF090E166E4B0E176E186A16C0E6FF6F
:1036C00017C0E6FF18C0E6FF790EE66E010EE66E43
:1036D000EDEC25F0196E0B0EE15E1950790EE66ED9
:1036E000010EE66EC8DEE552E552160EE66EE66A9B
:1036F000E66A790EE66E010EE66E13EC24F0146EA7
:10370000050EE15E1450100EE66EE66A5FC7E9FF33
:1037100060C7EAFF2A0EEA02F3CFEAFFE902F3CF1D
:10372000E9FFF450EA26950EE926010EEA22080E7A
:10373000E926000EEA22080EE926000EEA22E9CF69
:1037400014F0EACF15F014C0E6FF15C0E6FF790EBD
:10375000E66E010EE66EE8EC23F0166E060EE15EF4
:103760001650790EE66E010EE66E85DEE552E552E4
:10377000F0D600D01D0EE15C02E2E16AE552E16E96
:10378000E552E7CFD9FF120007013351341104E1AC
:103790008F6B906B356B366B352B000E36233635C1
:1037A00004E235511008000E365506E2010E356F61
:1037B000366B8F2B000E90238FC1E9FF90C1EAFF7B
:1037C0002A0EEA02F3CFEAFFE902F3CFE9FFF45051
:1037D000EA26950EE926010EEA22080EE926000ED9
:1037E000EA22E9CF14F0EACF15F014C0E6FF15C0C5
:1037F000E6FF04EC25F0E552E552F3CF33F7F4CFC2
:1038000034F71200D9CFE6FFE1CFD9FF050EE1264C
:10381000010EDB6A020EDB6A010EDBCF14F0020E32
:10382000DBCF15F0D890155004E6020E145C000EA4
:1038300015586EE277DCDF6E230EDF5C03E1F36A7E
:10384000F46A69D0300EDF5C03E3DF50390801E22F
:10385000E3D7300EDF5C146E156A14BE1568030ED4
:1038600014C0DBFF040E15C0DBFFD950010FE96E59
:10387000DACFEAFFEE50ED1010E10A0E086E096A89
:10388000030EDBCF0DF0040EDBCF0EF069EC26F05B
:1038900006C035F707C036F70ED0030EDBCF14F0A5
:1038A000040EDBCF15F01406000E155A1450070154
:1038B0003527155036230701363504E235511008F7
:1038C000000E36551FE235C733F736C734F7100EF2
:1038D0000D6E0E6A33C708F034C709F043EC26F0CA
:1038E00008C033F709C034F7100E086E096A33C7F1
:1038F0000DF034C70EF069EC26F006500701355F75
:103900000750365B010EDB2A020E01E3DB2A84D767
:10391000F368F46800D0050EE15C02E2E16AE5526A
:10392000E16EE552E7CFD9FF1200D9CFE6FFE1CF34
:10393000D9FF070EE126D950040FE96EDACFEAFF6E
:10394000300EEE6E340EEE6EEE6A35C7E6FF36C709
:10395000E6FF120E146E4B0E156E166A14C0E6FFCB
:1039600015C0E6FF16C0E6FFD9CFE6FFDACFE6FFC7
:10397000EDEC25F0176E070EE15E1750640EE66E53
:10398000E66A020EE66EE66AD9CFE6FFDACFE6FF18
:10399000D950040FE66E000EDA20E66E8FC1E6FF06
:1039A00090C1E6FFA4EC0CF0146E0A0EE15E145018
:1039B000070EE15C02E2E16AE552E16EE552E7CF13
:1039C000D9FF12000701336B346B356B366BDCDECD
:1039D00026EC04F0140EE66EE66AE66A000EE66E69
:1039E000010EE66E13EC24F0146E050EE15E145029
:1039F00035C7E6FF36C7E6FF33C7E6FF34C7E6FF45
:103A0000FB0E146E4A0E156E166A14C0E6FF15C042
:103A1000E6FF16C0E6FF000EE66E010EE66EEDEC68
:103A200025F0176E090EE15E1750140EE66EE66A79
:103A3000000EE66E010EE66E69EC0FF0E552E552FF
:103A4000E552E552DFDEF3CF14F0F4CF15F0145059
:103A5000151001E16ADFBBD7B5D71200010E0B01CB
:103A6000CE6FCF6B26EC04F0140EE66EE66AE66AC3
:103A7000000EE66E010EE66E13EC24F0146E050ED9
:103A8000E15E1450CECBE6FFCFCBE6FFF20E146E14
:103A90004A0E156E166A14C0E6FF15C0E6FF16C082
:103AA000E6FF000EE66E010EE66EEDEC25F0176EF9
:103AB000070EE15E1750140EE66EE66A000EE66E23
:103AC000010EE66E69EC0FF0E552E552E552E55263
:103AD00099DEF3CF14F0F4CF15F0145015100BE16C
:103AE000CECBE6FFCFCBE6FF2ADCE552E5520B0159
:103AF000CE2B000ECF23B6D71200D9CFE6FFE1CFF1
:103B0000D9FF020EE12692EC18F007011B6F350E6B
:103B10001B5D03E1010EDE6EDD6A320E1B5D03E10B
:103B2000020EDE6EDD6A330E1B5D03E1030EDE6EF8
:103B3000DD6A370E1B5D03E1040EDE6EDD6A380EB2
:103B40001B5D03E1050EDE6EDD6A430E1B5D03E1C6
:103B5000060EDE6EDD6A2A0E1B5D03E1070EDE6EC9
:103B6000DD6A230E1B5D03E1080EDE6EDD6ADECF2B
:103B700014F0DDCF15F014C0F3FF15C0F4FF020EF2
:103B8000E15C03E200D0E16AE552E16EE552E7CF85
:043B9000D9FF120047
:0C3B94000200BF540000D200000004003A
:0E3BA00000000C520000000A0000B3020000FA
:023BAE0013EC16
:103BB00023F0FB0EDBCFF3FFDB06F35000090AE036
:103BC00061EC23F0FA0ECCEC23F0F3E1151CF1E1EB
:103BD000010E01D0000E42EF23F013EC23F03B0E58
:103BE000E12402E3E168E652E16E010EDB6A020EB7
:103BF000DB6AF90EDBCFF6FFFA0EDBCFF7FFFB0E29
:103C0000DBCFF8FF0800F550DF6EDF5002E166EF12
:103C100022F0250EDF5C02E059EF22F0030EDB6A92
:103C2000040EDB6A050EDB6A060EDB6A070EDB6A32
:103C30007BEC22F02D0EDF5C0CE02B0EDF5C09E04C
:103C4000200EDF5C06E0230EDF5C03E0300EDF5C5D
:103C50001AE1DF50300A14E0130A0FE0030A0AE009
:103C60000B0A05E0060AE4E1030EDB80E1D7030E50
:103C7000DB82DED7030EDB84DBD7030EDB86D8D7EF
:103C8000030EDB88D5D72A0EDF5C1BE177EC22F030
:103C9000C5EC22F010E0030EDB8008680968130E03
:103CA000DBCF0DF0140EDBCF0EF069EC26F0040E26
:103CB00006C0DBFF03D0130EAEEC22F07BEC22F04B
:103CC0000BD0090EDB6A1CEC23F003E090EC23F030
:103CD000FAD7090EAEEC22F0030EDBB0DB982E0E05
:103CE000DF5C1BE17BEC22F02A0EDF5C0BE177EC62
:103CF00022F0C5EC22F003E1130E00EC23F07BEC84
:103D000022F00BD0090EDB6A1CEC23F003E090ECF0
:103D100023F0FAD7090E00EC23F0680EDF5C07E110
:103D20007BEC22F0680EDF5C1DE1030E18D0740EF0
:103D3000DF5C17E07A0EDF5C14E0480EDF5C06E023
:103D4000540EDF5C03E05A0EDF5C02E1020E07D086
:103D50006C0EDF5C03E06A0EDF5C04E1010E53ECE5
:103D600023F0C9DBDF506E0A01E17FD31E0A01E1B7
:103D700092D1200A01E18FD13F0A01E149D11A0A0B
:103D800001E146D10D0A01E143D1200A01E140D110
:103D90003A0A01E13DD1200A01E13AD1260A01E1C6
:103DA00035D10D0A01E132D11A0A01E1D9D0200A38
:103DB0004AE0300A1FE0460A0EE0250A01E083D3FC
:103DC000D950F90FE96EFF0EDA20EA6E010EEE5EB1
:103DD000000EEE5AEE5A61EC23F0250EE66E95DBEE
:103DE00003E1151C01E169D35DEC23F001E26BD323
:103DF000DB2A69D3080EDB6A040EDB50010806E2F9
:103E0000040EDB0425EC23F0DB508BDB080EDB50CB
:103E100009E0030EDB50010B05E172DB01E04DD33D
:103E2000080EDB6A64DBEFCFDFFFD5EC23F003E1A4
:103E3000151C01E142D35DEC23F001E3DB2A60DBDA
:103E400001E141D33AD3070EDB5002080FE1A1ECA8
:103E500023F0030E68EC23F00E0EEECFDBFF0F0E07
:103E6000EECFDBFF100EEECFDBFF20D0F70EDBCF67
:103E700017F0F80EDBCF18F0020E175E000E185A7E
:103E8000F70E17C0DBFFF80E18C0DBFF17C0E9FF05
:103E900018C0EAFF58EC23F0166A0E0E14C0DBFFC0
:103EA0000F0E15C0DBFF100E16C0DBFF0E0EDBCFB2
:103EB000E6FF0F0EDBCFE6FF100EDBCFE6FFDFECF9
:103EC00024F0E552E552E552130E07C0DBFF140E55
:103ED00008C0DBFF060EDB5005E0130E9CEC23F060
:103EE00001E26ADBC0EC23F002E2130E37DB83EC65
:103EF00023F006E0040E9CEC23F002E2050E2EDB1C
:103F0000030EDBB005D0FCDA01E0D7D2080EDB6A85
:103F1000090EDB6A0E0EDBCFF6FF0F0EDBCFF7FFCD
:103F2000100EDBCFF8FF0800F550DF6EDF5014E015
:103F3000C6EC23F011E2D5EC23F003E1151C01E1FE
:103F4000BCD2BBDB01E3DB2A090EDB2AD9500E0F02
:103F5000E96E000ECBDBE7D7D3DA01E1B4D2ADD204
:103F6000C6DA110EEECFDBFF120EEDCFDBFF110E26
:103F7000DBCFE6FF120EDBCFE6FF72EC24F0E5525A
:103F8000E552130EF3CFDBFF140EF4CFDBFF060E6A
:103F9000DB5004E0130ED0DB01E20EDBC0EC23F0BB
:103FA00002E2130EDBDAAFDB05E0040EC5DB02E252
:103FB000050ED4DA030EDBB005D0A2DA01E07DD223
:103FC000080EDB6A090EDB6A110EDBCFE9FF120E69
:103FD000DBCFEAFFEFCFDFFFDF5014E0D7DB12E2E9
:103FE000E4DB03E1151C01E168D267DB01E3DB2AB6
:103FF000090EDB2A110EDB2ADBCFE9FF120EE8E304
:10400000DB2AE6D77DDA01E15ED257D2030EDB8EE2
:10401000070EDB0410E195DB040E5ADB0A0EEECF2F
:10402000DBFF0B0EEECFDBFF0C0EEECFDBFF0D0E3A
:10403000EECFDBFF6CD0070EDB5003082CE1030E44
:10404000DBAE0DD0B2DA020E76DAEFCF14F0156ADD
:10405000166A176A14AE39D01568166835D0F70E8F
:10406000DBCF15F0F80EDBCF16F0020E155E000E5A
:10407000165AF70E15C0DBFFF80E16C0DBFF15C091
:10408000E9FF16C0EAFFEFCF14F00A0E14C0DBFF01
:104090000B0EDB6A38D0070EDB50020809E1030E75
:1040A000DBAE04D059DB16AE10D00ED055DB0DD0F0
:1040B000030EDBAE12D079DA020E3DDAF9DA166AB7
:1040C000176A15AE02D016681768E2DA0C0E16C031
:1040D000DBFF0D0E17C0DBFF1AD0F70EDBCF16F09B
:1040E000F80EDBCF17F0020E165E000E175AF70E11
:1040F00016C0DBFFF80E17C0DBFF16C0E9FF17C0C4
:10410000EAFFD6DAC5DA0C0EDB6A0D0EDB6A060EA4
:10411000DB5005E1010EF36E050EF3CFDBFF150E4C
:10412000DB6A160EDB6AD950370F146E000EDA20E8
:10413000156E390E14C0DBFF3A0E15C0DBFF380ECA
:10414000DB6A080EDB6A0A0EAEDADF50780A12E08C
:10415000200A10E0280A0CE0200A0AE03F0A06E0E4
:104160000D0A02E0200A08E1020E05D0080E03D075
:10417000080EDF26100E97DA030EDBBE02D0DB92AC
:10418000DB94DB50800B24E08ADAD890030EEB50EE
:10419000000A08E6000EEE5C000EEE58000EEE5827
:1041A000000EEE5815E213DA0B680C680D680E6805
:1041B00060EC27F00A0E02C0DBFF0B0E03C0DBFF32
:1041C0000C0E04C0DBFF0D0E05C0DBFF2D0E08D06A
:1041D000030EDBA202D02B0E03D0DBA408D0200EEE
:1041E000F36E170EF3CFDBFF150EDB2A02D0170E8E
:1041F000DB6A050EDB5003E1B7D901E189D0F20E8D
:10420000146E510E156E000E166E070EDBCF17F0F2
:10421000186A196A1A6A17C00BF018C00CF019C096
:104220000DF01AC00EF0D3D9F1EC27F0145002248F
:10423000F36E15500320F46E16500420F86EF4CF80
:10424000F7FFF3CFF6FF0800090EF5CFDBFF580E9E
:10425000DF5C0FE1610EF36E090E7BD90AE3200EDD
:10426000146E090EDBCFE7FF1450E75E090EE7CFAF
:10427000DBFF070EDBCF14F0156A166A176A0FDA38
:1042800014C00BF015C00CF016C00DF017C00EF0E6
:10429000EECF06F0EECF07F0EECF08F0EFCF09F04B
:1042A000F1EC27F009C0EDFF08C0EDFF07C0EDFFFE
:1042B00006C0EFFF390EDBCFE9FFDB063A0EDBCF9E
:1042C000EAFF01E2DB06090EDBCFEFFF150EDB2A6A
:1042D0004BD995E1030EDBA61DD06F0EDF5C06E126
:1042E000C1D918E3150EDB285BDA14D0780EDF5C39
:1042F00009E0580EDF5C06E0620EDF5C03E0420E70
:10430000DF5C08E1020EF36E160EF3CFDBFF02D086
:10431000150EDB6A030EDB50100B0EE0040EDBCF34
:1043200014F0050EDB50D880145406E2060EDB5064
:1043300003E1040EDB5034DA95D90AE2050EDBCF37
:10434000E7FF150EDB50E75E050EE7CFDBFF02D07F
:10435000050EDB6A040EDBCF14F0160E45D9D880AB
:10436000145414E2160EDBCFE6FF150EDBCFE6FF8A
:10437000040EDBCFE6FF050EDB50E552E75CE552AD
:10438000D880E754E552D880E7545FD9030EDB505C
:10439000010B0BE1080EDB5008E0B2D801E08DD034
:1043A000080EDB50BED8080EDB6A170EDB5007E0A4
:1043B00088D9170EF1D903E1151C01E17ED0160E44
:1043C000DB5016E07ED9300EE66E9FD802E1151C58
:1043D00074E077D9DFCFE6FFE5EC26F0E552E55251
:1043E000E552F4CF15F00001F31C02E1151C65E065
:1043F000050EDBCF14F0160EDB50D880145409E202
:10440000050EDBCFE7FF160EDB50E75E050EE7CFAC
:10441000DBFF300EE66E050ECBD94FE1390EDB2AFD
:10442000DBCFE9FF3A0E01E3DB2ADBCFEAFF090E1F
:10443000EFCFDBFFDB500EE044D9090EADD902E12E
:10444000151C3BE0390EDB2ADBCFE9FF3A0EEDE32A
:10445000DB2AEBD755D831E1160EDBCFE6FF080E8D
:10446000C3D8E552E7245DD82ED0070EDB50030AEF
:104470001CE0010A14E0030A07E07BD9DBCFEEFF62
:10448000020EDBCFEDFF1FD0F5D8196A17AE02D0B0
:10449000186819682CD8BCD819C0EEFF14D0EAD817
:1044A00017BE186824D8B4D80ED063D9DBCFEFFF7D
:1044B0000AD07BD905E1151C03E1F368F46810D03C
:1044C000FCD801E3DB2A79D902EF1EF0010EDBCF25
:1044D00014F0020EDBCF15F014C0F3FF15C0F4FF8B
:1044E0003B0EE15C02E2E16AE552E16ECBD029D9F4
:1044F000020E68EF23F061D90800F550DF6E12005C
:10450000200EE66E080ED8EF23F0E5EC26F0E5521B
:10451000E552E552F3CF14F0F4CF15F00001F31C8F
:104520001200146E156AD950010F4DD91450EE26A1
:104530001550ED221200185E000E195AF70E18C021
:10454000DBFFF80E19C0DBFF18C0E9FF19C0EAFF56
:104550001200DBCFF4FFF350F45C1200DB50E76E87
:10456000040EE7CFDBFF12000A0EDBCF14F00B0EB8
:10457000DBCF15F00C0EDBCF16F00D0EDBCF17F0F6
:1045800014501510161017101200130EEECFDBFF8B
:10459000140EEDCFDBFF130EDBCF14F0140EDBCFC8
:1045A00015F00001800E15141200F70EDBCF18F085
:1045B000F80EDBCF19F01200050EDB50E66ED95075
:1045C000130F01D9E552E750EE6EED6A12000A0EA4
:1045D000DBCF06F00B0EDBCF07F00C0EDBCF08F0C5
:1045E0000D0EDBCF09F01200DBCFE6FF150EDBCF9F
:1045F000E6FF050EDB50E552E724E552E724120002
:10460000DB50CED8010EF36E060EF3CFDBFF1200A7
:10461000EE50EFCFEAFFE96E16C0EEFF17C0EEFFD7
:1046200018C0EEFF1200D9CFE6FFDACFE6FFE1CFE8
:10463000D9FFE2CFDAFF1200DFCFE6FFE66AADEC8A
:1046400028F0E552E552F3501200E76E080EE7CF6E
:10465000DBFF1200EECF14F0EECF15F0EFCF16F027
:10466000176A1200050EDBCF14F0150EDB50D88050
:1046700014541200010EDBCF16F0020EDBCF17F040
:10468000186A1200E552E5CFDAFFE7CFD9FF120032
:104690000A0E14C0DBFF0B0E15C0DBFF1200D95051
:1046A0000A0FE3EF23F0F36E070EF3CFDBFF1200E8
:1046B000EECF14F0EFCF15F01200010EDB2A020E40
:1046C0001200FC0EDBCFE6FFFD0EDBCFE6FF120093
:1046D000145E000E155AF70E14C0DBFFF80E15C05D
:1046E000DBFF14C0E9FF15C0EAFF1200DA20EA6E12
:1046F000EF2AEECFF6FF000EEF22EECFF7FFEF220C
:10470000EECFF8FF1200040EDBCFE6FF130EDB50F6
:10471000E552E75C9ADFDB5004DF060EDB50120047
:10472000090EDB500A0DF350DF24D00FE76E090E9F
:10473000E7CFDBFF7BEF22F0DB50F36E050EA9EF36
:1047400022F0F70EDBCF14F0F80EDBCF15F01200DD
:10475000DFCFE6FF85EF22F028DF030EECDE2AEF45
:1047600023F0D7EC1DF0E552E552E552E552000981
:104770001200BDDEEE50EFCFEAFFE96E010E12002F
:10478000130EDB50F36E040EA9EF22F0040EDB5083
:10479000F36E090EA9EF22F0DBCFE6FF85EF22F0E2
:1047A000E76E050EE7CFDBFF12008BDFA8EF23F0EB
:1047B000DBCFE6FF86DFB1EF23F0D950F90FE96ECA
:1047C000FF0E76EF23F0E96E000EDA20EA6E12009B
:1047D000D9CFE6FFDACFE6FFFA0EE3CFD9FFFB0E23
:1047E000E3CFDAFFFC0EE3CFE9FFFD0EE3CFEAFFF4
:1047F000E9CFF3FFEACFF4FFF80EE35003E1F90E3F
:10480000E35008E0F80EE30602E2F90EE306DECF1D
:10481000EEFFF2D7FF0EE3CFDAFFE552FF0EE3CF54
:10482000D9FFE5521200FE0EE3CFE9FFFF0EE3CF02
:10483000EAFFE9CFF3FFEACFF4FFFB0EE35003E119
:10484000FC0EE35009E0FB0EE30602E2FC0EE30679
:10485000FD0EE350EE6EF1D71200D9CFE6FFDACFAE
:10486000E6FFFA0EE3CFD9FFFB0EE3CFDAFFFC0E33
:10487000E3CFE9FFFD0EE3CFEAFFE9CFF3FFEACF95
:10488000F4FFEE66FED7ED52DFCFEEFFDE66FCD71B
:10489000FF0EE3CFDAFFE552FF0EE3CFD9FFE5527B
:1048A0001200D9CFE6FFDACFE6FFFA0EE3CFD9FF49
:1048B000FB0EE3CFDAFFFC0EE3CFE9FFFD0EE3CF03
:1048C000EAFFE9CFF3FFEACFF4FFDECFEFFFEE66BA
:1048D000FCD7FF0EE3CFDAFFE552FF0EE3CFD9FF9F
:1048E000E5521200FE0EE3CFE9FFFF0EE3CFEAFF31
:1048F000F36AF46AEE5203E0F34AF42AFBD712009B
:10490000D9CFE6FFDACFE6FFFA0EE3CFD9FFFB0EF1
:10491000E3CFDAFFFC0EE3CFE9FFFD0EE3CFEAFFC2
:10492000E9CFF3FFEACFF4FFEE66FED7ED52F80EC3
:10493000E35003E1F90EE3500AE0F80EE30602E269
:10494000F90EE306DFCFEEFFDE66F1D701D0EF6AA6
:10495000FF0EE3CFDAFFE552FF0EE3CFD9FFE552BA
:104960001200D9CFE6FFDACFE6FFFA0EE3CFD9FF88
:10497000FB0EE3CFDAFFFC0EE3CFE9FFFD0EE3CF42
:10498000EAFFE9CFF3FFEACFF4FFF80EE35003E1CB
:10499000F90EE3500BE0F80EE30602E2F90EE3062F
:1049A000DECFEFFFEE66F1D7DD52EFD7FF0EE3CF9C
:1049B000DAFFE552FF0EE3CFD9FFE5521200FF0EFA
:1049C000E3CFF8FFE552FF0EE3CFF7FFE552FF0E0E
:1049D000E3CFF6FFE552E66AE66AE66A0900F552B9
:1049E00009E0FD0EE32A05E1FE0EE32A02E1FF0ED7
:1049F000E32AF4D7FD0EE3CF07F0FE0EE3CF08F075
:084A0000FF0EE3CF09F01200E4
:084A0800FF0EE3CFEAFFE552C7
:104A1000FF0EE3CFE9FFE552E66AE66AD9CFE6FF8B
:104A2000DACFE6FFFC0EE124D96EFF0EE220DA6E4B
:104A3000E66AE66AE66A200EEF5C06E0090EEF5CC5
:104A400003E0EF6603D03FD0EE50F5D72D0EEF5CBC
:104A500003E1FF0EE32A03D02B0EEF5C01E1EE50E1
:104A60002F0EEF6424D03A0EEF6021D0D890F90ECB
:104A7000E336FA0EE336FD0EDECFE3FFFE0EDDCFAA
:104A8000E3FFD890F90EE336FA0EE336D890F90E2C
:104A9000E336FA0EE336FD0EE350DE26FE0EE3505B
:104AA000DD22300EEE5CDE26000EDD22D9D7FF0EB1
:104AB000E3CFE8FFE85207E0F90EE31EE32AFA0E1F
:104AC000D8B4E306E31EE552E552E552FF0EE3CF0C
:104AD000DAFFE552FF0EE3CFD9FFE552E1CFE9FF60
:104AE000E2CFEAFFED52ED52EECFF3FFEFCFF4FF4E
:024AF0001200B2
:0E4AF200437565202530326400552025303391
:104B000064205020253032640055257320257325FC
:104B10007300253033640025336425303564002567
:104B2000303264003130313939393938303025305C
:104B3000356430303000456E7465722053686F778D
:104B400020230053746172742053686F77004765A7
:104B500074205374617475730044697361726D20BD
:104B6000416C6C0041726D20416C6C004C6F616453
:104B70002053686F77002531642573253033732502
:104B800073257325730042616420526573706F6EE4
:104B90007365002850296F7274202F2028432975CF
:104BA00065203F0053686F77204C6F616465640037
:104BB0004C6F6164696E672053686F7720257300BE
:104BC000435545202030257500256420556E6974B5
:094BD000732041637469766500ED
:064BDA00D9CFE6FFDACF9F
:104BE000E6FFE1CFD9FFE2CFDAFFE652E652E65226
:104BF000E652D950F90F146EFF0EDA20156E020E30
:104C000014C0DBFF030E15C0DBFF020EDBCFE6FF97
:104C1000030EDBCFE6FFF90EDBCFE6FFFA0EDBCFAC
:104C2000E6FFFB0EDBCFE6FFD950FC0FE66EFF0E72
:104C3000DA20E66EEDEC1DF0146E070EE15C02E288
:104C4000E16AE552E16E1450F3CFDEFFF4CFDDFFF1
:104C5000FC0EDBCFE9FFFD0EDBCFEAFFEF6ADECF14
:104C600014F0DDCF15F014C0F3FF15C0F4FF040EEF
:104C7000E15C02E2E16AE552E16EE552E5CFDAFF7E
:064C8000E7CFD9FF12008E
:0A4C8600006A0EAE4CEF26F00D6C34
:104C90000E1EE86A0E22001E09AE54EF26F0086CC4
:104CA000091EE86A0922001E97EC28F009BE64EF8D
:104CB00026F000AE000C086C091EE86A0922046C9C
:104CC000051EE86A0522000C00BE5BEF26F0018895
:104CD000FF0C09C013F008C012F008500D02F4CF09
:104CE00007F0F3CF06F009500E02F4CF09F0F3CF2E
:104CF00008F00D02F3500726F4500822E86A092252
:104D000012500E02F3500726F4500822E86A0922D6
:104D10000EAE8FEF26F01250085E1350095A13AEF4
:0C4D2000000C0D50085E0E50095A000CEB
:044D2C00940EF66E7D
:104D30003B0EF76E000EF86E00010900F550CD6FC6
:104D40000900F550CE6F03E1CD6701D03DD00900D9
:104D5000F550C86F0900F550C96F0900F550CA6FCA
:104D600009000900F550E96E0900F550EA6E0900E6
:104D700009000900F550CB6F0900F550CC6F090010
:104D80000900F6CFCFF0F7CFD0F0F8CFD1F0C8C000
:104D9000F6FFC9C0F7FFCAC0F8FF0001CB5302E11C
:104DA000CC5307E00900F550EE6ECB07F8E2CC07D4
:104DB000F9D7CFC0F6FFD0C0F7FFD1C0F8FF000190
:0A4DC000CD07000ECE5BBFD7120036
:064DCA00D9CFE6FFDACFAD
:104DD000E6FFE1CFD9FFE2CFDAFFFB0EDBCF14F025
:104DE000FC0EDBCF15F00001800E15141AE1FB0E4E
:104DF000DBCFE9FFFC0EDBCFEAFFEECFF3FFEDCF19
:104E0000F4FFEE2A000EEF22F3CFE9FFF4CFEAFF22
:104E1000FD0EDBCFEFFFEF50156AF36E15C0F4FF08
:104E200010D0FB0EDB50FE0806E1FD0EDBCFE6FFE7
:104E3000DDEC28F005D0FD0EDBCFE6FF03EC00F043
:0E4E4000E552E552E5CFDAFFE7CFD9FF1200C9
:024E4E00D9CFBA
:104E5000E6FFE1CFD9FFBA6AA66AFE0EDBB0BA88D8
:104E6000DBA202D0BA8CA68CDBB4BA8EDBA602D051
:104E7000A68801D0A68ADBA802D0BA8401D0BA9451
:104E8000DBBAAB86DBAC02D0A38A01D0A39ADBAE3F
:104E900002D0A38801D0A398FC0EDB507B6EFC0EE1
:104EA000DBCF14F0FD0EDBCF15F015C014F0156A42
:104EB00014507C6EBA8AA68EE552E7CFD9FF120055
:104EC00006500B02F3CF02F0F4CF03F00C02F350C4
:104ED0000326000EF420046E06500D02F350042643
:104EE000000EF420056E06500E02F3500526075002
:104EF0000B02F3500326F4500422000E0522075043
:104F00000C02F3500426F450052207500D02F35012
:104F1000052608500B02F3500426F45005220850D1
:104F20000C02F350052609500B02F350052612001F
:104F3000D9CFE6FFE1CFD9FFFD0EDBCF14F0FE0E97
:104F4000DBCF15F015C014F0156A030E1414756E3E
:104F5000FF0EE76EFD0EDBCF14F0FE0EDBCF15F07B
:104F6000E7501416156A1450746EFC0EDB50736E05
:104F70007F9E7F9C7F84F29E550E7E6EAA0E7E6E73
:0E4F80007F82F28E7F94E552E7CFD9FF1200B8
:024F8E00D9CF79
:104F9000E6FFDACFE6FFE1CFD9FFE2CFDAFFFC0E82
:104FA000DB50F30BAA6EFD0EDB507F0BE824CD6EB9
:104FB000CF6ACE6A9E90FD0EDBAE02D09D8001D0FE
:104FC0009D909E94FC0EDBA402D09D8401D09D9404
:104FD000AABEAA86CD80E552E5CFDAFFE7CFD9FF9A
:024FE0001200BD
:0E4FE200056A046A036A026A200EE76ED89020
:104FF00006360736083609360236033604360536D5
:105000000B50025C0C5003580D5004580E500558BC
:1050100009E30B50025E0C50035A0D50045A0E5017
:0A502000055A062AE72EE4D7120015
:06502A00D9CFE6FFDACF4A
:10503000E6FFE1CFD9FFE2CFDAFFE652E652FC0EFF
:10504000DBCFDEFFDBCFDDFF010EDB50CF6EDF50AD
:10505000CE6EE552E552E552E5CFDAFFE7CFD9FF54
:0250600012003C
:0E506200D9CFE6FFDACFE6FFE1CFD9FFE2CFEC
:10507000DAFFE652E652FC0EDBCFDEFFDBCFDDFFD0
:10508000010EDB50D76EDF50D66EE552E552E55289
:0A509000E5CFDAFFE7CFD9FF1200E9
:06509A00D9CFE6FFDACFDA
:1050A000E6FFE1CFD9FFE2CFDAFFFD0EDB507F0B49
:1050B000D56ED76AD66AF294FD0EDBAE02D0F28AC4
:1050C00001D0F29AD58EE552E5CFDAFFE7CFD9FFCE
:0250D0001200CC
:0E50D200D9CFE6FFDACFE6FFE1CFD9FFE2CF7C
:1050E000DAFFBAAC04D0BA900001D6B3BA80FD0E94
:1050F000DB50796EE552E5CFDAFFE7CFD9FF12003A
:10510000D9CFE6FFDACFE6FFE1CFD9FFE2CFDAFF72
:10511000ACAC04D0AC900001D7B3AC80FD0EDB503A
:0E512000AD6EE552E5CFDAFFE7CFD9FF120002
:02512E00056A10
:10513000046A100EE76ED890083609360436053634
:105140000D50045C0E50055805E30D50045E0E50E2
:0A515000055A082AE72EF0D71200D6
:06515A00F36AF46AFF0E87
:10516000E124E96EFF0EE220EA6EED6607D02F0E15
:0E517000EF6404D03A0EEF6001D0F32A120073
:02517E00410EE0
:10518000F36E00EE00F00E0E01D81200EA6002D0BD
:0E519000EE6AFCD7F350E9601200EE6AFCD71D
:02519E001DEE04
:1051A00000F02DEE00F0F86A019C96EC26F005EC7C
:0A51B00029F05BEC09F0FBD71200B8
:0651BA00FF0EE350ACBA49
:1051C00004D0AF6AAB8EAC8A949CACA2FED7AD6E15
:0651D000F36EF46A120008
:0A51D600FF0EE350226E1B0E00D006
:1051E00001D0200EE76EE72EFED7222EFAD700D090
:0251F0001200AB
:0E51F200303132333435363738396162636418
:03520000656600E0
:065204007FB2FED712008C
:02520A00120090
:04520C00000031303D
:105210003139393939393939393030303030303045
:105220003000313031393939393830303030303080
:105230003030303030003130313939393038303079
:105240003130303030303030300031303139393970
:105250003130393939303030303030303000313061
:105260003139393931313939393030303030303005
:105270003000313031393939343430303030303039
:105280003030303030003130313939393935393911
:1052900039303130313130323130333130343130F6
:1052A0003531303631303731303831303931300006
:1052B00031303139393939343939393031303131A6
:1052C00030323130333130343130353130363130C5
:1052D00037313038313039313000313031393939C6
:1052E00039333939390000003939000000303400D1
:1052F0003130003131003035000000000000000086
:10530000000000000000000000000000000000009D
:105310000000000000000000000D0030310000001F
:1053200000003030303030303030303030303030DD
:10533000003030303030303030003031003032002A
:105340003C3D3D20003D3D3E000D0A000000303058
:10535000005069616E6F004E6F205069616E6F0082
:105360005374617274004F4B004E47001B314572FD
:10537000726F7200203100203200203300526561CC
:10538000647920746F2041726D003100320030006A
:105390003100320033003400350036003700380069
:1053A00039002A002300506C756720696E20506513
:1053B00064616C004F4B004E470041434B004E610F
:1053C0006B002020202020202020202020202020B2
:1053D0002020202020202000000000003700003185
:1053E00034372A323538303336392341424344008A
:1053F00000000000303031003030320030303300F7
:10540000303031005665722030322F31332F323236
:10541000202020004E6F20556E6974732041637404
:1054200069766500436D64204C7C417C537C547CE0
:1054300044203F004C6F6164696E672053686F774A
:10544000005363616E6E696E6720556E69747300F8
:1054500053686F77204C6F61642045727200536807
:105460006F77204C6F61646564204F4B004572720A
:10547000206765742053746174757300476F7420DE
:10548000556E6974207374617475730053686F7717
:10549000206E6F74206C6F61646564000000000012
:1054A00000000000000000000000000000000000FC
:0F54B000000000000000000300070001003200B0
:0154BF000CE0
:0354C000000E00DB
:020000040030CA
:010000000DF2
:0100010013EB
:010003007C80
:00000001FF
