:020000040000FA
:0600000082EF2AF012005D
:020006001200E6
:08000800E1CFBCF0E2CFBAF039
:10001000E9CFB8F0EACFB6F00FEF00F01200D8CF7A
:10002000E4FFE0CFE4FFE46EDACFE4FFE2CFDAFFF3
:10003000E9CFE4FFEACFE4FFE6529EAA54D0F00EE7
:100040000001D717ABA409D00001D7850001C02B50
:10005000000E0001C123AB9851D0ABA209D0000122
:10006000D7870001BE2B000E0001BF23AB9846D0FE
:10007000AECFAAF0FF0E0001AA5D0BE100016C0EED
:10008000AB6F070EAC6F0001B06BB16B0701646B17
:1000900035D0ABC0E9FFACC0EAFFAAC0EFFF00015A
:1000A000AB2B000EAC230001B051B11106E10701EA
:1000B0006C510001B06FB16B21D06C0E0001B02506
:1000C000206E070E0001B121216E0001AB51205CB2
:1000D000AC51215808E20701010E646F00016C0E5B
:1000E000AB6F070EAC6F9EA009D0CE687F0ECF6EAF
:1000F0009E90010E0001B46FB56B01D09E9AB6C000
:10010000EAFFB8C0E9FFBCC0E1FFBAC0E2FF1100DE
:10011000E552E5CFEAFFE5CFE9FFE5CFDAFFE550AD
:10012000E5CFE0FFE5CFD8FF1000050EE66E00EC4E
:100130002AF0E5521200010E9F109F6EE66AC70E6C
:10014000E66E7AEC29F0E552E5527F0ECF6ECE686E
:100150001200D9CFE6FFE1CFD9FF0C0EE1269C0EAD
:10016000F36E080EF3CFDBFF090EDB6A040EDB6AC9
:10017000050EDB6A060EDB6A070EDB6AD6DF0701B7
:10018000640536E1B0C0E6FFB1C0E6FF6D0EE66E75
:10019000070EE66EFD0EDBCFE6FFFE0EDBCFE6FFC1
:1001A00064EC25F0146E060EE15E1450010EE66E4E
:1001B000E66AE66AFD0EDB500001B0250001146E10
:1001C000FE0EDB500001B1210001156E14C0E6FFE8
:1001D00015C0E6FF8FEC25F0166E050EE15E165099
:1001E0000701646BB0C0F3FFB1C0F4FF52D050D030
:1001F0000A0ED6CFDBFF0B0ED7CFDBFF0A0EDBCF0D
:1002000014F00B0EDBCF15F0000E14C0DBFF010E57
:1002100015C0DBFF020EDB6A030EDB6A080EDBCFC4
:1002200014F0090EDBCF15F0166A176AD9CFE9FF73
:10023000DACFEAFFEE50145CEE501558EE50165827
:10024000EE50175825E2D950040FE96EDACFEAFFD5
:10025000EE2A000EEE22EE22EE22D66AD76AFB0EBE
:10026000DBCF14F0FC0EDBCF15F0166A176AD950FD
:10027000040FE96EDACFEAFFEE50145CEE50155829
:10028000EE501658EE50175803E2F368F46801D0A8
:1002900076D70C0EE15C02E2E16AE552E16EE552CE
:1002A000E7CFD9FF1200D9CFE6FFE1CFD9FF0E0E7D
:1002B000E1260C0ED6CFDBFF0D0ED7CFDBFF0C0EE9
:1002C000DBCF14F00D0EDBCF15F0000E14C0DBFFFA
:1002D000010E15C0DBFF020EDB6A030EDB6AD9CF0D
:1002E000E9FFDACFEAFFEECF06F0EECF07F0EECF70
:1002F00008F0EFCF09F0E80E0B6E030E0C6E0D6ADE
:100300000E6AA4EC29F0080E06C0DBFF090E07C038
:10031000DBFF0A0E08C0DBFF0B0E09C0DBFF080E77
:10032000DBCF18F0090EDBCF19F00A0EDBCF1AF085
:100330000B0EDBCF1BF0E80E0B6E030E0C6E0D6A7E
:100340000E6A18C006F019C007F01AC008F01BC0EA
:1003500009F013EC29F002C018F003C019F004C032
:100360001AF005C01BF0D9CFE9FFDACFEAFF185029
:10037000EE5C146E1950EE58156E1A50EE58166E4B
:100380001B50EE58176E68C71CF069C71DF01E6A37
:100390001F6A1DAE02D01E681F681C5014261D5017
:1003A00015221E5016221F501722040E14C0DBFF08
:1003B000050E15C0DBFF060E16C0DBFF070E17C0CB
:1003C000DBFF040EDBCFE6FF050EDBCFE6FFE4EC40
:1003D00029F0E552E552080EDBCF14F0090EDBCF11
:1003E00015F00A0EDBCF16F00B0EDBCF17F014C0A2
:1003F00006F015C007F016C008F017C009F000D0CD
:100400000E0EE15C02E2E16AE552E16EE552E7CFF1
:10041000D9FF1200D9CFE6FFE1CFD9FF0E0EE126BA
:100420000C0ECECFDBFF0D0ECFCFDBFF0C0EDBCFE4
:1004300014F00D0EDBCF15F0000E14C0DBFF010E23
:1004400015C0DBFF020EDB6A030EDB6AD9CFE9FFC2
:10045000DACFEAFFEECF06F0EECF07F0EECF08F0EE
:10046000EFCF09F0FA0E0B6E0C6A0D6A0E6AA4EC5F
:1004700029F0080E06C0DBFF090E07C0DBFF0A0EDD
:1004800008C0DBFF0B0E09C0DBFF080EDBCF18F046
:10049000090EDBCF19F00A0EDBCF1AF00B0EDBCF03
:1004A0001BF0FA0E0B6E0C6A0D6A0E6A18C006F08D
:1004B00019C007F01AC008F01BC009F013EC29F0AE
:1004C00002C018F003C019F004C01AF005C01BF0F8
:1004D000D9CFE9FFDACFEAFF1850EE5C146E19505D
:1004E000EE58156E1A50EE58166E1B50EE58176ED9
:1004F000360E1426000E1522000E1622000E1722AC
:10050000040E14C0DBFF050E15C0DBFF060E16C07F
:10051000DBFF070E17C0DBFF040EDBCFE6FF050E87
:10052000DBCFE6FFC8EC29F0E552E552080EDBCF41
:1005300014F0090EDBCF15F00A0EDBCF16F00B0E10
:10054000DBCF17F014C006F015C007F016C008F096
:1005500017C009F000D00E0EE15C02E2E16AE5523C
:10056000E16EE552E7CFD9FF1200AC6AAB6AAB8807
:10057000AC849E989D8A9D98420EAF6EAC84948CFC
:10058000948ED08E9F8AF28CF28EAC8AAB8E120043
:10059000400EE66EE66A2C0EE66ED3EC28F0E552CD
:1005A000E552E5521200D9CFE6FFE1CFD9FF070EA1
:1005B000E126040EDB68FB0EDBCF08F0FC0EDBCF80
:1005C00009F0050E08C0DBFF060E09C0DBFFD9509D
:1005D000FB0F146EFF0EDA20156E020E14C0DBFF47
:1005E000030E15C0DBFF4A0EE66EE66AE66A600E91
:1005F000E66E000EE66E8FEC25F0146E050EE15EE1
:100600001450010EE66EE66AD950040FE66E000E35
:10061000DA20E66E600EE66E000EE66E64EC25F003
:10062000146E060EE15E1450600EDE6E000EDD6E7E
:10063000ACA2FED7DECFE9FFDDCFEAFFEF50E66EDA
:1006400033EC2AF0E552010EE66EE66AD950050F4A
:10065000E66E000EDA20E66E600EE66E000EE66EC6
:1006600064EC25F0146E060EE15E1450ACA2FED7C9
:10067000600EDE6E000EDD6EDECFE9FFDDCFEAFF3D
:10068000EF50E66E33EC2AF0E552DF2A010E01E36B
:10069000DB2AFB0EDBCFE6FFFC0EDBCFE6FFFD0E19
:1006A000DBCFE6FFFE0EDBCFE6FF610EE66E000E4F
:1006B000E66E64EC25F0146E060EE15E1450050E35
:1006C000DB6A060EDB6A050EDBCF14F0060EDBCF0D
:1006D00015F0FB0EDBCF16F0FC0EDBCF17F015503C
:1006E0001718E8AE02D0173404D01650145C175017
:1006F000155815E2ACA2FED7DECFE9FFDDCFEAFF49
:10070000EF50E66E33EC2AF0E552DF2A010E01E3EA
:10071000DB2A050EDB2A060E01E3DB2AD4D7070EFF
:10072000E15C02E2E16AE552E16EE552E7CFD9FF12
:1007300012009EAA02D0010E02D0000E00D01200BC
:10074000BAB202D0010E02D0000E00D01200D9CFF2
:10075000E6FFE1CFD9FF040EE126DE6ADE6ADE6A3B
:10076000DD6ADD52DD52FB0EDBCF14F0FC0EDBCF79
:1007700015F0FD0EDBCF16F0FE0EDBCF17F0D9CF54
:10078000E9FFDACFEAFF1450EE5C1550EE58165030
:10079000EE581750EE580FE2320EE66E9EEC2AF03D
:1007A000E552D9CFE9FFDACFEAFFEE2A000EEE22BA
:1007B000EE22EE22D8D7040EE15C02E2E16AE552B5
:1007C000E16EE552E7CFD9FF1200D9CFE6FFE1CFC6
:1007D000D9FFFD0EDBCFC2F0FE0EDBCFC3F0FB0E68
:1007E000DBCFC6F0FC0EDBCFC7F00001C46BC56BDE
:1007F0000001C5510001C719E8AE02D0C73507D0C6
:10080000C6510001C45D0001C7510001C55916E27F
:1008100097DF000901E0FCD7C2C0E9FFC3C0EAFFCF
:10082000EF50E66E1CEC2AF0E5520001C22B000EE0
:10083000C3230001C42B000EC523DAD7E552E7CF4E
:10084000D9FF1200010EE66EE66AD40EE66E000EC7
:10085000E66EBBDFE552E552E552E5521200010EAD
:10086000E66EE66AD20EE66E000EE66EAEDFE5528A
:10087000E552E552E5521200F2DF640EE66EE66ADA
:10088000E66AE66A64DFE552E552E552E552DADFF0
:100890001200FE0E9214926E010E8910896E010EE6
:1008A0008010806E1200FE0E9214926EFE0E89145D
:1008B000896EFE0E8014806E1200010E9210926EF0
:1008C000010E8014010E8014010E801400D012005D
:1008D000FD0E9214926E020E8910896E020E801027
:1008E000806E1200FD0E9214926EFD0E8914896EB8
:1008F000FD0E8014806E1200020E9210926E020E97
:100900008014020E8014020E801400D01200FB0E20
:100910009214926E040E8910896E040E8010806EFF
:100920001200FB0E9214926EFB0E8914896EFB0E60
:100930008014806E1200040E9210926E040E8014C9
:10094000040E8014040E801400D01200F70E9214CE
:10095000926E080E8910896E080E8010806E12004B
:10096000F70E9214926EF70E8914896EF70E8014AA
:10097000806E1200080E9210926E080E8014080EFF
:100980008014080E801400D01200EF0E9214926EA4
:10099000100E8910896E100E8010806E1200EF0EFE
:1009A0009214926EEF0E8914896EEF0E8014806E91
:1009B0001200100E9210926E100E8014100E801401
:1009C000100E801400D01200DF0E9214926E200ED2
:1009D0008010806E1200DF0E9214926EDF0E801473
:1009E000806E1200200E9210926E200E8014200E47
:1009F0008014200E801400D012007F0E9214926E8C
:100A0000800E8010806E12007F0E9214926E7F0E08
:100A10008014806E1200800E9210926E800E8014F0
:100A2000800E8014800E801400D01200BF0E92142D
:100A3000926E400E8010806E1200BF0E9214926E65
:100A4000BF0E8014806E1200400E9210926E400E07
:100A50008014400E8014400E801400D01200FE0E50
:100A60009414946E010E8210826E1200FE0E941485
:100A7000946EFE0E8214826E1200010E9410946E1B
:100A8000010E8214010E8214010E821400D0120095
:100A9000FD0E9414946E020E8210826E1200FD0EF2
:100AA0009414946EFD0E8214826E1200020E941045
:100AB000946E020E8214020E8214020E821400D072
:100AC0001200FB0E9414946E040E8210826E1200BB
:100AD000FB0E9414946EFB0E8214826E1200040EB0
:100AE0009410946E040E8214040E8214040E821468
:100AF00000D01200F70E9414946E080E8210826ECD
:100B00001200F70E9414946EF70E8214826E120087
:100B1000080E9410946E080E8214080E8214080EAB
:100B2000821400D01200EF0E9414946E100E8210F6
:100B3000826E1200EF0E9414946EEF0E8214826E89
:100B40001200100E9410946E100E8214100E821467
:100B5000100E821400D01200DF0E9414946E200E3A
:100B60008210826E1200DF0E9414946EDF0E8214D7
:100B7000826E1200200E9410946E200E8214200EAD
:100B80008214200E821400D01200FE0E9314936E75
:100B9000010E8110816E1200FE0E9314936EFE0EF4
:100BA0008114816E1200010E9310936E010E811458
:100BB000010E8114010E811400D01200FD0E931459
:100BC000936E020E8110816E1200FD0E9314936ECF
:100BD000FD0E8114816E1200020E9310936E020EB0
:100BE0008114020E8114020E811400D01200FB0E3B
:100BF0009314936E040E8110816E1200FB0E9314F9
:100C0000936EFB0E8114816E1200040E9310936E8E
:100C1000040E8114040E8114040E811400D01200FD
:100C2000F70E9314936E080E8110816E1200F70E6A
:100C30009314936EF70E8114816E1200080E9310B8
:100C4000936E080E8114080E8114080E811400D0D2
:100C50001200EF0E9314936E100E8110816E12002D
:100C6000EF0E9314936EEF0E8114816E1200100E2E
:100C70009310936E100E8114100E8114100E8114B7
:100C800000D01200DF0E9314936E200E8110816E3F
:100C90001200DF0E9314936EDF0E8114816E12002A
:100CA000200E9310936E200E8114200E8114200EBE
:100CB000811400D01200BF0E9314936E400E811069
:100CC000816E1200BF0E9314936EBF0E8114816E5D
:100CD0001200400E9310936E400E8114400E81144A
:100CE000400E811400D012007F0E9314936E800E7C
:100CF0008110816E12007F0E9314936E7F0E81140B
:100D0000816E1200800E9310936E800E8114800EFF
:100D10008114800E811400D01200D9CFE6FFE1CFFC
:100D2000D9FFFD0EDBCF08F0FE0EDBCF09F01C0E65
:100D3000081801E1095001E198D01B0E081801E1E3
:100D4000095001E190D01A0E081801E1095001E1A3
:100D500088D0190E081801E1095001E180D0180E61
:100D6000081801E1095001E178D0170E081801E1D7
:100D7000095071E0160E081801E109506AE0150EDD
:100D8000081801E1095063E0100E081801E109504C
:100D90005CE00F0E081801E1095055E00E0E08182E
:100DA00001E109504EE00D0E081801E1095047E03D
:100DB0000C0E081801E1095040E00B0E081801E183
:100DC000095039E00A0E081801E1095032E0090E15
:100DD000081801E109502BE0070E081801E109503D
:100DE00024E0060E081801E109501DE0050E081860
:100DF00001E1095016E0040E081801E109500FE066
:100E0000030E081801E1095008E0020E081801E17C
:100E1000095001E02CD03DDD2AD05ADD28D077DD05
:100E200026D094DD24D0B1DD22D0CEDD20D0E5DD8A
:100E30001ED0FCDD1CD013DE1AD02ADE18D041DE15
:100E400016D058DE14D06FDE12D086DE10D09DDEB4
:100E50000ED0B4DE0CD0CBDE0AD0E2DE08D0F9DE54
:100E600006D010DF04D027DF02D03EDF00D0E552ED
:100E7000E7CFD9FF1200D9CFE6FFE1CFD9FFFD0EB2
:100E8000DBCF08F0FE0EDBCF09F01C0E081801E1E5
:100E9000095001E198D01B0E081801E1095001E149
:100EA00090D01A0E081801E1095001E188D0190EFE
:100EB000081801E1095001E180D0180E081801E17D
:100EC000095001E178D0170E081801E1095071E0CE
:100ED000160E081801E109506AE0150E081801E124
:100EE000095063E0100E081801E109505CE00F0E94
:100EF000081801E1095055E00E0E081801E10950EB
:100F00004EE00D0E081801E1095047E00C0E0818DC
:100F100001E1095040E00B0E081801E1095039E0E9
:100F20000A0E081801E1095032E0090E081801E123
:100F300009502BE0070E081801E1095024E0060EC5
:100F4000081801E109501DE0050E081801E10950DB
:100F500016E0040E081801E109500FE0030E08180E
:100F600001E1095008E0020E081801E1095001E012
:100F70002CD099DC2AD0B6DC28D0D3DC26D0F0DC0B
:100F800024D00DDD22D027DD20D03EDD1ED055DD62
:100F90001CD06CDD1AD083DD18D09ADD16D0B1DDFF
:100FA00014D0C8DD12D0DFDD10D0F6DD0ED00DDE9E
:100FB0000CD024DE0AD03BDE08D052DE06D069DE3B
:100FC00004D080DE02D097DE00D0E552E7CFD9FF13
:100FD0001200D9CFE6FFE1CFD9FFFD0EDBCF08F03D
:100FE000FE0EDBCF09F01C0E081801E1095001E1EB
:100FF00036D11B0E081801E1095001E127D11A0E64
:10100000081801E1095001E118D1190E081801E191
:10101000095001E109D1180E081801E1095001E158
:10102000FAD0170E081801E1095001E1EBD0160EB5
:10103000081801E1095001E1DCD0150E081801E1A2
:10104000095001E1CDD0100E081801E1095001E16D
:10105000BED00F0E081801E1095001E1AFD00E0E0D
:10106000081801E1095001E1A0D00D0E081801E1B6
:10107000095001E191D00C0E081801E1095001E17D
:1010800082D00B0E081801E1095074E00A0E08180E
:1010900001E1095066E0090E081801E1095058E025
:1010A000070E081801E109504AE0060E081801E190
:1010B00009503CE0050E081801E109502EE0040E2D
:1010C000081801E109501FE0030E081801E109505A
:1010D00010E0020E081801E1095001E0C9D05DECF2
:1010E00004F0146E156A14C0F3FF15C0F4FFC0D0ED
:1010F000BFD07CEC04F0146E156A14C0F3FF15C069
:10110000F4FFB6D0B5D09BEC04F0146E156A14C091
:10111000F3FF15C0F4FFACD0ABD02CDC146E156A15
:1011200014C0F3FF15C0F4FFA3D0A2D042DC146EAC
:10113000156A14C0F3FF15C0F4FF9AD099D052DCA1
:10114000146E156A14C0F3FF15C0F4FF91D090D04F
:1011500062DC146E156A14C0F3FF15C0F4FF88D06A
:1011600087D072DC146E156A14C0F3FF15C0F4FF4B
:101170007FD07ED082DC146E156A14C0F3FF15C0D8
:10118000F4FF76D075D092DC146E156A14C0F3FFAC
:1011900015C0F4FF6DD06CD0A2DC146E156A14C0BB
:1011A000F3FF15C0F4FF64D063D0B2DC146E156A8F
:1011B00014C0F3FF15C0F4FF5BD05AD0C2DC146E2C
:1011C000156A14C0F3FF15C0F4FF52D051D0D2DC21
:1011D000146E156A14C0F3FF15C0F4FF49D048D04F
:1011E000E2DC146E156A14C0F3FF15C0F4FF40D0A2
:1011F0003FD0F2DC146E156A14C0F3FF15C0F4FF83
:1012000037D036D002DD146E156A14C0F3FF15C056
:10121000F4FF2ED02DD012DD146E156A14C0F3FF2A
:1012200015C0F4FF25D024D022DD146E156A14C039
:10123000F3FF15C0F4FF1CD01BD032DD146E156A0D
:1012400014C0F3FF15C0F4FF13D012D042DD146EAA
:10125000156A14C0F3FF15C0F4FF0AD009D052DD9F
:10126000146E156A14C0F3FF15C0F4FF01D000D04E
:10127000E552E7CFD9FF1200D9CFE6FFE1CFD9FF82
:10128000FD0EDBCF16F0FE0EDBCF17F00001800E57
:1012900017140BE0FD0EDBCF14F0FE0EDBCF15F0C4
:1012A000146C151E000E152206D0FD0EDBCF14F0B7
:1012B000FE0EDBCF15F014C0F3FF15C0F4FF00D015
:1012C000E552E7CFD9FF1200010E0B01406F416BD1
:1012D000B7EC12F0D00EE66E070EE66EE66AE66A2E
:1012E000A7EC03F0E552E552E552E5522FEC04F08D
:1012F000F80EE66E0B0EE66EB9EC1AF0E552E5520A
:10130000E80EE66E030EE66EE66AE66AA7EC03F008
:10131000E552E552E552E5522FEC04F070EC13F083
:10132000350EE66E0C0EE66EB9EC1AF0E552E5529B
:10133000F40EE66E010EE66EE66AE66AA7EC03F0CE
:10134000E552E552E552E55201011E6B050E010121
:101350001E5D11E2C9EC13F001018F51901103E100
:1013600070EC13F005D0F7EC15F00101050E1E6FBF
:1013700001011E2BEBD70101903504E28F510008CB
:10138000000E905532E22FEC04F08FC1E6FF90C1C1
:10139000E6FF380E146E4E0E156E166A14C0E6FF88
:1013A00015C0E6FF16C0E6FF790EE66E010EE66E8A
:1013B00099EC27F0176E070EE15E1750790EE66E76
:1013C000010EE66EB9EC1AF0E552E552E80EE66E53
:1013D000030EE66EE66AE66AA7EC03F0E552E55214
:1013E000E552E552D2EC18F00DD0C7EC12F02FEC1C
:1013F00004F0080EE66E0C0EE66EB9EC1AF0E5523B
:10140000E552FFD7DFEC1AF0ABEC12F0F3CF14F09B
:10141000F4CF15F01450151002E0000E01D0010EAB
:101420000B01CD6F0B01CD512AE0F40EE66E010EDB
:10143000E66EE66AE66AA7EC03F0E552E552E5528D
:10144000E5522FEC04F0280EE66E0C0EE66EB9ECB9
:101450001AF0E552E552E80EE66E0B0EE66E0CEC65
:1014600013F0E552E552880EE66E130EE66EE66A5C
:10147000E66AA7EC03F0E552E552E552E5520B01AE
:10148000CD5101E1BCD00B01126B136B0B01D2519A
:1014900028E10B01020E121901E1135120E02FEC9B
:1014A00004F0710EE66E0B0EE66EB9EC1AF0E55222
:1014B000E552020EE66EE66A3D0EE66E0B0EE66E35
:1014C0009DEC0FF0E552E552E552E552B7EC0FF016
:1014D000F3CF12FBF4CF13FB9BEC00F0DAD711EC47
:1014E00012F00B01CE2B000ECF232FEC04F0140EC4
:1014F000E66EE66AE66A000EE66E010EE66E8FECB8
:1015000025F0146E050EE15E1450CECBE6FFCFCB76
:10151000E6FF2F0E146E4E0E156E166A14C0E6FF0F
:1015200015C0E6FF16C0E6FF000EE66E010EE66E81
:1015300099EC27F0176E070EE15E1750140EE66E59
:10154000E66A000EE66E010EE66E9DEC0FF0E552C7
:10155000E552E552E552ABEC12F0F3CF14F0F4CFC4
:1015600015F01450151038E1A8EC1AF0F3CF14F070
:10157000F4CF15F0010E141801E115502CE10C0107
:10158000A72B000EA823A7CC1DF7A8CC1EF70A0E88
:101590000D6E0E6A1DC708F01EC709F04AEC2AF04E
:1015A00008C01DF709C01EF71DC714F01EC715F0AF
:1015B0000A0E1502F3CF15F00A0E1402F3CF14F041
:1015C000F45015260C01A751141802E1A851151862
:1015D00002E1B4EC11F0BFD7CECBE6FFCFCBE6FFF4
:1015E0001CEC1AF0E552E552ABEC12F0F3CF14F01C
:1015F000F4CF15F01450151001E0F6D70FD12FECF1
:1016000004F0180EE66E0C0EE66EB9EC1AF0E55218
:10161000E552B7EC0FF0F3CF12FBF4CF13FB050E3E
:101620000B01121901E1135101E18AD0040E0B01E3
:10163000121901E1135101E17CD0030E0B011219C3
:1016400001E1135173E0020E0B01121901E1135174
:101650006AE0010E0B01121901E1135101E0DED025
:101660002FEC04F0F40EE66E0B0EE66E1F0E146EF9
:101670004E0E156E166A14C0E6FF15C0E6FF16C0C2
:10168000E6FF790EE66E010EE66E99EC27F0176E16
:10169000070EE15E1750790EE66E010EE66EB9ECAC
:1016A0001AF0E552E552F40EE66E0B0EE66E0CEC07
:1016B00013F0E552E552880EE66E130EE66EE66A0A
:1016C000E66AA7EC03F0E552E552E552E5522FEC4D
:1016D00004F0130E146E4E0E156E166A14C0E6FF5B
:1016E00015C0E6FF16C0E6FF790EE66E010EE66E47
:1016F00099EC27F0176E050EE15E1750790EE66E35
:10170000010EE66EB9EC1AF0E552E552E80EE66E0F
:10171000030EE66EE66AE66AA7EC03F0E552E552D0
:10172000E552E5527BD011EC12F078D05FEC12F06C
:1017300075D08FC118F790C119F7DFEC1AF06ED091
:101740002FEC04F0020E146E4E0E156E166A14C0C5
:10175000E6FF15C0E6FF16C0E6FF790EE66E010E45
:10176000E66E99EC27F0176E050EE15E1750790EC4
:10177000E66E010EE66EB9EC1AF0E552E552FA0E8D
:10178000E66EE66AE66AE66AA7EC03F0E552E55221
:10179000E552E552F1EC1EF0F3CF14FBF4CF15FB4C
:1017A000020E0B01141901E115510AE0040E0B01A0
:1017B000141901E1155101E006D054EC1EF02DD0B2
:1017C000A1EC1EF02AD0F50E146E4D0E156E166AA1
:1017D00014C0E6FF15C0E6FF16C0E6FF790EE66E00
:1017E000010EE66E99EC27F0176E050EE15E1750BC
:1017F000790EE66E010EE66EB9EC1AF0E552E5528E
:10180000E80EE66E030EE66EE66AE66AA7EC03F003
:10181000E552E552E552E55200D000D030D6120034
:10182000D9CFE6FFE1CFD9FF0B0EE126D9CFE9FFF3
:10183000DACFEAFF300EEE6E310EEE6E320EEE6E45
:10184000330EEE6E340EEE6E350EEE6E360EEE6E1E
:10185000370EEE6E380EEE6E390EEE6EEE6AD9CFA2
:1018600014F0DACF15F0FD0EDB501424E96EFE0EF5
:10187000DB501520EA6EEF5000D0146E0B0EE15CC9
:1018800002E2E16AE552E16E1450E552E7CFD9FF7A
:101890001200D9CFE6FFE1CFD9FFFD0EDBCFE9FF84
:1018A000FE0EDBCFEAFF2A0EEA02F3CFEAFF2A0E92
:1018B000E902F3CFE9FFF450EA26950EE926010E7E
:1018C000EA22020EE926000EEA22090EEE1801E1D4
:1018D000ED501AE1FD0EDBCFE9FFFE0EDBCFEAFF94
:1018E0002A0EEA02F3CFEAFF2A0EE902F3CFE9FF5C
:1018F000F450EA26950EE926010EEA22020EE926A8
:10190000000EEA22EE6AED6AFD0EDBCFE9FFFE0E65
:10191000DBCFEAFF2A0EEA02F3CFEAFF2A0EE90242
:10192000F3CFE9FFF450EA26950EE926010EEA22EC
:10193000020EE926000EEA22EE2A000EED22FD0E2E
:10194000DBCFE9FFFE0EDBCFEAFF2A0EEA02F3CF80
:10195000EAFF2A0EE902F3CFE9FFF450EA26950EDA
:10196000E926010EEA22020EE926000EEA22EECF57
:1019700037F7EDCF38F7E552E7CFD9FF1200D9CFCF
:10198000E6FFE1CFD9FF010EE66E010EE66EE66AD4
:10199000AF0EE66E050EE66E8FEC25F0146E050EAA
:1019A000E15E1450020EE66EE66AE66A2A0EE66E04
:1019B000010EE66E8FEC25F0146E050EE15E1450FC
:1019C000250EE66E0B0EE66EF90EDBCFE6FFFA0E85
:1019D000DBCFE6FFFB0EDBCFE6FFFC0EDBCFE6FF47
:1019E000FD0EDBCFE9FFFE0EDBCFEAFF2A0EEA0297
:1019F000F3CFEAFF2A0EE902F3CFE9FFF450EA261B
:101A0000950EE926010EEA22080EE926000EEA22CA
:101A1000E9CF14F0EACF15F014C0E6FF15C0E6FFD9
:101A20000F0EE66E0B0EE66EFD0EDBCFE9FFFE0E2F
:101A3000DBCFEAFF2A0EEA02F3CFEAFF2A0EE90221
:101A4000F3CFE9FFF450EA26950EE926010EEA22CB
:101A5000020EE926000EEA22EECFE6FFEFCFE6FF08
:101A6000E50E166E4D0E176E186A16C0E6FF17C00B
:101A7000E6FF18C0E6FFAF0EE66E050EE66E99ECC7
:101A800027F0196E110EE15E1950AF0EE66E050ECD
:101A9000E66E1DD9E552E552F3CF14F0F4CF15F000
:101AA00014C0E6FF15C0E6FFBBDEE552E5520A01B1
:101AB000DA6FDA0EE66E0A0EE66EAF0EE66E050E11
:101AC000E66EA9EC25F0E552E552E552E55201013A
:101AD000246B256BF70EDBCF14F0F80EDBCF15F07F
:101AE000010125511518E8AE02D0153404D0145068
:101AF000245D1550255901E3A9D0AF0EE66E050E01
:101B0000E66EEEEC25F0E552E552F3CF39F7F4CF6F
:101B10003AF793EC05F039C7E6FF3AC7E6FFAF0E98
:101B2000E66E050EE66ED3EC02F0E552E552E552A4
:101B3000E552010EE66EE66AE66AE66AA7EC03F095
:101B4000E552E552E552E5529AEC05F0300EE66EAC
:101B5000E66AE66AB00EE66E060EE66E8FEC25F0DB
:101B6000146E050EE15E1450F50EDBCFE6FFF60EA7
:101B7000DBCFE6FFB00EE66E060EE66EA9EC00F0D7
:101B8000E552E552E552E552F3CF2CF1F4CF2DF1B9
:101B900001012D3504E22C510008000E2D5546E2BE
:101BA000030EE66EE66AE66AED0EE66E0A0EE66E75
:101BB0008FEC25F0146E050EE15E1450020EE66EF9
:101BC000E66AB60EE66E060EE66EED0EE66E0A0EDE
:101BD000E66E58EC26F0146E060EE15E1450ED0E23
:101BE000E66E0A0EE66E24EC27F0E552E552F3CFDE
:101BF00016F1F4CF17F10101070E161901E1175183
:101C00000FE1FD0EDBCFE6FFFE0EDBCFE6FF41DE90
:101C1000E552E55261EC05F0010EF36EF46A1DD059
:101C20000101080E161901E1175100E1640EE66E7C
:101C3000E66AE66AE66AA7EC03F0E552E552E55289
:101C4000E5520101242B000E252344D77AEC05F040
:101C50000B01D26BF368F46800D0E552E7CFD9FFEF
:101C60001200D9CFE6FFE1CFD9FFFD0EDBCFE6FFB3
:101C7000FE0EDBCFE6FFEEEC25F0E552E552F3CFAA
:101C80003BF7F4CF3CF793EC05F03BC7E6FF3CC7CE
:101C9000E6FFFD0EDBCFE6FFFE0EDBCFE6FFD3EC6B
:101CA00002F0E552E552E552E552020EE66EE66AB2
:101CB000E66AE66AA7EC03F0E552E552E552E55222
:101CC0009AEC05F000D0E552E7CFD9FF1200D9CF4A
:101CD000E6FFE1CFD9FF0701456B466B020EE66ECA
:101CE000E66AE66A490EE66E070EE66E8FEC25F0B0
:101CF000146E050EE15E145007013F6B406B070147
:101D0000436B446BFD0EDBCFE6FFFE0EDBCFE6FF41
:101D1000EEEC25F0E552E552F3CF14F0F4CF15F0D8
:101D200007011450435D1550445962E207014035E4
:101D300004E23F510208000E405503E207013F6BE9
:101D4000406B3FC7E9FF40C7EAFFD890E936EA3663
:101D5000AB0EE9260C0EEA22EECF41F7EDCF42F7AB
:101D6000010EE66EE66AFD0EDB5007014325000119
:101D7000146EFE0EDB50070144210001156E14C0E5
:101D8000E6FF15C0E6FF490EE66E070EE66E58EC5C
:101D900026F0166E060EE15E1650490EE66E070E30
:101DA000E66E24EC27F0E552E552F3CF14F0F4CFC1
:101DB00015F041C708F042C709F014C00DF015C076
:101DC0000EF015EC28F00701070145510624070124
:101DD000456F07010701465107200701466F0701BC
:101DE0003F2B000E40230701432B000E44238AD7CC
:101DF00045C747F746C748F70A0E0D6E0E6A47C734
:101E000008F048C709F0EFEC27F008C047F709C011
:101E100048F70A0E086E096A47C70DF048C70EF06A
:101E200015EC28F006500701455D0701476F075084
:101E3000070146590701486F47C7E6FF48C7E6FF55
:101E40003CEC09F0E552E55200D0E552E7CFD9FF6E
:101E50001200020EE66EE66AE66A280EE66E010ED3
:101E6000E66E8FEC25F0146E050EE15E1450270E21
:101E7000E66EE66AE66AE00EE66E060EE66E8FEC49
:101E800025F0146E050EE15E1450260EE66EE66A2D
:101E9000300EE66EE00EE66E060EE66E8FEC25F076
:101EA000146E050EE15E1450020EE66EE66AE66AF6
:101EB000F60EE66E0A0EE66E8FEC25F0146E050E39
:101EC000E15E145001011E6B190E01011E5D34E22A
:101ED00001011E512A0DF3CFE9FFF4CFEAFF950E61
:101EE000E926010EEA22010EEE6EED6A01011E5195
:101EF0002A0DF3CFE9FFF4CFEAFF950EE926010E94
:101F0000EA22020EE926000EEA22010EEE6EED6ACA
:101F100001011E512A0DF3CFE9FFF4CFEAFF950E20
:101F2000E926010EEA22040EE926000EEA22EE6AF4
:101F3000ED6A01011E2BC8D71200D9CFE6FFE1CF11
:101F4000D9FFFB0EDBCFE6FFFC0EDBCFE6FFFD0E7D
:101F5000DBCFE6FFFE0EDBCFE6FFE5EC03F0E5525C
:101F6000E552E552E552E552E7CFD9FF1200FDEC0C
:101F700018F007011B6F020EE66EE66A600EE66E51
:101F80000B0EE66EDADFE552E552E552E552410E00
:101F900007011B5D03E0F368F468E5D10B01126BE8
:101FA000136BFDEC18F007011B6F350E07011B5D6D
:101FB00004E1010E0B01126F136B320E07011B5D62
:101FC00004E1020E0B01126F136B330E07011B5D50
:101FD00004E1030E0B01126F136B370E07011B5D3B
:101FE00004E1040E0B01126F136B380E07011B5D29
:101FF00004E1050E0B01126F136B430E07011B5D0D
:1020000004E1060E0B01126F136B2A0E07011B5D14
:1020100004E1070E0B01126F136B230E07011B5D0A
:1020200004E1080E0B01126F136B0B011251131117
:102030001BE1020EE66EE66A600EE66E0B0EE66EC1
:102040007CDFE552E552E552E552050EE66EE66AA2
:10205000620EE66E0B0EE66E70DFE552E552E5525B
:10206000E552F368F4687FD1060E0B01121901E105
:10207000135101E18DD0050E0B01121901E113512D
:1020800071E0040E0B01121901E1135155E0030E2A
:102090000B01121901E1135139E0020E0B01121963
:1020A00001E113511DE0010E0B01121901E1135161
:1020B00001E074D0DB0E146E4D0E156E166A14C05E
:1020C000E6FF15C0E6FF16C0E6FFF80EE66E0A0E44
:1020D000E66E99EC27F0176E050EE15E17505ED0A4
:1020E000D30E146E4D0E156E166A14C0E6FF15C0A1
:1020F000E6FF16C0E6FFF80EE66E0A0EE66E99ECF5
:1021000027F0176E050EE15E175048D0C80E146E0A
:102110004D0E156E166A14C0E6FF15C0E6FF16C018
:10212000E6FFF80EE66E0A0EE66E99EC27F0176EE3
:10213000050EE15E175032D0BD0E146E4D0E156EB9
:10214000166A14C0E6FF15C0E6FF16C0E6FFF80EDB
:10215000E66E0A0EE66E99EC27F0176E050EE15E4C
:1021600017501CD0B20E146E4D0E156E166A14C0A8
:10217000E6FF15C0E6FF16C0E6FFF80EE66E0A0E93
:10218000E66E99EC27F0176E050EE15E175006D04B
:102190002FEC04F0F368F468E6D000D0F80EE66E99
:1021A0000A0EE66EB9EC1AF0E552E5520B01010E8B
:1021B000121901E1135101E0C6D0020EE66EE66A83
:1021C0003D0EE66E0B0EE66EB8DEE552E552E552C8
:1021D000E552A50E146E4D0E156E166A14C0E6FF7C
:1021E00015C0E6FF16C0E6FFF80EE66E0A0EE66EB4
:1021F00099EC27F0176E050EE15E1750F80EE66EAB
:102200000A0EE66EB9EC1AF0E552E552FDEC18F054
:1022100007011C6F330E07011C5D02E0000E01D0A8
:10222000010E156E320E07011C5D02E0000E01D09A
:10223000010E146E310E07011C5D02E0000E01D08C
:10224000010E1410151064E007011C51330A41E01F
:10225000010A21E0030A01E05AD0020EE66EE66AA6
:10226000680EE66E0B0EE66E68DEE552E552E5524C
:10227000E552E80EE66E0B0EE66EF40EE66E0B0E01
:10228000E66ECDEC25F0E552E552E552E552010E41
:10229000F36EF46A68D0020EE66EE66A6B0EE66EC6
:1022A0000B0EE66E4ADEE552E552E552E552EC0EC3
:1022B000E66E0B0EE66EF40EE66E0B0EE66ECDECE1
:1022C00025F0E552E552E552E552010EF36EF46A4F
:1022D0004AD0020EE66EE66A6E0EE66E0B0EE66EF3
:1022E0002CDEE552E552E552E552F00EE66E0B0E9D
:1022F000E66EF40EE66E0B0EE66ECDEC25F0E552C2
:10230000E552E552E552010EF36EF46A2CD01BD073
:10231000020EE66EE66A600EE66E0B0EE66E0DDEEF
:10232000E552E552E552E552050EE66EE66A620EAA
:10233000E66E0B0EE66E01DEE552E552E552E55221
:10234000F368F46810D0FDEC18F007011B6F420E23
:1023500007011B5D03E0F368F46805D012CBF3FFBF
:1023600013CBF4FF00D012000B01D20559E1010E8E
:10237000E66E010EE66EE66AAF0EE66E050EE66EDE
:102380008FEC25F0146E050EE15E14500C01A9517E
:10239000AA1103E10C01A76BA86BA7CCE6FFA8CCA0
:1023A000E6FF930E146E4D0E156E166A14C0E6FF0E
:1023B00015C0E6FF16C0E6FFAF0EE66E050EE66E30
:1023C00099EC27F0176E070EE15E1750AF0EE66E20
:1023D000050EE66E7CDCE552E552F3CF14F0F4CF47
:1023E00015F014C0E6FF15C0E6FF10EC0CF0E55246
:1023F000E5520A01DA6FDA0EE66E0A0EE66EAF0EED
:10240000E66E050EE66EA9EC25F0E552E552E552C2
:10241000E552AF0EE66E050EE66E23DCE552E552A0
:102420001200010EE66E010EE66EE66AAF0EE66E73
:10243000050EE66E8FEC25F0146E050EE15E14506D
:102440003E0EE66E0A0EE66EAF0EE66E050EE66E08
:10245000CDEC25F0E552E552E552E552AF0EE66EC1
:10246000050EE66E34DCE552E552F3CF14F0F4CFFE
:1024700015F014C0E6FF15C0E6FF10EC0CF0E552B5
:10248000E5520A01DA6FDA0EE66E0A0EE66EAF0E5C
:10249000E66E050EE66EA9EC25F0E552E552E55232
:1024A000E552AF0EE66E050EE66E31EC0EF0E5522B
:1024B000E5520B01010ED26F9BEC00F01200010EF1
:1024C000E66E010EE66EE66AAF0EE66E050EE66E8D
:1024D0008FEC25F0146E050EE15E1450520EE66E80
:1024E0000A0EE66EAF0EE66E050EE66ECDEC25F03A
:1024F000E552E552E552E552AF0EE66E050EE66E88
:1025000067EC0EF0E552E552F3CF14F0F4CF15F07E
:1025100014C0E6FF15C0E6FF10EC0CF0E552E552E2
:102520000A01DA6FDA0EE66E0A0EE66EAF0EE66E9E
:10253000050EE66EA9EC25F0E552E552E552E552AE
:10254000AF0EE66E050EE66E31EC0EF0E552E5528A
:102550000B01D26B120050EC06F050EC06F0146E3A
:10256000156A14C0F3FF15C0F4FF00D01200C8ECC8
:1025700002F0B5EC02F00F015C6B3CEC04F02BECCC
:1025800018F000D0120061EC05F000D012007AECD7
:1025900005F000D01200D9CFE6FFE1CFD9FF81ECE2
:1025A00005F001011E6B01011E51146E156AFD0E2E
:1025B000DBCF16F0FE0EDBCF17F015501718E8AE84
:1025C00002D0173404D01650145C175015581FE26F
:1025D00029EC06F0E80EE66E030EE66EE66AE66AA1
:1025E000A7EC03F0E552E552E552E55230EC06F077
:1025F000E80EE66E030EE66EE66AE66AA7EC03F006
:10260000E552E552E552E55201011E2BCCD700D030
:10261000E552E7CFD9FF1200D9CFE6FFE1CFD9FFCE
:10262000010EE66E010EE66EE66AAF0EE66E050E70
:10263000E66E8FEC25F0146E050EE15E14502A0E46
:10264000E66E0A0EE66EAF0EE66E050EE66ECDEC99
:1026500025F0E552E552E552E552030EE66EE66AD4
:10266000FD0EDBCFE6FFFE0EDBCFE6FFB70EE66E1C
:10267000050EE66E64EC25F0146E060EE15E145055
:10268000AF0EE66E050EE66E67EC0EF0E552E55213
:10269000F3CF14F0F4CF15F014C0E6FF15C0E6FF39
:1026A00010EC0CF0E552E5520A01DA6FDA0EE66E34
:1026B0000A0EE66EAF0EE66E050EE66EA9EC25F08C
:1026C000E552E552E552E552AF0EE66E050EE66EB6
:1026D00031EC0EF0E552E552E552E7CFD9FF12009A
:1026E00029EC0FF0010EE66E010EE66EE66AAF0E03
:1026F000E66E050EE66E8FEC25F0146E050EE15EBB
:102700001450020EE66E0A0EE66EAF0EE66E050E71
:10271000E66ECDEC25F0E552E552E552E552AF0EFE
:10272000E66E050EE66E67EC0EF0E552E552F3CF6D
:1027300014F0F4CF15F014C0E6FF15C0E6FF10EC5E
:102740000CF0E552E5520A01DA6FDA0EE66E0A0E77
:10275000E66EAF0EE66E050EE66EA9EC25F0E552CC
:10276000E552E552E552AF0EE66E050EE66E31EC2F
:102770000EF0E552E5522BEC18F0320EE66EE66AEA
:10278000E66AE66AA7EC03F0E552E552E552E55247
:102790001200010EE66E010EE66EE66AAF0EE66E00
:1027A000050EE66E8FEC25F0146E050EE15E1450FA
:1027B0007A0EE66E0A0EE66EAF0EE66E050EE66E59
:1027C000CDEC25F0E552E552E552E552AF0EE66E4E
:1027D000050EE66E67EC0EF0E552E552F3CF14F00D
:1027E000F4CF15F014C0E6FF15C0E6FF10EC0CF0B6
:1027F000E552E5520A01DA6FDA0EE66E0A0EE66E6F
:10280000AF0EE66E050EE66EA9EC25F0E552E55238
:10281000E552E552AF0EE66E050EE66E31EC0EF0B7
:10282000E552E55201018F6B906BD00EE66E070EFC
:10283000E66EB00EE66E060EE66EA9EC00F0E5520E
:10284000E552E552E552F3CF2CF1F4CF2DF1010121
:102850002D3504E22C510008000E2D5501E3BAD1AC
:10286000030EE66EE66AE66AED0EE66E0A0EE66EA8
:102870008FEC25F0146E050EE15E1450020EE66E2C
:10288000E66AB60EE66E060EE66EED0EE66E0A0E11
:10289000E66E58EC26F0146E060EE15E1450ED0E56
:1028A000E66E0A0EE66E24EC27F0E552E552F3CF11
:1028B00016F1F4CF17F10101070E161901E11751B6
:1028C00001E088D1040EE66EE66AE66A8FC1E9FF90
:1028D00090C1EAFF2A0EEA02F3CFEAFF2A0EE902CC
:1028E000F3CFE9FFF450EA26950EE926010EEA221D
:1028F000080EE926000EEA22E9CF14F0EACF15F01F
:1029000014C0E6FF15C0E6FF8FEC25F0166E050E2D
:10291000E15E1650030EE66EE66AC10EE66E060E26
:10292000E66E8FC1E9FF90C1EAFF2A0EEA02F3CFFB
:10293000EAFF2A0EE902F3CFE9FFF450EA26950EEA
:10294000E926010EEA22080EE926000EEA22E9CF66
:1029500014F0EACF15F014C0E6FF15C0E6FF64ECF2
:1029600025F0166E060EE15E1650040EE66EE66A5F
:10297000E66A8FC1E9FF90C1EAFF2A0EEA02F3CFAF
:10298000EAFF2A0EE902F3CFE9FFF450EA26950E9A
:10299000E926010EEA22080EE926000EEA22040EBC
:1029A000E926000EEA22E9CF14F0EACF15F014C0B0
:1029B000E6FF15C0E6FF8FEC25F0166E050EE15E12
:1029C0001650030EE66EE66AC40EE66E060EE66E5E
:1029D0008FC1E9FF90C1EAFF2A0EEA02F3CFEAFFB6
:1029E0002A0EE902F3CFE9FFF450EA26950EE92614
:1029F000010EEA22080EE926000EEA22040EE9265C
:102A0000000EEA22E9CF14F0EACF15F014C0E6FF79
:102A100015C0E6FF64EC25F0166E060EE15E16505A
:102A2000020EE66EE66AE66A8FC1E9FF90C1EAFF30
:102A30002A0EEA02F3CFEAFF2A0EE902F3CFE9FFFA
:102A4000F450EA26950EE926010EEA22080EE92640
:102A5000000EEA22190EE926000EEA22E9CF14F050
:102A6000EACF15F014C0E6FF15C0E6FF8FEC25F0A5
:102A7000166E050EE15E1650010EE66EE66ABC0E9D
:102A8000E66E060EE66E8FC1E9FF90C1EAFF2A0EE0
:102A9000EA02F3CFEAFF2A0EE902F3CFE9FFF4508E
:102AA000EA26950EE926010EEA22080EE926000E16
:102AB000EA22190EE926000EEA22E9CF14F0EACF45
:102AC00015F014C0E6FF15C0E6FF64EC25F0166EA5
:102AD000060EE15E1650050EE66EE66AE66A8FC1E6
:102AE000E9FF90C1EAFF2A0EEA02F3CFEAFF2A0EBD
:102AF000E902F3CFE9FFF450EA26950EE926010E2C
:102B0000EA22080EE926000EEA221D0EE926000E32
:102B1000EA22E9CF14F0EACF15F014C0E6FF15C0A1
:102B2000E6FF8FEC25F0166E050EE15E1650040EE2
:102B3000E66EE66ABD0EE66E060EE66E8FC1E9FF32
:102B400090C1EAFF2A0EEA02F3CFEAFF2A0EE90259
:102B5000F3CFE9FFF450EA26950EE926010EEA22AA
:102B6000080EE926000EEA221D0EE926000EEA22D2
:102B7000E9CF14F0EACF15F014C0E6FF15C0E6FF68
:102B800064EC25F0166E060EE15E16508FC1E9FF6B
:102B900090C1EAFF2A0EEA02F3CFEAFF2A0EE90209
:102BA000F3CFE9FFF450EA26950EE926010EEA225A
:102BB000060EE926000EEA22B1CCEEFFB2CCEDFF04
:102BC000460E0C01B127000E0C01B22301018F2B20
:102BD000000E9023010E01012DAF02D0D89003D03A
:102BE0002C5D000E2D5901E201D01FD61200010EFE
:102BF000E66E010EE66EE66AAF0EE66E050EE66E56
:102C00008FEC25F0146E050EE15E14500A0EE66E90
:102C1000E66AE66A550EE66E070EE66E8FEC25F064
:102C2000146E050EE15E1450CE0EE66E0A0EE66ED0
:102C3000AF0EE66E050EE66ECDEC25F0E552E552E0
:102C4000E552E5528FC1E6FF90C1E6FF8E0E146E8D
:102C50004D0E156E166A14C0E6FF15C0E6FF16C0CD
:102C6000E6FF790EE66E010EE66E99EC27F0176E20
:102C7000070EE15E1750020EE66EE66A790EE66E0A
:102C8000010EE66EAF0EE66E050EE66EFCEC25F06C
:102C9000146E060EE15E145001011E6B01011E51FF
:102CA000146E156A010115509019E8AE02D09035E6
:102CB00004D08F51145C9051155801E378D0010174
:102CC0001E512A0DF3CFE9FFF4CFEAFF950EE92656
:102CD000010EEA22060EE926000EEA22EECFE6FFFA
:102CE000EFCFE6FF01011E512A0DF3CFE9FFF4CF2C
:102CF000EAFF950EE926010EEA22080EE926000EEB
:102D0000EA22E9CF16F0EACF17F016C0E6FF17C0A7
:102D1000E6FF24EC27F0E552E552F3CF14F0F4CFB0
:102D200015F014C0E6FF15C0E6FF860E186E4D0EB6
:102D3000196E1A6A18C0E6FF19C0E6FF1AC0E6FF4E
:102D4000550EE66E070EE66E99EC27F01B6E090E27
:102D5000E15E1B50080EE66EE66A550EE66E070E43
:102D6000E66EAF0EE66E050EE66EFCEC25F0146E18
:102D7000060EE15E145001011E512A0DF3CFE9FF4A
:102D8000F4CFEAFF950EE926010EEA22060EE926A7
:102D9000000EEA22EECF91F1EFCF92F1C80E0101C1
:102DA0009127000E0101922301011E2B77D7AF0E50
:102DB000E66E050EE66E67EC0EF0E552E552F3CFD7
:102DC00014F0F4CF15F014C0E6FF15C0E6FF10ECC8
:102DD0000CF0E552E5520A01DA6FDA0EE66E0A0EE1
:102DE000E66EAF0EE66E050EE66EA9EC25F0E55236
:102DF000E552E552E552AF0EE66E050EE66E31EC99
:102E00000EF0E552E552320EE66EE66AE66AE66AD2
:102E1000A7EC03F0E552E552E552E552010EE66EED
:102E2000010EE66EE66AAF0EE66E050EE66E8FECFC
:102E300025F0146E050EE15E14500A0EE66EE66A89
:102E4000E66A550EE66E070EE66E8FEC25F0146E00
:102E5000050EE15E1450A40EE66E0A0EE66EAF0E8D
:102E6000E66E050EE66ECDEC25F0E552E552E55234
:102E7000E552AF0EE66E050EE66E67EC0EF0E5521B
:102E8000E552F3CF14F0F4CF15F014C0E6FF15C0EF
:102E9000E6FF10EC0CF0E552E5520A01DA6FDA0EAB
:102EA000E66E0A0EE66EAF0EE66E050EE66EA9EC55
:102EB00025F0E552E552E552E552AF0EE66E050EFD
:102EC000E66E31EC0EF0E552E552320EE66EE66A41
:102ED000E66AE66AA7EC03F0E552E552E552E552F0
:102EE00001018F6B906B91C1E6FF92C1E6FFB00EBE
:102EF000E66E060EE66EA9EC00F0E552E552E552EC
:102F0000E552F3CF2CF1F4CF2DF101012D3504E280
:102F10002C510008000E2D5501E390D0030EE66EF3
:102F2000E66AE66AED0EE66E0A0EE66E8FEC25F0B6
:102F3000146E050EE15E1450020EE66EE66AB60EE1
:102F4000E66E060EE66EED0EE66E0A0EE66E58ECC6
:102F500026F0146E060EE15E1450ED0EE66E0A0EBB
:102F6000E66E24EC27F0E552E552F3CF16F1F4CFEC
:102F700017F10101070E161901E117515FE1110E5A
:102F8000E66EE66AE66A8FC1E9FF90C1EAFF2A0EA3
:102F9000EA02F3CFEAFF2A0EE902F3CFE9FFF45089
:102FA000EA26950EE926010EEA22080EE926000E11
:102FB000EA22080EE926000EEA22E9CF14F0EACF51
:102FC00015F014C0E6FF15C0E6FF8FEC25F0166E75
:102FD000050EE15E1650100EE66EE66ABB0EE66E5A
:102FE000060EE66E8FC1E9FF90C1EAFF2A0EEA02E3
:102FF000F3CFEAFF2A0EE902F3CFE9FFF450EA2605
:10300000950EE926010EEA22080EE926000EEA22B4
:10301000080EE926000EEA22E9CF14F0EACF15F0F7
:1030200014C0E6FF15C0E6FF64EC25F0166E060E30
:10303000E15E165001018F2B000E9023010E01015D
:103040002DAF02D0D89003D02C5D000E2D5901E297
:1030500001D049D7120068EC05F081EC05F0B3EC23
:1030600005F07BEC06F01200D9CFE6FFE1CFD9FFE7
:10307000040EE126020EDE6EDD6AF40EF36E020E21
:10308000F3CFDBFF010EF36E030EF3CFDBFFE3DFC5
:1030900001012C692D69020EDBCF14F0030EDBCF8A
:1030A00015F0166A176A15AE02D01668176814C0B4
:1030B000E6FF15C0E6FF16C0E6FF17C0E6FFA7EC67
:1030C00003F0E552E552E552E552020EDBCFE6FF92
:1030D000030EDBCFE6FFDECFE6FFDDCFE6FF420EDD
:1030E000E66E0B0EE66E2E0EE66E0B0EE66EFD0E17
:1030F000DBCFE6FFFE0EDBCFE6FFBFEC0CF0146E7D
:103100000A0EE15E1450F3CF2CF1F4CF2DF1010142
:10311000010E2C1901E12D511CE1FD0EDBCFE9FF61
:10312000FE0EDBCFEAFF2A0EEA02F3CFEAFF2A0EF9
:10313000E902F3CFE9FFF450EA26950EE926010EE5
:10314000EA22040EE926000EEA22010EEE6EED6A76
:103150001AD0FD0EDBCFE9FFFE0EDBCFEAFF2A0E11
:10316000EA02F3CFEAFF2A0EE902F3CFE9FFF450B7
:10317000EA26950EE926010EEA22040EE926000E43
:10318000EA22EE6AED6A2CC1F3FF2DC1F4FF00D0F4
:10319000040EE15C02E2E16AE552E16EE552E7CF3E
:1031A000D9FF120001011E6B01011E51146E156A38
:1031B000010115509019E8AE02D0903504D08F511E
:1031C000145C9051155813E201011E51E66EE66A37
:1031D0004BDFE552E552F3CF2CF1F4CF2DF1010195
:1031E000800E2D1501E003D001011E2BDDD718C77D
:1031F000F3FF19C7F4FF00D01200F00E9214926E84
:103200000F0E9310936E896AF00E8914896E140E56
:10321000E66EE66AE66AE66AA7EC03F0E552E55276
:10322000E552E5520F0E81140701126F0F0E0701D0
:10323000125D3BE10F0E81140701126F89D9F3CFA4
:1032400014F0F4CF15F0010E141801E115502CE123
:103250000C01A72B000EA823A7CC1DF7A8CC1EF7A6
:103260000A0E0D6E0E6A1DC708F01EC709F04AEC63
:103270002AF008C01DF709C01EF71DC714F01EC7AD
:1032800015F00A0E1502F3CF15F00A0E1402F3CF53
:1032900014F0F45015260C01A751141802E1A8519E
:1032A000151802E1B4EC11F0C1D7140EE66EE66A0F
:1032B000E66AE66AA7EC03F0E552E552E552E5520C
:1032C0002FEC04F0070112510E0A15E0030A0EE07C
:1032D000060A07E00C0A01E013D00701156B166B14
:1032E0000FD0010E0701156F166B0AD0020E0701F1
:1032F000156F166B05D0030E0701156F166B00D006
:103300000E0E896E140EE66EE66AE66AE66AA7ECB1
:1033100003F0E552E552E552E5520F0E8114070124
:10332000126F0F0E0701125D03E20701136B146B9E
:103330000D0E896E140EE66EE66AE66AE66AA7EC82
:1033400003F0E552E552E552E5520F0E81140701F4
:10335000126F0F0E0701125D04E2010E0701136FD9
:10336000146B0B0E896E140EE66EE66AE66AE66A68
:10337000A7EC03F0E552E552E552E5520F0E811439
:103380000701126F0F0E0701125D04E2020E070122
:10339000136F146B070E896E140EE66EE66AE66A0A
:1033A000E66AA7EC03F0E552E552E552E5520F0E4E
:1033B00081140701126F0F0E0701125D04E2030E64
:1033C0000701136F146B15C714F016C715F0D890CA
:1033D00014361536D89014361536D30E14260B0E27
:1033E0001522145007011325E96E15500701142109
:1033F000EA6EEFCF1AF7F00E8914896E140EE66E9E
:10340000E66AE66AE66AA7EC03F0E552E552E552A1
:10341000E5520F0E81140701126F0F0E0701125DA6
:1034200005E20F0E81140701126FF7D722EC04F0AA
:1034300007011A5100D01200D9CFE6FFE1CFD9FF22
:10344000140EE66EE66AE66A930EE66E0C0EE66E03
:103450008FEC25F0146E050EE15E1450FD0EDBCFEF
:10346000E6FFFE0EDBCFE6FF810E146E4D0E156EED
:10347000166A14C0E6FF15C0E6FF16C0E6FF900E00
:10348000E66E0C0EE66E99EC27F0176E070EE15E05
:103490001750140EE66EE66A660EE66E0A0EE66ECB
:1034A000930EE66E0C0EE66E64EC25F0146E060EBE
:1034B000E15E1450030EE66EE66A900EE66E0C0EA8
:1034C000E66E9B0EE66E0C0EE66E64EC25F0146E56
:1034D000060EE15E1450930EE66E0C0EE66E67EC7F
:1034E0000EF0E552E552F3CF14F0F4CF15F014C00E
:1034F000E6FF15C0E6FF10EC0CF0E552E5520A01BC
:10350000DA6FDA0EE66E0A0EE66E930EE66E0C0EBB
:10351000E66EA9EC25F0E552E552E552E552930E30
:10352000E66E0C0EE66E31EC0EF0E552E5520C0143
:10353000A76BA86B7F0ECF6ECE680001B46BB56B26
:10354000010E0C01A96FAA6BE552E7CFD9FF12005B
:103550000001010EB41901E1B55107E10001B46B9E
:10356000B56B010EF36EF46A03D0F36AF46A00D00F
:103570001200D9CFE6FFE1CFD9FFFD0EDBCFE6FF8A
:10358000FE0EDBCFE6FFEEEC25F0E552E552F3CF81
:1035900014F0F4CF15F014C0E6FF15C0E6FFFD0EE1
:1035A000DBCFE6FFFE0EDBCFE6FFE5EC03F0E552F6
:1035B000E552E552E552E552E7CFD9FF1200D9CFE7
:1035C000E6FFE1CFD9FF1D0EE1262A0EDF6ED950AE
:1035D000090FE96EDACFEAFF530EEE6E680EEE6E5B
:1035E0006F0EEE6E770EEE6E200EEE6EEE6AD95016
:1035F0000F0FE96EDACFEAFF4E0EEE6E6F0EEE6E33
:10360000530EEE6E680EEE6E200EEE6EEE6AD95020
:10361000150FE96EDACFEAFF410EEE6E200EEE6E68
:10362000EE6AD950180FE96EDACFEAFF440EEE6E5B
:10363000200EEE6EEE6A010EF36E1B0EF3CFDBFF73
:103640001C0EDB6A07015F6B606B2FEC04F0D95036
:103650001B0FE96EDACFEAFFEE50ED1002E1CDDD8F
:10366000DF6E1B0EDB6A1C0EDB6ADF50230A10E0E4
:10367000090A01E02FD007015F07000E0701605B18
:103680000701800E601503E007015F6B606B23D0BC
:1036900007015F2B000E070160238FC114F090C15A
:1036A00015F01406000E155A070115506019E8AE02
:1036B00002D0603504D05F51145C6051155809E2A6
:1036C0008FC15FF790C160F70701010E5F5F000EC9
:1036D000605B01D0B5D12FEC04F0160EE66EE66A01
:1036E000E66A790EE66E010EE66E8FEC25F0146E3A
:1036F000050EE15E1450080EE66EE66AE66AD950E1
:10370000010FE66E000EDA20E66E8FEC25F0146EE7
:10371000050EE15E1450010EE66EE66A840EE66E5A
:103720000B0EE66E5FC7E9FF60C7EAFF2A0EEA02EA
:10373000F3CFEAFF2A0EE902F3CFE9FFF450EA26BD
:10374000950EE926010EEA22080EE926000EEA226D
:103750001B0EE926000EEA22E9CF14F0EACF15F09D
:1037600014C0E6FF15C0E6FF2DEC26F0166E060E1F
:10377000E15E1650000913E1D950150FE66E000EF8
:10378000DA20E66ED950010FE66E000EDA20E66E02
:10379000CDEC25F0E552E552E552E55212D0D95074
:1037A000180FE66E000EDA20E66ED950010FE66EB5
:1037B000000EDA20E66ECDEC25F0E552E552E5523A
:1037C000E552010EE66EE66A820EE66E0B0EE66EBE
:1037D0005FC7E9FF60C7EAFF2A0EEA02F3CFEAFFFC
:1037E0002A0EE902F3CFE9FFF450EA26950EE92606
:1037F000010EEA22080EE926000EEA22190EE92639
:10380000000EEA22E9CF14F0EACF15F014C0E6FF6B
:1038100015C0E6FF2DEC26F0166E060EE15E165082
:10382000000972E0D950090FE66E000EDA20E66E4C
:10383000D950010FE66E000EDA20E66EA9EC25F0F5
:10384000E552E552E552E5523D0EE66E0B0EE66E90
:103850005FC7E9FF60C7EAFF2A0EEA02F3CFEAFF7B
:103860002A0EE902F3CFE9FFF450EA26950EE92685
:10387000010EEA22080EE926000EEA22190EE926B8
:10388000000EEA22E9CF14F0EACF15F014C0E6FFEB
:1038900015C0E6FFD950010FE66E000EDA20E66E85
:1038A0005FC7E9FF60C7EAFF2A0EEA02F3CFEAFF2B
:1038B0002A0EE902F3CFE9FFF450EA26950EE92635
:1038C000010EEA22080EE926000EEA22E9CF16F0E0
:1038D000EACF17F016C0E6FF17C0E6FF760E186EA7
:1038E0004D0E196E1A6A18C0E6FF19C0E6FF1AC01D
:1038F000E6FF790EE66E010EE66E99EC27F01B6E80
:103900000D0EE15E1B504FD0D9500F0FE66E000E2A
:10391000DA20E66ED950010FE66E000EDA20E66E70
:10392000A9EC25F0E552E552E552E5523D0EE66E72
:103930000B0EE66ED950010FE66E000EDA20E66E31
:103940005FC7E9FF60C7EAFF2A0EEA02F3CFEAFF8A
:103950002A0EE902F3CFE9FFF450EA26950EE92694
:10396000010EEA22080EE926000EEA22E9CF14F041
:10397000EACF15F014C0E6FF15C0E6FF6D0E166E17
:103980004D0E176E186A16C0E6FF17C0E6FF18C086
:10399000E6FF790EE66E010EE66E99EC27F0196EE1
:1039A0000B0EE15E1950790EE66E010EE66EE1DD5A
:1039B000E552E552160EE66EE66AE66A790EE66EA6
:1039C000010EE66E8FEC25F0146E050EE15E1450CC
:1039D000100EE66EE66A5FC7E9FF60C7EAFF2A0ECF
:1039E000EA02F3CFEAFF2A0EE902F3CFE9FFF4502F
:1039F000EA26950EE926010EEA22080EE926000EB7
:103A0000EA22080EE926000EEA22E9CF14F0EACFF6
:103A100015F014C0E6FF15C0E6FF790EE66E010E44
:103A2000E66E64EC25F0166E060EE15E1650790E19
:103A3000E66E010EE66E9DDDE552E55208D600D039
:103A40001D0EE15C02E2E16AE552E16EE552E7CF6C
:103A5000D9FF120007013351341106E101018F6BC8
:103A6000906B0701356B366B0701352B000E070194
:103A700036230701363504E235511008000E36555D
:103A800009E2010E0701356F366B01018F2B000E25
:103A9000010190238FC1E9FF90C1EAFF2A0EEA02DB
:103AA000F3CFEAFF2A0EE902F3CFE9FFF450EA264A
:103AB000950EE926010EEA22080EE926000EEA22FA
:103AC000E9CF14F0EACF15F014C0E6FF15C0E6FF09
:103AD00024EC27F0E552E552F3CF33F7F4CF34F777
:103AE0001200D9CFE6FFE1CFD9FF050EE126010E86
:103AF000DB6A020EDB6A010EDBCF14F0020EDBCFB5
:103B000015F0D890155004E6020E145C000E1558FE
:103B100071E2FDEC18F0DF6E230EDF5C03E1F36A67
:103B2000F46A6BD0300EDF5C03E3DF50390801E24A
:103B3000E2D7300EDF5C146E156A14BE1568030EF2
:103B400014C0DBFF040E15C0DBFFD950010FE96E76
:103B5000DACFEAFFEE50ED1010E10A0E086E096AA6
:103B6000030EDBCF0DF0040EDBCF0EF015EC28F0CA
:103B700006C035F707C036F70FD0030EDBCF14F0C1
:103B8000040EDBCF15F01406000E155A1450070171
:103B900035271550070136230701363504E2355124
:103BA0001008000E365520E235C733F736C734F714
:103BB000100E0D6E0E6A33C708F034C709F0EFEC33
:103BC00027F008C033F709C034F7100E086E096AF1
:103BD00033C70DF034C70EF015EC28F0065007017E
:103BE000355F07500701365B010EDB2A020E01E349
:103BF000DB2A81D7F368F46800D0050EE15C02E2AD
:103C0000E16AE552E16EE552E7CFD9FF1200D9CF64
:103C1000E6FFE1CFD9FF070EE126D950040FE96E88
:103C2000DACFEAFF300EEE6E340EEE6EEE6A35C776
:103C3000E6FF36C7E6FF810E146E4D0E156E166A4E
:103C400014C0E6FF15C0E6FF16C0E6FFD9CFE6FFB9
:103C5000DACFE6FF99EC27F0176E070EE15E1750FA
:103C6000640EE66EE66A020EE66EE66AD9CFE6FFFD
:103C7000DACFE6FFD950040FE66E000EDA20E66ECA
:103C80008FC1E6FF90C1E6FFBFEC0CF0146E0A0E88
:103C9000E15E1450070EE15C02E2E16AE552E16E7A
:103CA000E552E7CFD9FF12000701336B346B0701F0
:103CB000356B366BCFDE2FEC04F0140EE66EE66A41
:103CC000E66A000EE66E010EE66E8FEC25F0146ECD
:103CD000050EE15E145035C7E6FF36C7E6FF33C771
:103CE000E6FF34C7E6FF5F0E146E4D0E156E166AC2
:103CF00014C0E6FF15C0E6FF16C0E6FF000EE66E34
:103D0000010EE66E99EC27F0176E090EE15E175072
:103D1000140EE66EE66A000EE66E010EE66E9DEC8F
:103D20000FF0E552E552E552E552DBDEF3CF14F039
:103D3000F4CF15F01450151001E169DFBBD7B4D7EB
:103D40001200010E0B01CE6FCF6B2FEC04F0140E9E
:103D5000E66EE66AE66A000EE66E010EE66E8FEC2F
:103D600025F0146E050EE15E1450CECBE6FFCFCBEE
:103D7000E6FF560E146E4D0E156E166A14C0E6FF61
:103D800015C0E6FF16C0E6FF000EE66E010EE66EF9
:103D900099EC27F0176E070EE15E1750140EE66ED1
:103DA000E66A000EE66E010EE66E9DEC0FF0E5523F
:103DB000E552E552E55295DEF3CF14F0F4CF15F05D
:103DC000145015100CE1CECBE6FFCFCBE6FF1CEC78
:103DD0001AF0E552E5520B01CE2B000ECF23B5D7DA
:103DE0001200D9CFE6FFE1CFD9FF020EE126FDECAC
:103DF00018F007011B6F350E07011B5D03E1010E73
:103E0000DE6EDD6A320E07011B5D03E1020EDE6E1F
:103E1000DD6A330E07011B5D03E1030EDE6EDD6A12
:103E2000370E07011B5D03E1040EDE6EDD6A380EFE
:103E300007011B5D03E1050EDE6EDD6A430E07011F
:103E40001B5D03E1060EDE6EDD6A2A0E07011B5DB7
:103E500003E1070EDE6EDD6A230E07011B5D03E141
:103E6000080EDE6EDD6ADECF14F0DDCF15F014C073
:103E7000F3FF15C0F4FF00D0020EE15C02E2E16A3C
:0C3E8000E552E16EE552E7CFD9FF1200D9
:043E8C0002002558B3
:103E90000000D20000000400000072550000000A7B
:063EA0000000B302000067
:0A3EA6008FEC24F0FB0EDBCFF3FFDE
:103EB000DB06F35000090AE0DDEC24F0FA0E48ECD2
:103EC00025F0F3E1151CF1E1010E01D0000EBEEF6B
:103ED00024F08FEC24F03B0EE12402E3E168E6528B
:103EE000E16E010EDB6A020EDB6AF90EDBCFF6FF34
:103EF000FA0EDBCFF7FFFB0EDBCFF8FF0800F55023
:103F0000DF6EDF5002E1E2EF23F0250EDF5C02E01E
:103F1000D5EF23F0030EDB6A040EDB6A050EDB6AC5
:103F2000060EDB6A070EDB6AF7EC23F02D0EDF5C72
:103F30000CE02B0EDF5C09E0200EDF5C06E0230EB8
:103F4000DF5C03E0300EDF5C1AE1DF50300A14E082
:103F5000130A0FE0030A0AE00B0A05E0060AE4E18F
:103F6000030EDB80E1D7030EDB82DED7030EDB849A
:103F7000DBD7030EDB86D8D7030EDB88D5D72A0E16
:103F8000DF5C1BE1F3EC23F041EC24F010E0030EC6
:103F9000DB8008680968130EDBCF0DF0140EDBCF51
:103FA0000EF015EC28F0040E06C0DBFF03D0130E54
:103FB0002AEC24F0F7EC23F00BD0090EDB6A98EC26
:103FC00024F003E00CEC25F0FAD7090E2AEC24F0DB
:103FD000030EDBB0DB982E0EDF5C1BE1F7EC23F069
:103FE0002A0EDF5C0BE1F3EC23F041EC24F003E15B
:103FF000130E7CEC24F0F7EC23F00BD0090EDB6AF7
:1040000098EC24F003E00CEC25F0FAD7090E7CECD8
:1040100024F0680EDF5C07E1F7EC23F0680EDF5C4C
:104020001DE1030E18D0740EDF5C17E07A0EDF5C22
:1040300014E0480EDF5C06E0540EDF5C03E05A0E2D
:10404000DF5C02E1020E07D06C0EDF5C03E06A0E5B
:10405000DF5C04E1010ECFEC24F0C9DBDF506E0A17
:1040600001E17FD31E0A01E192D1200A01E18FD143
:104070003F0A01E149D11A0A01E146D10D0A01E1E5
:1040800043D1200A01E140D13A0A01E13DD1200AA1
:1040900001E13AD1260A01E135D10D0A01E132D11F
:1040A0001A0A01E1D9D0200A4AE0300A1FE0460A84
:1040B0000EE0250A01E083D3D950F90FE96EFF0E17
:1040C000DA20EA6E010EEE5E000EEE5AEE5ADDECDC
:1040D00024F0250EE66E95DB03E1151C01E169D3A2
:1040E000D9EC24F001E26BD3DB2A69D3080EDB6A3A
:1040F000040EDB50010806E2040EDB04A1EC24F000
:10410000DB508BDB080EDB5009E0030EDB50010BAC
:1041100005E172DB01E04DD3080EDB6A64DBEFCF13
:10412000DFFF51EC25F003E1151C01E142D3D9EC8E
:1041300024F001E3DB2A60DB01E141D33AD3070E2F
:10414000DB5002080FE11DEC25F0030EE4EC24F037
:104150000E0EEECFDBFF0F0EEECFDBFF100EEECF1D
:10416000DBFF20D0F70EDBCF17F0F80EDBCF18F017
:10417000020E175E000E185AF70E17C0DBFFF80E7E
:1041800018C0DBFF17C0E9FF18C0EAFFD4EC24F029
:10419000166A0E0E14C0DBFF0F0E15C0DBFF100EEB
:1041A00016C0DBFF0E0EDBCFE6FF0F0EDBCFE6FF08
:1041B000100EDBCFE6FF86EC26F0E552E552E55225
:1041C000130E07C0DBFF140E08C0DBFF060EDB502A
:1041D00005E0130E18EC25F001E26ADB3CEC25F05B
:1041E00002E2130E37DBFFEC24F006E0040E18ECBD
:1041F00025F002E2050E2EDB030EDBB005D0FCDA63
:1042000001E0D7D2080EDB6A090EDB6A0E0EDBCFA7
:10421000F6FF0F0EDBCFF7FF100EDBCFF8FF080025
:10422000F550DF6EDF5014E042EC25F011E251EC66
:1042300025F003E1151C01E1BCD2BBDB01E3DB2A65
:10424000090EDB2AD9500E0FE96E000ECBDBE7D743
:10425000D3DA01E1B4D2ADD2C6DA110EEECFDBFF74
:10426000120EEDCFDBFF110EDBCFE6FF120EDBCF20
:10427000E6FFEEEC25F0E552E552130EF3CFDBFF3F
:10428000140EF4CFDBFF060EDB5004E0130ED0DB80
:1042900001E20EDB3CEC25F002E2130EDBDAAFDBD1
:1042A00005E0040EC5DB02E2050ED4DA030EDBB036
:1042B00005D0A2DA01E07DD2080EDB6A090EDB6AC6
:1042C000110EDBCFE9FF120EDBCFEAFFEFCFDFFFEE
:1042D000DF5014E0D7DB12E2E4DB03E1151C01E15F
:1042E00068D267DB01E3DB2A090EDB2A110EDB2A29
:1042F000DBCFE9FF120EE8E3DB2AE6D77DDA01E146
:104300005ED257D2030EDB8E070EDB0410E195DB85
:10431000040E5ADB0A0EEECFDBFF0B0EEECFDBFFF7
:104320000C0EEECFDBFF0D0EEECFDBFF6CD0070ED9
:10433000DB5003082CE1030EDBAE0DD0B2DA020E27
:1043400076DAEFCF14F0156A166A176A14AE39D010
:104350001568166835D0F70EDBCF15F0F80EDBCFF9
:1043600016F0020E155E000E165AF70E15C0DBFF92
:10437000F80E16C0DBFF15C0E9FF16C0EAFFEFCF4D
:1043800014F00A0E14C0DBFF0B0EDB6A38D0070EE8
:10439000DB50020809E1030EDBAE04D059DB16AE98
:1043A00010D00ED055DB0DD0030EDBAE12D079DA73
:1043B000020E3DDAF9DA166A176A15AE02D01668EF
:1043C0001768E2DA0C0E16C0DBFF0D0E17C0DBFF1C
:1043D0001AD0F70EDBCF16F0F80EDBCF17F0020E77
:1043E000165E000E175AF70E16C0DBFFF80E17C048
:1043F000DBFF16C0E9FF17C0EAFFD6DAC5DA0C0EFC
:10440000DB6A0D0EDB6A060EDB5005E1010EF36E72
:10441000050EF3CFDBFF150EDB6A160EDB6AD950F3
:10442000370F146E000EDA20156E390E14C0DBFF44
:104430003A0E15C0DBFF380EDB6A080EDB6A0A0E87
:10444000AEDADF50780A12E0200A10E0280A0CE009
:10445000200A0AE03F0A06E00D0A02E0200A08E10D
:10446000020E05D0080E03D0080EDF26100E97DAD4
:10447000030EDBBE02D0DB92DB94DB50800B24E02A
:104480008ADAD890030EEB50000A08E6000EEE5CC4
:10449000000EEE58000EEE58000EEE5815E213DA3C
:1044A0000B680C680D680E6813EC29F00A0E02C048
:1044B000DBFF0B0E03C0DBFF0C0E04C0DBFF0D0E99
:1044C00005C0DBFF2D0E08D0030EDBA202D02B0EA1
:1044D00003D0DBA408D0200EF36E170EF3CFDBFF62
:1044E000150EDB2A02D0170EDB6A050EDB5003E146
:1044F000B7D901E189D0580E146E550E156E000E15
:10450000166E070EDBCF17F0186A196A1A6A17C001
:104510000BF018C00CF019C00DF01AC00EF0D3D972
:10452000A4EC29F014500224F36E15500320F46E0D
:1045300016500420F86EF4CFF7FFF3CFF6FF080013
:10454000090EF5CFDBFF580EDF5C0FE1610EF36E55
:10455000090E7BD90AE3200E146E090EDBCFE7FFAC
:104560001450E75E090EE7CFDBFF070EDBCF14F038
:10457000156A166A176A0FDA14C00BF015C00CF032
:1045800016C00DF017C00EF0EECF06F0EECF07F01C
:10459000EECF08F0EFCF09F0A4EC29F009C0EDFF51
:1045A00008C0EDFF07C0EDFF06C0EFFF390EDBCFFF
:1045B000E9FFDB063A0EDBCFEAFF01E2DB06090E7C
:1045C000DBCFEFFF150EDB2A4BD995E1030EDBA6FF
:1045D0001DD06F0EDF5C06E1C1D918E3150EDB2894
:1045E0005BDA14D0780EDF5C09E0580EDF5C06E081
:1045F000620EDF5C03E0420EDF5C08E1020EF36E48
:10460000160EF3CFDBFF02D0150EDB6A030EDB5074
:10461000100B0EE0040EDBCF14F0050EDB50D8803B
:10462000145406E2060EDB5003E1040EDB5034DACC
:1046300095D90AE2050EDBCFE7FF150EDB50E75EEA
:10464000050EE7CFDBFF02D0050EDB6A040EDBCFE1
:1046500014F0160E45D9D880145414E2160EDBCF90
:10466000E6FF150EDBCFE6FF040EDBCFE6FF050EFF
:10467000DB50E552E75CE552D880E754E552D8803C
:10468000E7545FD9030EDB50010B0BE1080EDB5042
:1046900008E0B2D801E08DD0080EDB50BED8080E7D
:1046A000DB6A170EDB5007E088D9170EF1D903E15A
:1046B000151C01E17ED0160EDB5016E07ED9300EBF
:1046C000E66E9FD802E1151C74E077D9DFCFE6FFD4
:1046D00091EC28F0E552E552E552F4CF15F00001D7
:1046E000F31C02E1151C65E0050EDBCF14F0160E7D
:1046F000DB50D880145409E2050EDBCFE7FF160E1D
:10470000DB50E75E050EE7CFDBFF300EE66E050EF1
:10471000CBD94FE1390EDB2ADBCFE9FF3A0E01E3BB
:10472000DB2ADBCFEAFF090EEFCFDBFFDB500EE029
:1047300044D9090EADD902E1151C3BE0390EDB2A44
:10474000DBCFE9FF3A0EEDE3DB2AEBD755D831E1B9
:10475000160EDBCFE6FF080EC3D8E552E7245DD87E
:104760002ED0070EDB50030A1CE0010A14E0030AF6
:1047700007E07BD9DBCFEEFF020EDBCFEDFF1FD0D2
:10478000F5D8196A17AE02D0186819682CD8BCD8A9
:1047900019C0EEFF14D0EAD817BE186824D8B4D8D0
:1047A0000ED063D9DBCFEFFF0AD07BD905E1151C12
:1047B00003E1F368F46810D0FCD801E3DB2A79D96F
:1047C0007EEF1FF0010EDBCF14F0020EDBCF15F0F1
:1047D00014C0F3FF15C0F4FF3B0EE15C02E2E16A96
:1047E000E552E16ECBD029D9020EE4EF24F061D975
:1047F0000800F550DF6E1200200EE66E080E54EF32
:1048000025F091EC28F0E552E552E552F3CF14F093
:10481000F4CF15F00001F31C1200146E156AD95084
:10482000010F4DD91450EE261550ED221200185EDE
:10483000000E195AF70E18C0DBFFF80E19C0DBFF87
:1048400018C0E9FF19C0EAFF1200DBCFF4FFF350F4
:10485000F45C1200DB50E76E040EE7CFDBFF1200C2
:104860000A0EDBCF14F00B0EDBCF15F00C0EDBCFF6
:1048700016F00D0EDBCF17F0145015101610171090
:104880001200130EEECFDBFF140EEDCFDBFF130E85
:10489000DBCF14F0140EDBCF15F00001800E1514E1
:1048A0001200F70EDBCF18F0F80EDBCF19F0120074
:1048B000050EDB50E66ED950130F01D9E552E750D3
:1048C000EE6EED6A12000A0EDBCF06F00B0EDBCFA8
:1048D00007F00C0EDBCF08F00D0EDBCF09F0120055
:1048E000DBCFE6FF150EDBCFE6FF050EDB50E55212
:1048F000E724E552E7241200DB50CED8010EF36E18
:10490000060EF3CFDBFF1200EE50EFCFEAFFE96EA9
:1049100016C0EEFF17C0EEFF18C0EEFF1200D9CF91
:10492000E6FFDACFE6FFE1CFD9FFE2CFDAFF1200F0
:10493000DFCFE6FFE66A60EC2AF0E552E552F3507D
:104940001200E76E080EE7CFDBFF1200EECF14F087
:10495000EECF15F0EFCF16F0176A1200050EDBCF81
:1049600014F0150EDB50D88014541200010EDBCF6A
:1049700016F0020EDBCF17F0186A1200E552E5CFF1
:10498000DAFFE7CFD9FF12000A0E14C0DBFF0B0ECF
:1049900015C0DBFF1200D9500A0F5FEF25F0F36E50
:1049A000070EF3CFDBFF1200EECF14F0EFCF15F0C0
:1049B0001200010EDB2A020E1200FC0EDBCFE6FF16
:1049C000FD0EDBCFE6FF1200145E000E155AF70E47
:1049D00014C0DBFFF80E15C0DBFF14C0E9FF15C0E3
:1049E000EAFF1200DA20EA6EEF2AEECFF6FF000EA1
:1049F000EF22EECFF7FFEF22EECFF8FF1200040E0A
:104A0000DBCFE6FF130EDB50E552E75C9ADFDB50AD
:104A100004DF060EDB501200090EDB500A0DF350C6
:104A2000DF24D00FE76E090EE7CFDBFFF7EF23F0AF
:104A3000DB50F36E050E25EF24F0F70EDBCF14F0FC
:104A4000F80EDBCF15F01200DFCFE6FF01EF24F008
:104A500028DF030EECDEA6EF24F053EC1FF0E55246
:104A6000E552E552E55200091200BDDEEE50EFCFEF
:104A7000EAFFE96E010E1200130EDB50F36E040E16
:104A800025EF24F0040EDB50F36E090E25EF24F021
:104A9000DBCFE6FF01EF24F0E76E050EE7CFDBFF8B
:104AA00012008BDF24EF25F0DBCFE6FF86DF2DEF52
:104AB00025F0D950F90FE96EFF0EF2EF24F0E96E00
:084AC000000EDA20EA6E12007C
:084AC800D9CFE6FFDACFE6FFCB
:104AD000FA0EE3CFD9FFFB0EE3CFDAFFFC0EE3CFF4
:104AE000E9FFFD0EE3CFEAFFE9CFF3FFEACFF4FFE2
:104AF000F80EE35003E1F90EE35008E0F80EE30688
:104B000002E2F90EE306DECFEEFFF2D7FF0EE3CFAF
:104B1000DAFFE552FF0EE3CFD9FFE5521200FE0E99
:104B2000E3CFE9FFFF0EE3CFEAFFE9CFF3FFEACFE0
:104B3000F4FFFB0EE35003E1FC0EE35009E0FB0E33
:104B4000E30602E2FC0EE306FD0EE350EE6EF1D743
:104B50001200D9CFE6FFDACFE6FFFA0EE3CFD9FF96
:104B6000FB0EE3CFDAFFFC0EE3CFE9FFFD0EE3CF50
:104B7000EAFFE9CFF3FFEACFF4FFEE66FED7ED528E
:104B8000DFCFEEFFDE66FCD7FF0EE3CFDAFFE552A4
:104B9000FF0EE3CFD9FFE5521200D9CFE6FFDACFFF
:104BA000E6FFFA0EE3CFD9FFFB0EE3CFDAFFFC0EF0
:104BB000E3CFE9FFFD0EE3CFEAFFE9CFF3FFEACF52
:104BC000F4FFDECFEFFFEE66FCD7FF0EE3CFDAFF98
:104BD000E552FF0EE3CFD9FFE5521200FE0EE3CF00
:104BE000E9FFFF0EE3CFEAFFF36AF46AEE5203E057
:104BF000F34AF42AFBD71200D9CFE6FFDACFE6FF5B
:104C0000FA0EE3CFD9FFFB0EE3CFDAFFFC0EE3CFC2
:104C1000E9FFFD0EE3CFEAFFE9CFF3FFEACFF4FFB0
:104C2000EE66FED7ED52F80EE35003E1F90EE350C5
:104C30000AE0F80EE30602E2F90EE306DFCFEEFF2C
:104C4000DE66F1D701D0EF6AFF0EE3CFDAFFE5525F
:104C5000FF0EE3CFD9FFE5521200D9CFE6FFDACF3E
:104C6000E6FFFA0EE3CFD9FFFB0EE3CFDAFFFC0E2F
:104C7000E3CFE9FFFD0EE3CFEAFFF80EE35003E1D7
:104C8000F90EE3500AE0F80EE30602E2F90EE3063D
:104C9000DE50EF5C02E1EE66F0D7F36EFF0EE3CF7D
:104CA000DAFFE552FF0EE3CFD9FFE552F3501200D1
:104CB000D9CFE6FFDACFE6FFFA0EE3CFD9FFFB0E3E
:104CC000E3CFDAFFFC0EE3CFE9FFFD0EE3CFEAFF0F
:104CD000E9CFF3FFEACFF4FFF80EE35003E1F90E5A
:104CE000E3500BE0F80EE30602E2F90EE306DECF36
:104CF000EFFFEE66F1D7DD52EFD7FF0EE3CFDAFF1D
:104D0000E552FF0EE3CFD9FFE5521200FF0EE3CFCD
:104D1000F8FFE552FF0EE3CFF7FFE552FF0EE3CFBA
:104D2000F6FFE552E66AE66AE66A0900F55209E02E
:104D3000FD0EE32A05E1FE0EE32A02E1FF0EE32A5F
:104D4000F4D7FD0EE3CF07F0FE0EE3CF08F0FF0E21
:064D5000E3CF09F01200A0
:0A4D560043756520253032640055D6
:104D600020253033642050202530326400552573CF
:104D7000202573257300552573202573257325730E
:104D80000025303364002533642530356400253038
:104D900032640031303139393939383030253035E5
:104DA0006430303000456E7465722053686F772030
:104DB000230053746172742053686F7700476574E1
:104DC000205374617475730044697361726D20417E
:104DD0006C6C0041726D20416C6C004C6F61642002
:104DE00053686F770025316425732530337325733D
:104DF000257325730042616420526573706F6E7372
:104E000065002850296F7274202F2028432975656A
:104E1000203F0053686F77204C6F61646564004CDD
:104E20006F6164696E672053686F77202573004354
:104E30005545202030257500256420556E69747312
:084E40002041637469766500EE
:084E4800FF0EE3CFEAFFE55283
:104E5000FF0EE3CFE9FFE552E66AE66AD9CFE6FF47
:104E6000DACFE6FFFC0EE124D96EFF0EE220DA6E07
:104E7000E66AE66AE66A200EEF5C06E0090EEF5C81
:104E800003E0EF6603D03FD0EE50F5D72D0EEF5C78
:104E900003E1FF0EE32A03D02B0EEF5C01E1EE509D
:104EA0002F0EEF6424D03A0EEF6021D0D890F90E87
:104EB000E336FA0EE336FD0EDECFE3FFFE0EDDCF66
:104EC000E3FFD890F90EE336FA0EE336D890F90EE8
:104ED000E336FA0EE336FD0EE350DE26FE0EE35017
:104EE000DD22300EEE5CDE26000EDD22D9D7FF0E6D
:104EF000E3CFE8FFE85207E0F90EE31EE32AFA0EDB
:104F0000D8B4E306E31EE552E552E552FF0EE3CFC7
:104F1000DAFFE552FF0EE3CFD9FFE552E1CFE9FF1B
:104F2000E2CFEAFFED52ED52EECFF3FFEFCFF4FF09
:024F300012006D
:0E4F3200D9CFE6FFDACFE6FFE1CFD9FFE2CF1D
:104F4000DAFFE652E652E652E652D950F90F146EF5
:104F5000FF0EDA20156E020E14C0DBFF030E15C023
:104F6000DBFF020EDBCFE6FF030EDBCFE6FFF90E21
:104F7000DBCFE6FFFA0EDBCFE6FFFB0EDBCFE6FF73
:104F8000D950FC0FE66EFF0EDA20E66E69EC1FF0DA
:104F9000146E070EE15C02E2E16AE552E16E145024
:104FA000F3CFDEFFF4CFDDFFFC0EDBCFE9FFFD0E1C
:104FB000DBCFEAFFEF6ADECF14F0DDCF15F014C0CF
:104FC000F3FF15C0F4FF040EE15C02E2E16AE55272
:0E4FD000E16EE552E5CFDAFFE7CFD9FF120020
:024FDE00006A67
:104FE0000EAEF8EF27F00D6C0E1EE86A0E22001EC2
:104FF00009AE00EF28F0086C091EE86A0922001EBD
:105000004AEC2AF009BE10EF28F000AE000C086C44
:10501000091EE86A0922046C051EE86A0522000CD4
:1050200000BE07EF28F00188FF0C09C013F008C08C
:1050300012F008500D02F4CF07F0F3CF06F009503C
:105040000E02F4CF09F0F3CF08F00D02F35007265B
:10505000F4500822E86A092212500E02F350072683
:10506000F4500822E86A09220EAE3BEF28F01250F5
:10507000085E1350095A13AE000C0D50085E0E5016
:04508000095A000CBD
:0C5084008C0EF66E3E0EF76E000EF86EFD
:1050900000010900F550CD6F0900F550CE6F03E116
:1050A000CD6701D03DD00900F550C86F0900F5501B
:1050B000C96F0900F550CA6F09000900F550E96E83
:1050C0000900F550EA6E090009000900F550CB6FA0
:1050D0000900F550CC6F09000900F6CFCFF0F7CFEB
:1050E000D0F0F8CFD1F0C8C0F6FFC9C0F7FFCAC0F2
:1050F000F8FF0001CB5302E1CC5307E00900F55063
:10510000EE6ECB07F8E2CC07F9D7CFC0F6FFD0C0E0
:10511000F7FFD1C0F8FF0001CD07000ECE5BBFD76F
:0251200012007B
:0E512200D9CFE6FFDACFE6FFE1CFD9FFE2CF2B
:10513000DAFFFB0EDBCF14F0FC0EDBCF15F0000125
:10514000800E15141AE1FB0EDBCFE9FFFC0EDBCF5E
:10515000EAFFEECFF3FFEDCFF4FFEE2A000EEF22D1
:10516000F3CFE9FFF4CFEAFFFD0EDBCFEFFFEF5007
:10517000156AF36E15C0F4FF10D0FB0EDB50FE086D
:1051800006E1FD0EDBCFE6FF90EC2AF005D0FD0E28
:10519000DBCFE6FF03EC00F0E552E552E5CFDAFFA6
:0651A000E7CFD9FF120069
:0A51A600D9CFE6FFE1CFD9FFBA6AC6
:1051B000A66AFE0EDBB0BA88FE0EDBA202D0BA8C65
:1051C000A68CFE0EDBB4BA8EFE0EDBA602D0A6883D
:1051D00001D0A68AFE0EDBA802D0BA8401D0BA9410
:1051E000FE0EDBBAAB86FE0EDBAC02D0A38A01D08A
:1051F000A39AFE0EDBAE02D0A38801D0A398FC0ECA
:10520000DB507B6EFC0EDBCF14F0FD0EDBCF15F018
:1052100015C014F0156A14507C6EBA8AA68EE55239
:06522000E7CFD9FF1200E8
:0A52260006500B02F3CF02F0F4CFA4
:1052300003F00C02F3500326000EF420046E065017
:105240000D02F3500426000EF420056E06500E02E7
:10525000F350052607500B02F3500326F4500422A6
:10526000000E052207500C02F3500426F4500522CC
:1052700007500D02F350052608500B02F350042688
:10528000F450052208500C02F350052609500B0279
:06529000F3500526120098
:0A529600D9CFE6FFE1CFD9FFFD0EEE
:1052A000DBCF14F0FE0EDBCF15F015C014F0156A3D
:1052B000030E1414756EFF0EE76EFD0EDBCF14F0B7
:1052C000FE0EDBCF15F0E7501416156A1450746EFD
:1052D000FC0EDB50736E7F9E7F9C7F84F29E550E8A
:1052E0007E6EAA0E7E6E7F82F28E7F94E552E7CFAD
:0452F000D9FF1200D0
:0C52F400D9CFE6FFDACFE6FFE1CFD9FF0B
:10530000E2CFDAFFFC0EDB50F30BAA6EFD0EDB5092
:105310007F0BE824CD6ECF6ACE6A9E90FD0EDBAE89
:1053200002D09D8001D09D909E94FC0EDBA402D003
:105330009D8401D09D94AABEAA86CD80E552E5CF7A
:08534000DAFFE7CFD9FF1200EC
:08534800056A046A036A026AA7
:10535000200EE76ED8900636073608360936023634
:105360000336043605360B50025C0C5003580D50C2
:1053700004580E50055809E30B50025E0C50035AB6
:105380000D50045A0E50055A062AE72EE4D7120093
:10539000D9CFE6FFDACFE6FFE1CFD9FFE2CFDAFFE0
:1053A000E652E652FC0EDBCFDEFFDBCFDDFF010E67
:1053B000DB50CF6EDF50CE6EE552E552E552E5CFC1
:0853C000DAFFE7CFD9FF12006C
:0853C800D9CFE6FFDACFE6FFC2
:1053D000E1CFD9FFE2CFDAFFE652E652FC0EDBCF97
:1053E000DEFFDBCFDDFF010EDB50D76EDF50D66E68
:1053F000E552E552E552E5CFDAFFE7CFD9FF1200DB
:10540000D9CFE6FFDACFE6FFE1CFD9FFE2CFDAFF6F
:10541000FD0EDB507F0BD56ED76AD66AF294FD0E77
:10542000DBAE02D0F28A01D0F29AD58EE552E5CFFA
:08543000DAFFE7CFD9FF1200FB
:08543800D9CFE6FFDACFE6FF51
:10544000E1CFD9FFE2CFDAFFBAAC04D0BA900001C5
:10545000D6B3BA80FD0EDB50796EE552E5CFDAFFA8
:06546000E7CFD9FF1200A6
:0A546600D9CFE6FFDACFE6FFE1CF71
:10547000D9FFE2CFDAFFACAC04D0AC900001D7B3D7
:10548000AC80FD0EDB50AD6EE552E5CFDAFFE7CF25
:04549000D9FF12002E
:0C549400056A046A100EE76ED890083616
:1054A0000936043605360D50045C0E50055805E3E8
:1054B0000D50045E0E50055A082AE72EF0D7120050
:1054C000F36AF46AFF0EE124E96EFF0EE220EA6E51
:1054D000ED6607D02F0EEF6404D03A0EEF6001D0D6
:0454E000F32A120099
:0C54E400410EF36E00EE00F00E0E01D839
:1054F0001200EA6002D0EE6AFCD7F350E9601200B5
:04550000EE6AFCD77C
:0C5504001DEE00F02DEE00F0F86A019C96
:1055100042EC28F0B8EC2AF064EC09F0FBD712005A
:10552000FF0EE350ACBA04D0AF6AAB8EAC8A949C49
:0C553000ACA2FED7AD6EF36EF46A120060
:04553C00FF0EE3502B
:10554000226E1B0E00D001D0200EE76EE72EFED794
:08555000222EFAD700D0120050
:085558003031323334353637AF
:095560003839616263646566007C
:06556A007FB2FED7120023
:02557000120027
:0E5572000000313031393939393939393930A1
:10558000303030303030300031303139393939381D
:105590003030303030303030303030003130313930
:1055A0003939303830303130303030303030300010
:1055B00031303139393931303939393030303030B2
:1055C00030303000313031393939313139393930D1
:1055D00030303030303030003130313939393434D6
:1055E00030303030303030303030300031303139E0
:1055F000393939353939393031303131303231306A
:105600003331303431303531303631303731303874
:105610003130393130003130313939393934393973
:105620003930313031313032313033313034313062
:105630003531303631303731303831303931300072
:105640003130313939393933393939000000393994
:1056500000000030340031300031310030350000BE
:10566000000000000000000000000000000000003A
:105670000000000000000000000000000000000D1D
:105680000030310000000000303030303030303039
:10569000303030303030003030303030303030006A
:1056A0003031003032003C3D3D20003D3D3E000D9C
:1056B0000A0000003030005069616E6F004E6F20AC
:1056C0005069616E6F005374617274004F4B004EED
:1056D00047001B314572726F72002031002032008A
:1056E000203300526561647920746F2041726D002F
:1056F0003100320030003100320033003400350018
:1057000036003700380039002A002300506C7567D6
:1057100020696E20506564616C004F4B004E47005D
:1057200041434B004E616B00202020202020202090
:1057300020202020202020202020202020000000C9
:1057400000003700003134372A32353830333639EB
:10575000234142434400000000003030310030302B
:10576000320030303300303031005665722030392D
:105770002F30342F3134202020004E6F20556E6999
:1057800074732041637469766500436D64204C7CBA
:10579000417C537C547C44203F004C6F6164696EB3
:1057A000672053686F77005363616E6E696E672080
:1057B000556E6974730053686F77204C6F61642075
:1057C0004572720053686F77204C6F616465642086
:1057D0004F4B004572722067657420537461747575
:1057E0007300476F7420556E69742073746174750B
:1057F000730053686F77206E6F74206C6F616465FF
:105800006400000000000000000000000000000034
:10581000000000000000000000000000000300077E
:05582000000100320050
:045825000C000E0065
:020000040030CA
:010000000DF2
:0100010013EB
:010003007C80
:00000001FF
