:020000040000FA
:060000002BEF3EF01200A0
:020006001200E6
:060008001CEF00F01200E5
:02000E00C250DE
:08001000020B01E0010E1200D9
:060018001CEF00F01200D5
:02001E000200DE
:10002000767F0000C30E000004000000D47C0000B6
:08003000000A0000A20200001A
:08003800D8CFE4FFE0CFE4FFA4
:10004000E46EDACFE4FFE2CFDAFFE9CFE4FFEACFF4
:10005000E4FFF6CFE4FFF7CFE4FFF3CFE4FFF4CF04
:10006000E4FFFACFE4FF00EE00F0140EE80403E32F
:10007000EECFE4FFFBD7E6529EAAB3D0010ED16EBD
:10008000F00E0E01C717ABA40CD0C7850E01B72B1D
:10009000000EB823AB9809010D6B010E1A6F1B6B94
:1000A000A0D0ABA20CD0C7870E01B52B000EB62393
:1000B000AB9809010D6B010E1A6F1B6B92D0AECF7E
:1000C0000DF9FF0E09010D5D06E1010E126F136BB4
:1000D0001A6B1B6B86D0010E121901E1135137E127
:1000E000126B136BD50E086E096AAFCE0DF0B0CE51
:1000F0000EF014EC3BF006C01CF907C01DF9050E0C
:1001000009011C270D0E1D231CC9E9FF1DC9EAFFAB
:100110000DC9EFFF1CC9E9FF1DC9EAFFEF50E66EEC
:10012000AFCEE9FFB0CEEAFF010ED890E936EA364D
:10013000E806FBE1140EE926090EEA22E552E75033
:10014000EE6EED6A09011C2B000E1D234AD0010E34
:100150001A1901E11B5101E144D01CC9E9FF1DC975
:10016000EAFF0DC9EFFF1C2B000E1D23AFCE1EF0C2
:10017000B0CE1FF0D50E1F02F3CF1FF01E02F3CF3B
:100180001EF0F4501F26050E1E260D0E1F22AFCEA8
:10019000E9FFB0CEEAFF010ED890E936EA36E8066C
:1001A000FBE1140EE926090EEA221E50EE241C6E15
:1001B0001F50EE201D6E09011C511C5C1D511D5865
:1001C00010E20E01AF2B000EB023010ED880AF5508
:1001D000000EB05502E2AF6BB06B0E01B32B000EF8
:1001E000B423F2A40BD0060ED76EA50ED66EF294F1
:1001F00009010E2B000E0F2310231123E55200EEF0
:1002000013F0140EE80403E3E5CFEDFFFBD7E5CFD1
:10021000FAFFE5CFF4FFE5CFF3FFE5CFF7FFE5CF3A
:10022000F6FFE5CFEAFFE5CFE9FFE5CFDAFFE550DE
:10023000E5CFE0FFE5CFD8FF1000D9CFE6FFE1CF53
:10024000D9FF020EE1260E01B43504E2B3510008D5
:10025000000EB45501E3B8D0B1CEE9FFB2CEEAFF4B
:10026000010ED890E936EA36E806FBE1140EE926DD
:10027000090EEA22EECFE6FFEFCFE6FFB1CE14F093
:10028000B2CE15F0D50E1502F3CF15F01402F3CF50
:1002900014F0F4501526050E14260D0E1522010E2D
:1002A0001426000E152214C0E6FF15C0E6FFFD0E51
:1002B000DBCFE6FFFE0EDBCFE6FF90DA166E060E12
:1002C000E15E1650010EE66EE66AE66AFD0EDBCFD1
:1002D00016F0FE0EDBCF17F0B1CEE9FFB2CEEAFF8B
:1002E000010ED890E936EA36E806FBE1140EE9265D
:1002F000090EEA221650EE24146E1750EE20156EE9
:1003000014C0E6FF15C0E6FFB1EC39F0186E050E1B
:10031000E15E1850D50EE66EE66AE66AB1CE14F0DC
:10032000B2CE15F01502F3CF15F01402F3CF14F08E
:10033000F4501526050E14260D0E152214C0E6FFE6
:1003400015C0E6FFB1EC39F0166E050EE15E1650F1
:10035000B1CEE9FFB2CEEAFF010ED890E936EA3617
:10036000E806FBE1140EE926090EEA22EECFDEFFD5
:10037000EDCFDDFFB1CEE9FFB2CEEAFF010ED8909E
:10038000E936EA36E806FBE1140EE926090EEA2210
:10039000EE6AED6A0E01B12B000EB223010ED88079
:1003A000B155000EB25502E2B16BB26B0E01B3074C
:1003B000000EB45BDECF14F0DDCF15F014C0F3FFF8
:1003C00015C0F4FF04D003D0F368F46800D0020E27
:1003D000E15C02E2E16AE552E16EE552E7CFD9FF66
:1003E0001200D9CFE6FFE1CFD9FF0A0EE126080EB1
:1003F000D6CFDBFF090ED7CFDBFF080EDBCF14F023
:10040000090EDBCF15F0040E14C0DBFF050E15C07E
:10041000DBFF060EDB6A070EDB6A0EC914F00FC99C
:1004200015F010C916F011C917F0050ED890143642
:10043000153616361736E806F9E1040EDBCF18F04C
:10044000050EDBCF19F0060EDBCF1AF0070EDBCF5F
:100450001BF0D00E0B6E070E0C6E0D6A0E6A18C0E4
:1004600006F019C007F01AC008F01BC009F025EC0F
:100470003DF006C018F007C019F008C01AF009C016
:100480001BF018501426195015221A5016221B5012
:10049000172214C0DFFF010E15C0DBFF020E16C0CD
:1004A000DBFF030E17C0DBFFDECF06F0DECF07F069
:1004B000DECF08F0DDCF09F0DD52DD520A0EE15C3F
:1004C00003E200D0E16AE552E16EE552E7CFD9FFE1
:1004D0001200D9CFE6FFE1CFD9FF0E0EE1260C0EB8
:1004E000CECFDBFF0D0ECFCFDBFF0C0EDBCF14F03A
:1004F0000D0EDBCF15F0000E14C0DFFF010E15C08E
:10050000DBFF020EDB6A030EDB6AD9CFE9FFDACF2D
:10051000EAFFEECF06F0EECF07F0EECF08F0EFCF18
:1005200009F0FA0E0B6E0C6A0D6A0E6A25EC3DF0AE
:10053000080E06C0DBFF090E07C0DBFF0A0E08C06D
:10054000DBFF0B0E09C0DBFF080EDBCF18F0090E36
:10055000DBCF19F00A0EDBCF1AF00B0EDBCF1BF04E
:10056000FA0E0B6E0C6A0D6A0E6A18C006F019C0FE
:1005700007F01AC008F01BC009F061EC3CF002C0A3
:1005800018F003C019F004C01AF005C01BF0D9CF51
:10059000E9FFDACFEAFF1850EE5C146E1950EE58FE
:1005A000156E1A50EE58166E1B50EE58176E360E1A
:1005B0001426000E152216221722040E14C0DBFF8B
:1005C000050E15C0DBFF060E16C0DBFF070E17C0B9
:1005D000DBFF040EDBCFE6FF050EDBCFE6FF8AEC88
:1005E0003DF0E552E552080EDBCF14F0090EDBCFEB
:1005F00015F00A0EDBCF16F00B0EDBCF17F014C090
:1006000006F015C007F016C008F017C009F00E0E6E
:10061000E15C03E200D0E16AE552E16EE552E7CF2A
:10062000D9FF1200D9CFE6FFE1CFD9FF020EE126B4
:10063000FD0EDBCFDEFFDBCFDDFF010EDB50D76E23
:10064000DF50D66E020EE15C02E2E16AE552E16E35
:10065000E552E7CFD9FF1200D9CFE6FFE1CFD9FFAE
:10066000020EE126FD0EDBCFDEFFDBCFDDFFF90E54
:10067000DBCF14F0FA0EDBCF15F0000ED880145447
:10068000000E155424E2FB0EDBCFE9FFFC0EDBCF9E
:10069000EAFFEF501CE0FB0EDBCFE9FFDB2AFC0E8C
:1006A000DBCFEAFF01E3DB2AEF50E66EDFCFE9FFA5
:1006B000DF2A010EDBCFEAFF01E3DB2AE552E75038
:1006C000EF6EF90EDB06FA0E01E2DB06D0D7F90E6B
:1006D000DBCF14F0FA0EDBCF15F0000ED8801454E7
:1006E000000E15540FE2DFCFE9FFDF2A010EDBCF4A
:1006F000EAFF01E3DB2AEF6AF90EDB06FA0E01E2FC
:10070000DB06E5D7FD0EDBCF14F0FE0EDBCF15F0D8
:1007100014C0F3FF15C0F4FF020EE15C03E200D049
:10072000E16AE552E16EE552E7CFD9FF1200D9CF79
:10073000E6FFE1CFD9FFF90EDBCF14F0FA0EDBCFE5
:1007400015F0000ED8801454000E155441E2FD0E31
:10075000DBCFE9FFFE0EDBCFEAFFEFCF14F0FB0E9D
:10076000DBCFE9FFFC0EDBCFEAFFEF50145C16E0B5
:10077000FD0EDBCFE9FFFE0EDBCFEAFFEFCF14F07B
:10078000FB0EDBCFE9FFFC0EDBCFEAFFEF50145C82
:1007900002E2FF0E01D0010E1DD00AD0FD0EDBCF0C
:1007A000E9FFFE0EDBCFEAFFEF5002E1000E12D0B0
:1007B000FD0EDB2AFE0E01E3DB2AFB0EDB2AFC0E1C
:1007C00001E3DB2AF90EDB06FA0E01E2DB06B3D702
:1007D000000E00D0E552E7CFD9FF1200D9CFE6FFD7
:1007E000E1CFD9FF040EE126FD0EDBCFDEFFDBCF2C
:1007F000DDFFFB0EDBCF08F0FC0EDBCF09F0020EB5
:1008000008C0DBFF030E09C0DBFFF90EDBCF14F0DD
:10081000FA0EDBCF15F0000ED8801454000E1554DC
:100820001EE2020EDBCFE9FF030EDBCFEAFFEF5043
:10083000E66EDECFE9FFDDCFEAFFE552E750EF6E6F
:10084000DF2A010E01E3DB2A020EDB2A030E01E39D
:10085000DB2AF90EDB06FA0E01E2DB06D6D7FD0E27
:10086000DBCF14F0FE0EDBCF15F014C0F3FF15C084
:10087000F4FF040EE15C03E200D0E16AE552E16EB0
:10088000E552E7CFD9FF1200D9CFE6FFE1CFD9FF7C
:10089000AC6AAB6AAB88AC849E989D8A9D98FD0E2D
:1008A000DBCF14F0FE0EDBCF15F0166A145004E116
:1008B000960E151801E1165002E1340EAF6EFD0ED2
:1008C000DBCF14F0FE0EDBCF15F0166A145004E1F6
:1008D000E10E151801E1165002E1220EAF6E080E6E
:1008E000B86EAC84948C948ED08E9F9AF28CF28EDB
:1008F000AC8AAB8EE552E7CFD9FF1200D9CFE6FF25
:10090000E1CFD9FF050EE126FD0EDBCFE6FFFE0E9F
:10091000DBCFE6FF30EC3AF0E552E552020EF3CFC2
:10092000DBFF030EF4CFDBFFDE6ADD6ADECF14F0FF
:10093000DDCF15F0020EDBCF16F0030EDBCF17F084
:1009400015501718E8AE02D0173404D01650145CB6
:10095000175015581EE2FD0EDBCFE9FFFE0EDBCF70
:10096000EAFF040EEFCFDBFFDBCFE6FFE66A6EECBB
:100970003DF0E552E552FD0EDBCFE9FFDB2AFE0E2E
:10098000DBCFEAFF01E3DB2ADF2A010E01E3DB2AEA
:10099000CDD7050EE15C02E2E16AE552E16EE55277
:1009A000E7CFD9FF1200D9CFE6FFE1CFD9FF4F0E35
:1009B000E126040EDB68050EDB6AFD0EDBCFE6FFE9
:1009C000FE0EDBCFE6FF30EC3AF0E552E552020EC8
:1009D000F3CFDBFF030EF4CFDBFF490EE66EE66AD2
:1009E000E66AD950060FE66E000EDA20E66EB1EC2C
:1009F00039F0146E050EE15E1450010EE66EE66AE3
:100A0000D950040FE66E000EDA20E66ED950070FBB
:100A1000E66E000EDA20E66EE1DE146E060EE15E92
:100A20001450010EE66EE66AD950020FE66E000E13
:100A3000DA20E66ED950080FE66E000EDA20E66E78
:100A4000CDDE146E060EE15E1450FD0EDBCFE6FF28
:100A5000FE0EDBCFE6FFD950060FE66E000EDA2061
:100A6000E66ECBEC39F0E552E552E552E552D9504D
:100A7000060FE66E000EDA20E66E1ED8E552E5524D
:100A80004F0EE15C02E2E16AE552E16EE552E7CF2A
:100A9000D9FF1200D9CFE6FFE1CFD9FFFE0EDB5020
:100AA000B86EE552E7CFD9FF1200ACB202D0010E0A
:100AB00002D0000E00D01200D9CFE6FFE1CFD9FF5F
:100AC000F4DF000901E0FCD7FD0EDBCFE9FFFE0EED
:100AD000DBCFEAFFEF50E66E10D9E552FD0EDBCF1B
:100AE000E9FFDB2AFE0EDBCFEAFF01E3DB2AEF5052
:100AF000E7E1E552E7CFD9FF1200D9CFE6FFE1CF1A
:100B0000D9FF070EE126040EDB68FB0EDBCF08F0F1
:100B1000FC0EDBCF09F0050E08C0DBFF060E09C096
:100B2000DBFFD950FB0F146EFF0EDA20156E020E9C
:100B300014C0DBFF030E15C0DBFFD50EE66EE66AC0
:100B4000E66A380EE66E080EE66EB1EC39F0146E09
:100B5000050EE15E1450010EE66EE66AD950040FF0
:100B6000E66E000EDA20E66E380EE66E080EE66ED1
:100B700035DE146E060EE15E1450010EE66EE66A76
:100B8000D950050FE66E000EDA20E66E390EE66EDD
:100B9000080EE66E23DE146E060EE15E1450FB0EA8
:100BA000DBCFE6FFFC0EDBCFE6FFFD0EDBCFE6FF83
:100BB000FE0EDBCFE6FF3A0EE66E080EE66E0EDEA8
:100BC000146E060EE15E1450380EDE6E080EDD6EF9
:100BD000050EDB6A060EDB6A050EDBCF14F0060E8F
:100BE000DBCF15F0020EE76EFB0EDBCF16F0FC0E2E
:100BF000DBCF17F0E7501626000E172215501718F6
:100C0000E8AE02D0173404D01650145C17501558B3
:100C100016E24BDF000901E0FCD7DECFE9FFDDCFB4
:100C2000EAFFEF50E66E69D8E552DF2A010E01E3D4
:100C3000DB2A050EDB2A060E01E3DB2ACDD7070EE1
:100C4000E15C02E2E16AE552E16EE552E7CFD9FFED
:100C500012009EAA02D0010E02D0000E00D0120097
:100C6000D9CFE6FFE1CFD9FF20DF000901E0FCD7B3
:100C7000FC0EDBCFF6FFFD0EDBCFF7FFFE0EDBCF6A
:100C8000F8FF0800F550E66E38D8E552D950FC0F51
:100C9000E96EFF0EDA20EA6EEFCFF6FFEE2AEFCF15
:100CA000F7FF000EEE22EFCFF8FFEE220800F5501E
:100CB000DBE1E552E7CFD9FF1200D9CFE6FFE1CF64
:100CC000D9FFE652F20E0E01C717ABAC03D0C791A5
:100CD000ABB0C781ABA403D0C785AB98AB88ABA240
:100CE00003D0C787AB98AB88AE50DF6EDF5000D023
:100CF000E552E552E7CFD9FF1200D9CFE6FFE1CFA9
:100D0000D9FFACAC04D0AC900E01C7B3AC80FE0EE2
:100D1000DB50AD6EE552E7CFD9FF1200030EE66E51
:100D200047EC3EF0E552000000000000000000002B
:100D3000000000001200010EE66E47EC3EF0E552A6
:100D400000000000000000000000000000000000A3
:100D50001200040EE66E47EC3EF0E5521200D9CFC9
:100D6000E6FFE1CFD9FFD950FD0FE96EFF0EDA2083
:100D7000EA6E080EEE1801E1ED5003E19B6A720E77
:100D8000D36ED950FD0FE96EFF0EDA20EA6E010E28
:100D9000EE1801E1ED5003E19B6A420ED36ED9508B
:100DA000FD0FE96EFF0EDA20EA6E280EEE1801E163
:100DB000ED5002E19B6AD36AE552E7CFD9FF1200FA
:100DC000D9CFE6FFE1CFD9FF040EE126DE6ADE6A65
:100DD000DE6ADD6ADD52DD52FB0EDBCF14F0FC0E65
:100DE000DBCF15F0FD0EDBCF16F0FE0EDBCF17F0DC
:100DF000D9CFE9FFDACFEAFF1450EE5C1550EE5878
:100E00001650EE581750EE5810E2C40EE66E47EC3E
:100E10003EF0E5520400D9CFE9FFDACFEAFFEE2A2F
:100E2000000EEE22EE22EE22D7D7040EE15C02E2A3
:100E3000E16AE552E16EE552E7CFD9FF1200FD0EFF
:100E40009214926E020E8910896E020E8010806ECE
:100E50001200FD0E9214926EFD0E8914896EFD0E25
:100E60008014806E1200020E9210926E020E801498
:100E7000020E8014020E801400D01200FB0E921499
:100E8000926E040E8910896E040E8010806E12001E
:100E9000FB0E9214926EFB0E8914896EFB0E801469
:100EA000806E1200040E9210926E040E8014040ED6
:100EB0008014040E801400D01200F70E9214926E6B
:100EC000080E8910896E080E8010806E1200F70ED1
:100ED0009214926EF70E8914896EF70E8014806E4C
:100EE0001200080E9210926E080E8014080E8014E4
:100EF000080E801400D01200EF0E9214926E100EA5
:100F00008910896E100E8010806E1200EF0E921400
:100F1000926EEF0E8914896EEF0E8014806E1200AF
:100F2000100E9210926E100E8014100E8014100E7F
:100F3000801400D01200DF0E9214926E200E8010EA
:100F4000806E1200DF0E9214926EDF0E8014806E9F
:100F50001200200E9210926E200E8014200E80142B
:100F6000200E801400D012007F0E9214926E800E1C
:100F70008010806E12007F0E9214926E7F0E80148D
:100F8000806E1200800E9210926E800E8014800E81
:100F90008014800E801400D01200BF0E9214926E46
:100FA000400E8010806E1200BF0E9214926EBF0E23
:100FB0008014806E1200400E9210926E400E8014CB
:100FC000400E8014400E801400D01200FE0E9414C7
:100FD000946E010E8210826E1200FE0E9414946EB6
:100FE000FE0E8214826E1200010E9410946E010E99
:100FF0008214010E8214010E821400D01200FD0E24
:101000009414946E020E8210826E1200FD0E9414DF
:10101000946EFD0E8214826E1200020E9410946E75
:10102000020E8214020E8214020E821400D01200EC
:10103000FB0E9414946E040E8210826E1200FB0E4E
:101040009414946EFB0E8214826E1200040E94109F
:10105000946E040E8214040E8214040E821400D0C6
:101060001200F70E9414946E080E8210826E120015
:10107000F70E9414946EF70E8214826E1200080E0E
:101080009410946E080E8214080E8214080E8214B6
:1010900000D01200EF0E9414946E100E8210826E27
:1010A0001200EF0E9414946EEF0E8214826E1200F2
:1010B000100E9410946E100E8214100E8214100EE6
:1010C000821400D01200DF0E9414946E200E821051
:1010D000826E1200DF0E9414946EDF0E8214826E04
:1010E0001200200E9410946E200E8214200E821492
:1010F000200E821400D01200FE0E9314936E010E87
:101100008110816E1200FE0E9314936EFE0E8114F8
:10111000816E1200010E9310936E010E8114010E68
:101120008114010E811400D01200FD0E9314936EF1
:10113000020E8110816E1200FD0E9314936EFD0E4F
:101140008114816E1200020E9310936E020E8114B0
:10115000020E8114020E811400D01200FB0E9314B3
:10116000936E040E8110816E1200FB0E9314936E29
:10117000FB0E8114816E1200040E9310936E040E08
:101180008114040E8114040E811400D01200F70E95
:101190009314936E080E8110816E1200F70E931453
:1011A000936EF70E8114816E1200080E9310936EE9
:1011B000080E8114080E8114080E811400D012004C
:1011C000EF0E9314936E100E8110816E1200EF0ECD
:1011D0009314936EEF0E8114816E1200100E931013
:1011E000936E100E8114100E8114100E811400D015
:1011F0001200DF0E9314936E200E8110816E120088
:10120000DF0E9314936EDF0E8114816E1200200E98
:101210009310936E200E8114200E8114200E8114E1
:1012200000D01200BF0E9314936E400E8110816E99
:101230001200BF0E9314936EBF0E8114816E1200C4
:10124000400E9310936E400E8114400E8114400E98
:10125000811400D012007F0E9314936E800E8110C3
:10126000816E12007F0E9314936E7F0E8114816E37
:101270001200800E9310936E800E8114800E8114E4
:10128000800E811400D01200D9CFE6FFE1CFD9FF44
:10129000FD0EDBCF08F0FE0EDBCF09F01C0E0818A8
:1012A00001E1095001E190D01B0E081801E109503D
:1012B00001E188D01A0E081801E1095001E180D03F
:1012C000190E081801E1095001E178D0180E08182C
:1012D00001E1095071E0170E081801E109506AE0B8
:1012E000160E081801E1095063E0150E081801E117
:1012F00009505CE0100E081801E1095055E00F0E8E
:10130000081801E109504EE00E0E081801E10950DD
:1013100047E00D0E081801E1095040E00C0E0818D6
:1013200001E1095039E00B0E081801E1095032E0E3
:101330000A0E081801E109502BE0090E081801E116
:10134000095024E0070E081801E109501DE0060EBF
:10135000081801E1095016E0050E081801E10950CE
:101360000FE0040E081801E1095008E0030E081808
:1013700001E1095001E02AD062DD28D07FDD26D0CE
:101380009CDD24D0B9DD22D0D6DD20D0EDDD1ED00D
:1013900004DE1CD01BDE1AD032DE18D049DE16D097
:1013A00060DE14D077DE12D08EDE10D0A5DE0ED037
:1013B000BCDE0CD0D3DE0AD0EADE08D001DF06D0D6
:1013C00018DF04D02FDF02D046DF00D0E552E7CF90
:1013D000D9FF1200D9CFE6FFE1CFD9FFFD0EDBCF59
:1013E00008F0FE0EDBCF09F01C0E081801E10950D1
:1013F00001E190D01B0E081801E1095001E188D0ED
:101400001A0E081801E1095001E180D0190E0818E0
:1014100001E1095001E178D0180E081801E10950E6
:1014200071E0170E081801E109506AE0160E08185D
:1014300001E1095063E0150E081801E109505CE074
:10144000100E081801E1095055E00F0E081801E1CF
:1014500009504EE00E0E081801E1095047E00D0E4C
:10146000081801E1095040E00C0E081801E109508C
:1014700039E00B0E081801E1095032E00A0E081895
:1014800001E109502BE0090E081801E1095024E0A0
:10149000070E081801E109501DE0060E081801E1C9
:1014A000095016E0050E081801E109500FE0040E7E
:1014B000081801E1095008E0030E081801E109507D
:1014C00001E02AD0C6DC28D0E3DC26D000DD24D021
:1014D0001DDD22D037DD20D04EDD1ED065DD1CD0D5
:1014E0007CDD1AD093DD18D0AADD16D0C1DD14D072
:1014F000D8DD12D0EFDD10D006DE0ED01DDE0CD010
:1015000034DE0AD04BDE08D062DE06D079DE04D0AD
:1015100090DE02D0A7DE00D0E552E7CFD9FF12005F
:10152000D9CFE6FFE1CFD9FFFD0EDBCF08F0FE0EED
:10153000DBCF09F01C0E081801E1095001E124D1AC
:101540001B0E081801E1095001E115D11A0E081807
:1015500001E1095001E106D1190E081801E1095015
:1015600001E1F7D0180E081801E1095001E1E8D0B7
:10157000170E081801E1095001E1D9D0160E08181C
:1015800001E1095001E1CAD0150E081801E1095026
:1015900001E1BBD0100E081801E1095001E1ACD007
:1015A0000F0E081801E1095001E19DD00E0E081838
:1015B00001E1095001E18ED00D0E081801E109503A
:1015C00001E17FD00C0E081801E1095071E00B0E0B
:1015D000081801E1095063E00A0E081801E10950FA
:1015E00055E0090E081801E1095047E0070E0818F8
:1015F00001E1095039E0060E081801E109502BE01D
:10160000050E081801E109501DE0040E081801E15B
:1016100009500FE0030E081801E1095001E0BDD0A8
:1016200022DC146E156A14C0F3FF15C0F4FFB5D0A8
:10163000B4D038DC146E156A14C0F3FF15C0F4FF83
:10164000ACD0ABD04EDC146E156A14C0F3FF15C0DD
:10165000F4FFA3D0A2D064DC146E156A14C0F3FFAB
:1016600015C0F4FF9AD099D074DC146E156A14C0BA
:10167000F3FF15C0F4FF91D090D084DC146E156A8E
:1016800014C0F3FF15C0F4FF88D087D094DC146E2B
:10169000156A14C0F3FF15C0F4FF7FD07ED0A4DC20
:1016A000146E156A14C0F3FF15C0F4FF76D075D020
:1016B000B4DC146E156A14C0F3FF15C0F4FF6DD0CE
:1016C0006CD0C4DC146E156A14C0F3FF15C0F4FFAF
:1016D00064D063D0D4DC146E156A14C0F3FF15C057
:1016E000F4FF5BD05AD0E4DC146E156A14C0F3FF2B
:1016F00015C0F4FF52D051D0F4DC146E156A14C03A
:10170000F3FF15C0F4FF49D048D004DD146E156A0C
:1017100014C0F3FF15C0F4FF40D03FD014DD146EA9
:10172000156A14C0F3FF15C0F4FF37D036D024DD9E
:10173000146E156A14C0F3FF15C0F4FF2ED02DD01F
:1017400034DD146E156A14C0F3FF15C0F4FF25D004
:1017500024D044DD146E156A14C0F3FF15C0F4FFE5
:101760001CD01BD054DD146E156A14C0F3FF15C0D5
:10177000F4FF13D012D064DD146E156A14C0F3FFA9
:1017800015C0F4FF0AD009D074DD146E156A14C0B8
:10179000F3FF15C0F4FF01D000D0E552E7CFD9FF29
:1017A0001200D9CFE6FFE1CFD9FFFD0EDBCFE6FF78
:1017B000DCEC3DF0E552E552E7CFD9FF1200D9CF7E
:1017C000E6FFE1CFD9FFFD0EDBCF16F0FE0EDBCF3B
:1017D00017F00001800E17140BE0FD0EDBCF14F0A4
:1017E000FE0EDBCF15F0146C151E000E152206D070
:1017F000FD0EDBCF14F0FE0EDBCF15F014C0F3FFAF
:1018000015C0F4FF00D0E552E7CFD9FF1200D16A2E
:10181000010EC26E0E0EC16E010E926EDF0EC06E14
:1018200067EC07F00B01446B080EE66EE66AAFEC5E
:1018300006F0E552E552C69AF296F18E6AEC3DF05A
:10184000E66A960EE66E44EC04F0E552E5520201BB
:10185000E36BE46B010E0E01B16FB26B0E01AF6B67
:10186000B06B0E01B36BB46B0E01AF6BB06B0E01BE
:10187000B16BB26BAA0EE66E010EE66EE66A050E5D
:10188000E66E0D0EE66EB1EC39F0146E050EE15EFB
:1018900014509AEC24F067EC2EF038EC2FF0010E87
:1018A0000C01A06FA16B010E09011A6F1B6B000EDA
:1018B000E66EE66A260EE66E0B0EE66E45EC28F046
:1018C000E552E552E552E55260EC26F0F1EC01F00C
:1018D00006C030F807C031F808C032F809C033F844
:1018E0000C01193504E218515A08000E195523E26B
:1018F0000501976B86EC07F00A01516B440EE66E0A
:1019000047EC2EF0E5525EEC3EF05BEC3EF0D60E7E
:10191000E66EE66AE66ABF0EE66E030EE66EB1ECB0
:1019200039F0146E050EE15E14500701B66BB76B0B
:101930009AEC24F0C9D7BF0EE66E030EE66EC6EC35
:1019400023F0E552E5520501773504E276510008AF
:10195000000E775501E3AAD009011A6B1B6BD16AFF
:101960000400090EE66EE66AE66AC30EE66E070E2E
:10197000E66EB1EC39F0146E050EE15E14500C0108
:101980001651171111E1080EE66EE66AC20EE66EF8
:10199000030EE66EC30EE66E070EE66EEEEC03F087
:1019A000146E060EE15E1450040EE66EE66AE66AF8
:1019B000D20EE66E070EE66EB1EC39F0146E050E2F
:1019C000E15E1450030EE66EE66ACB0EE66E030E81
:1019D000E66ED20EE66E070EE66EEEEC03F0146EC7
:1019E000060EE15E1450BF0E05017625146E030E3F
:1019F00005017721156E1406000E155A14C0E6FF76
:101A000015C0E6FF91EC38F0E552E552F3CF0EF841
:101A1000F4CF0FF8010EE66EE66AE66ABF0E050126
:101A20007625146E030E05017721156E1406000E3F
:101A3000155A14C0E6FF15C0E6FFB1EC39F0166E7A
:101A4000050EE15E1650BF0EE66E030EE66E97ECD5
:101A500022F0E552E552F3CF0CF8F4CF0DF808016F
:101A60000E5108010C1904E108010F5108010D196C
:101A70001DE0D60EE66EE66AE66ABF0EE66E030E5F
:101A8000E66EB1EC39F0146E050EE15E1450090EED
:101A9000E66EE66AE66AC30EE66E070EE66EB1EC27
:101AA00039F0146E050EE15E14500ED7050177353E
:101AB00004E276510008000E775508E30701010E95
:101AC000B41901E1B55102E0D2EF11F00701010EA6
:101AD000B61901E1B75101E0FED00501773504E206
:101AE00076510008000E775501E3F5D0D60EE66E6C
:101AF0000A0EE66EC30EE66E070EE66E6FEC3AF067
:101B0000E552E552E552E552F3CF06F1F4CF07F185
:101B100001010651071101E179D00C01010E3819BC
:101B200001E1395102E130EC31F0010EE66EE66A76
:101B3000E66AD20EE66E030EE66EB1EC39F0146E74
:101B4000050EE15E1450CA0EE66E030EE66E06EC5C
:101B500039F0E552E55206C01AF807C01BF808C074
:101B60001CF809C01DF81AC830F81BC831F81CC889
:101B700032F81DC833F81CEC29F030C80EF931C812
:101B80000FF932C810F933C811F9050E0901D890C0
:101B9000113310330F330E33E806F9E1D60EE66E3B
:101BA000E66AE66ABF0EE66E030EE66EB1EC39F049
:101BB000146E050EE15E145030C814F031C815F0F3
:101BC00032C816F033C817F0140E1426000E152272
:101BD000000E1622000E172214500701AE5D15509C
:101BE0000701AF5916500701B05917500701B159F5
:101BF0000CE2140E0701AE27000E0701AF23000E02
:101C00000701B023000E0701B1235ED6000EE66E79
:101C10000B0EE66EC30EE66E070EE66E6FEC3AF044
:101C2000E552E552E552E552F3CF06F1F4CF07F164
:101C30000101065107114FE0010EE66EE66AE66A01
:101C4000D10EE66E030EE66EB1EC39F0146E050EA1
:101C5000E15E1450CE0EE66E030EE66E91EC38F0A7
:101C6000E552E552F3CF26F8F4CF27F8010EE66EE1
:101C7000E66AE66ACE0EE66E030EE66EB1EC39F069
:101C8000146E050EE15E1450CB0EE66E030EE66E8A
:101C900091EC38F0E552E552F3CF24F8F4CF25F873
:101CA000010EE66EE66AE66ACB0EE66E030EE66E9F
:101CB000B1EC39F0146E050EE15E1450C80EE66EFC
:101CC000030EE66E91EC38F0E552E552F3CF22F8C0
:101CD000F4CF23F8F9D50501773504E276510008F1
:101CE000000E775501E359D10C011651171101E08F
:101CF00054D1EB0EE66E0A0EE66EC30EE66E070ECC
:101D0000E66E6FEC3AF0E552E552E552E552F3CF5C
:101D100006F1F4CF07F101010651071101E13DD1B0
:101D20000C01010E381901E1395102E130EC31F0BA
:101D3000130EE66EE66AE66A080EE66E010EE66EC1
:101D4000B1EC39F0146E050EE15E1450130EE66E20
:101D5000E66ABF0EE66E030EE66E080EE66E010E34
:101D6000E66E2CEC03F0146E060EE15E1450280EA5
:101D7000E66EE66AE66AA20EE66E050EE66EB1EC67
:101D800039F0146E050EE15E1450030EE66EE66A3D
:101D9000100EE66E010EE66EA20EE66E050EE66E03
:101DA000EEEC03F0146E060EE15E1450A20EE66E29
:101DB000050EE66E91EC38F0E552E552F3CFA7F749
:101DC000F4CFA8F70701B26BB36B010E05018C6F5E
:101DD0008D6B110E05018DAF02D0D89003D08C5DB4
:101DE000000E8D5937E28CC5E9FF8DC5EAFF140E50
:101DF000EA02F3CFEAFF140EE902F3CFE9FFF45051
:101E0000EA26290EE926010EEA22080EE926000E2E
:101E1000EA22E9CF16F0EACF17F016C0E6FF17C0A6
:101E2000E6FF91EC38F0E552E552F3CF14F0F4CF31
:101E300015F00701A751141802E1A851151805E182
:101E40008CC5B2F78DC5B3F705D005018C2B000EFC
:101E50008D23BFD70701B251B3110FE1D60EE66E45
:101E6000E66AE66ABF0EE66E030EE66EB1EC39F086
:101E7000146E050EE15E145027D5B2C7E9FFB3C753
:101E8000EAFF140EEA02F3CFEAFF140EE902F3CFE1
:101E9000E9FFF450EA26290EE926010EEA220C0E8B
:101EA000E926000EEA22E9CF14F0EACF15F014C0BB
:101EB000E6FF15C0E6FF91EC38F0E552E552F3CFAE
:101EC000A9F7F4CFAAF7B2C7E9FFB3C7EAFF140E28
:101ED000EA02F3CFEAFF140EE902F3CFE9FFF45070
:101EE000EA26290EE926010EEA22100EE926000E46
:101EF000EA22E9CF14F0EACF15F014C0E6FF15C0CE
:101F0000E6FF91EC38F0E552E552F3CFABF7F4CFB2
:101F1000ACF7B2C7E9FFB3C7EAFF140EEA02F3CF8A
:101F2000EAFF140EE902F3CFE9FFF450EA26290E86
:101F3000E926010EEA22EECFAEF7EECFAFF7EECFF5
:101F4000B0F7EFCFB1F7010E0B01866F876B1CEC7A
:101F500029F0010E0701B66FB76B0801306B316BCA
:101F6000326B336B010E0701B46FB56B410EE66E39
:101F700085EC30F0E552010EE66EE66A540EE66E30
:101F8000250EE66E010EE66EB1EC39F0146E050E0C
:101F9000E15E14500501766B776B0701010EB419F1
:101FA00001E1B55101E0FDD10701B33504E2B251C1
:101FB0000008000EB35501E3F4D1F1EC01F006C0C6
:101FC00030F807C031F808C032F809C033F8300ED5
:101FD000E96E080EEA6EEE500701AE5D0701556F1F
:101FE000EE500701AF590701566FEE500701B05987
:101FF0000701576FEE500701B1590701586FD8908C
:102000000701B151000A08E6140EAE5D000EAF598B
:10201000000EB059000EB1590AE20701556B566B1C
:10202000576B586B0801306B316B326B336B0701A8
:10203000800E581501E1AAD0300EE96E080EEA6E46
:10204000EE500701AE5D0701556FEE500701AF5925
:102050000701566FEE500701B0590701576FEE5058
:102060000701B1590701586F0701800E581501E1AA
:102070008CD0B2C7E9FFB3C7EAFF140EEA02F3CF70
:10208000EAFF140EE902F3CFE9FFF450EA26290E25
:10209000E926010EEA22100EE926000EEA22E9CF17
:1020A00016F0EACF17F016C0E6FF17C0E6FF91EC76
:1020B00038F0E552E552F3CF14F0F4CF15F01534B3
:1020C00004E214500008000E155441E2B2C7E9FFC3
:1020D000B3C7EAFF140EEA02F3CFEAFF140EE902D7
:1020E000F3CFE9FFF450EA26290EE926010EEA2291
:1020F000100EE926000EEA22E9CF14F0EACF15F01F
:1021000014C0E6FF15C0E6FF91EC38F0E552E55249
:10211000F3CFB2F7F4CFB3F7B2C7E9FFB3C7EAFF23
:10212000140EEA02F3CFEAFF140EE902F3CFE9FF3F
:10213000F450EA26290EE926010EEA22EECFAEF788
:10214000EECFAFF7EECFB0F7EFCFB1F71ED007016C
:10215000B46BB56B200EE66E85EC30F0E5520701EE
:10216000B26BB36B010E0701B96FBA6BD60EE66E98
:10217000E66AE66ABF0EE66E030EE66EB1EC39F073
:10218000146E050EE15E145052D751D7D890070156
:102190005851000A08E6320E555D000E5659000EE1
:1021A0005759000E585901E3FAD055C714F056C7D5
:1021B00015F0166A176A15AE02D01668176814C0B3
:1021C000E6FF15C0E6FF16C0E6FF17C0E6FFE0EC2D
:1021D00006F0E552E552E552E552B2C7E9FFB3C752
:1021E000EAFF140EEA02F3CFEAFF140EE902F3CF7E
:1021F000E9FFF450EA26290EE926010EEA22040E30
:10220000E926000EEA22E9CF14F0EACF15F014C057
:10221000E6FF15C0E6FF91EC38F0E552E552F3CF4A
:1022200092F5F4CF93F50C01010E381901E1395103
:1022300002E130EC31F092C5E6FF93C5E6FFA5EC74
:102240002CF0E552E552B2C7E9FFB3C7EAFF140E1E
:10225000EA02F3CFEAFF140EE902F3CFE9FFF450EC
:10226000EA26290EE926010EEA22100EE926000EC2
:10227000EA22E9CF16F0EACF17F016C0E6FF17C042
:10228000E6FF91EC38F0E552E552F3CF14F0F4CFCD
:1022900015F0153404E214500008000E155460E2E5
:1022A000B2C7E9FFB3C7EAFF140EEA02F3CFEAFFB1
:1022B000140EE902F3CFE9FFF450EA26290EE926CD
:1022C000010EEA22100EE926000EEA22E9CF14F0F0
:1022D000EACF15F014C0E6FF15C0E6FF91EC38F028
:1022E000E552E552F3CFB2F7F4CFB3F7B2C7E9FF47
:1022F000B3C7EAFF140EEA02F3CFEAFF140EE902B5
:10230000F3CFE9FFF450EA26290EE926010EEA226E
:10231000EECFAEF7EECFAFF7EECFB0F7EFCFB1F72E
:1023200030C814F031C815F032C816F033C817F0B1
:10233000640E1426000E1522000E1622000E17221F
:102340000701AE51145C0701AF5115580701B05198
:1023500016580701B151175802E269EC31F01ED04E
:102360000701B46BB56B200EE66E85EC30F0E552DC
:102370000701B26BB36B010E0701B96FBA6BD60ED2
:10238000E66EE66AE66ABF0EE66E030EE66EB1EC36
:1023900039F0146E050EE15E145006D601D001D05E
:1023A00003D600D00501773504E276510008000E0F
:1023B000775501E38AD0DC0EE66E0A0EE66EC30E98
:1023C000E66E070EE66E6FEC3AF0E552E552E55226
:1023D000E552F3CF06F1F4CF07F1010106510711E1
:1023E00002E0DCEC30F0E50EE66E0A0EE66EC30E9F
:1023F000E66E070EE66E6FEC3AF0E552E552E552F6
:10240000E552F3CF06F1F4CF07F1010106510711B0
:102410004DE0030EE66EE66AC70EE66E030EE66E4C
:10242000130EE66E0B0EE66E2CEC03F0146E060E29
:10243000E15E1450130EE66E0B0EE66E1B0EE66E9A
:102440000B0EE66EEFEC39F0E552E552E552E5523F
:1024500000091BE1130EE66E0B0EE66E8BEC2DF001
:10246000E552E55267EC2EF088EC26F0D60EE66ECB
:10247000E66AE66ABF0EE66E030EE66EB1EC39F070
:10248000146E050EE15E14500ED0130EE66E0B0EA8
:10249000E66E1B0EE66E0B0EE66E0FEC3AF0E552A2
:1024A000E552E552E55264EF0CF00ED0040EE66EF4
:1024B000E66AE66A1B0EE66E0B0EE66EB1EC39F0CC
:1024C000146E050EE15E145002D064EF0CF0F10EB4
:1024D000E66E0A0EE66EC30EE66E070EE66E6FEC53
:1024E0003AF0E552E552E552E552F3CF06F1F4CF6A
:1024F00007F101010651071150E0170EE66E0B0EB1
:10250000E66ED20EE66E070EE66EEFEC39F0E5529F
:10251000E552E552E55200093EE10C01010E381981
:1025200001E1395102E130EC31F00501970533E169
:10253000040EE66EE66AE66A270EE66E0C0EE66E9E
:10254000B1EC39F0146E050EE15E1450030EE66E28
:10255000E66AC70EE66E030EE66E270EE66E0C0EFA
:10256000E66EEEEC03F0146E060EE15E1450270EDC
:10257000E66E0C0EE66E91EC38F0E552E552F3CFC4
:1025800002F1F4CF03F102C1E6FF03C1E6FFA5ECBF
:102590002CF0E552E55264EF0CF0A60EE66E0A0E42
:1025A000E66EC30EE66E070EE66E6FEC3AF0E5528D
:1025B000E552E552E552F3CF06F1F4CF07F1010100
:1025C0000651071107E00A01500502E116EC31F04F
:1025D00064EF0CF0AF0EE66E0A0EE66EC30EE66E0A
:1025E000070EE66E6FEC3AF0E552E552E552E55221
:1025F000F3CF06F1F4CF07F101010651071104E012
:1026000041EC31F064EF0CF0CA0EE66E0A0EE66E95
:10261000C30EE66E070EE66E6FEC3AF0E552E55239
:10262000E552E552F3CF06F1F4CF07F1010106516F
:1026300007113DE0040EE66EE66AE66A270EE66ED6
:102640000C0EE66EB1EC39F0146E050EE15E14501E
:10265000030EE66EE66AC70EE66E030EE66E270E02
:10266000E66E0C0EE66EEEEC03F0146E060EE15E06
:102670001450270EE66E0C0EE66E91EC38F0E55223
:10268000E552F3CF02F1F4CF03F151EC29F0D60E6D
:10269000E66EE66AE66ABF0EE66E030EE66EB1EC23
:1026A00039F0146E050EE15E145064EF0CF0700EFC
:1026B000E66E0A0EE66EC30EE66E070EE66E6FEC71
:1026C0003AF0E552E552E552E552F3CF06F1F4CF88
:1026D00007F101010651071110E00A01506B200EAD
:1026E000E66E27EC2EF0E552200EE66E85EC30F01B
:1026F000E5529AEC24F064EF0CF0790EE66E0A0EC7
:10270000E66EC30EE66E070EE66E6FEC3AF0E5522B
:10271000E552E552E552F3CF06F1F4CF07F101019E
:102720000651071101E1D0D0300EE66EE66AE66A86
:10273000080EE66E030EE66EB1EC39F0146E050E6F
:10274000E15E1450090EE66EE66A9D0EE66E0A0E14
:10275000E66E080EE66E030EE66E2CEC03F0146EC9
:10276000060EE15E14503BEC21F0980EE66E030E6F
:10277000E66E080EE66E030EE66ECBEC39F0E5521F
:10278000E552E552E552030EE66EE66A130EE66E7A
:102790000B0EE66E080EE66E030EE66E3EEC3AF0A9
:1027A000146E060EE15E1450030EE66EE66A170E16
:1027B000E66E0B0EE66E080EE66E030EE66E3EEC5F
:1027C0003AF0146E060EE15E1450080EE66E030E2B
:1027D000E66E97EC22F0E552E552F3CF14F0F4CF19
:1027E00015F014C0E6FF15C0E6FF52EC24F0E552E8
:1027F000E5520C011D6F010EE66EE66A1D0EE66ED7
:102800000C0EE66E080EE66E030EE66E3EEC3AF037
:10281000146E060EE15E1450130EE66E0B0EE66E9D
:1028200091EC38F0E552E552F3CFCCF7F4CFCDF789
:1028300007010A0ECD03F3CFCDF70A0ECC03F3CF79
:10284000CCF7F450CD27CCC714F0CDC715F0166ADD
:10285000176A15AE02D01668176814C0E6FF15C0D7
:10286000E6FF16C0E6FF17C0E6FFE0EC06F0E55213
:10287000E552E552E5525DEC07F0080EE66E030EF8
:10288000E66E30EC3AF0E552E552F3CF4FF7F4CF75
:1028900050F74FC7E6FF50C7E6FF080EE66E030E7F
:1028A000E66E7DEC05F0E552E552E552E552010E8B
:1028B000E66EE66AE66AE66AE0EC06F0E552E552A4
:1028C000E552E55264EF0CF0820EE66E0A0EE66EFB
:1028D000C30EE66E070EE66E6FEC3AF0E552E55277
:1028E000E552E552F3CF06F1F4CF07F101010651AD
:1028F000071101E18CD1300EE66EE66AE66A080E39
:10290000E66E030EE66EB1EC39F0146E050EE15E74
:1029100014501C0EE66EE66AE66AD60EE66E070EE8
:10292000E66EB1EC39F0146E050EE15E14501C0E2B
:10293000E66EE66ACA0EE66E030EE66ED60EE66E2A
:10294000070EE66EEEEC03F0146E060EE15E145018
:10295000090EE66EE66A9D0EE66E0A0EE66E080E3B
:10296000E66E030EE66E2CEC03F0146E060EE15ECE
:10297000145010EC22F0980EE66E030EE66E080E70
:10298000E66E030EE66ECBEC39F0E552E552E55209
:10299000E552030EE66EE66A130EE66E0B0EE66E69
:1029A000080EE66E030EE66E3EEC3AF0146E060E6E
:1029B000E15E1450030EE66EE66A170EE66E0B0E2D
:1029C000E66E080EE66E030EE66E3EEC3AF0146E0E
:1029D000060EE15E1450080EE66E030EE66E97ECEE
:1029E00022F0E552E552F3CF14F0F4CF15F014C005
:1029F000E6FF15C0E6FF52EC24F0E552E5520C016B
:102A00001D6F010EE66EE66A1D0EE66E0C0EE66E9A
:102A1000080EE66E030EE66E3EEC3AF0146E060EFD
:102A2000E15E1450130EE66E0B0EE66E91EC38F07C
:102A3000E552E552F3CFF4F7F4CFF5F7130EE66E57
:102A40000B0EE66E91EC38F0E552E552F3CFF6F757
:102A5000F4CFF7F7640E0D6E0E6AF6C708F0F7C7ED
:102A600009F0C1EC3AF008C0F6F709C0F7F7640EB8
:102A7000086E096AF6C70DF0F7C70EF0E7EC3AF0FA
:102A800006500701F45D0701F26F07500701F55981
:102A90000701F36F05018C6B8D6B05018D510701EB
:102AA000F719E8AE02D0F73507D0F65105018C5D75
:102AB0000701F75105018D5948E27A0EE66EE66A84
:102AC000E66ACA0EE66E050EE66EB1EC39F0146EDB
:102AD000050EE15E1450020EE66EE66A8CC514F037
:102AE0008DC515F0030E1502F3CF15F0030E140279
:102AF000F3CF14F0F4501526D60E1426070E152227
:102B0000010E1426000E152214C0E6FF15C0E6FFC4
:102B1000CA0EE66E050EE66EEEEC03F0166E060EBD
:102B2000E15E1650CA0EE66E050EE66E91EC38F0C8
:102B3000E552E552F3500701F227F4500701F32361
:102B400005018C2B000E8D23A8D7F2C714F0F3C714
:102B500015F00A0E1502F3CF15F00A0E1402F3CF8A
:102B600014F0F4501526140E086E096AF6C70DF01D
:102B7000F7C70EF0E7EC3AF0145006240701CC6FCB
:102B8000155007200701CD6FCCC714F0CDC715F045
:102B9000166A176A15AE02D01668176814C0E6FFE9
:102BA00015C0E6FF16C0E6FF17C0E6FFE0EC06F032
:102BB000E552E552E552E5525DEC07F0080EE66E8F
:102BC000030EE66E30EC3AF0E552E552F3CF4FF7E4
:102BD000F4CF50F74FC7E6FF50C7E6FF080EE66E8A
:102BE000030EE66E7DEC05F0E552E552E552E55246
:102BF000010EE66EE66AE66AE66AE0EC06F0E55289
:102C0000E552E552E55267EC07F064EF0CF08B0EED
:102C1000E66E0A0EE66EC30EE66E070EE66E6FEC0B
:102C20003AF0E552E552E552E552F3CF06F1F4CF22
:102C300007F101010651071101E17CD1300EE66E6A
:102C4000E66AE66A080EE66E030EE66EB1EC39F04F
:102C5000146E050EE15E14501C0EE66EE66AE66A1E
:102C6000D60EE66E070EE66EB1EC39F0146E050E68
:102C7000E15E14501C0EE66EE66ACA0EE66E030EA6
:102C8000E66ED60EE66E070EE66EEEEC03F0146E00
:102C9000060EE15E1450090EE66EE66A9D0EE66EC3
:102CA0000A0EE66E080EE66E030EE66E2CEC03F0DE
:102CB000146E060EE15E14503BEC21F0980EE66EA9
:102CC000030EE66E080EE66E030EE66ECBEC39F0F0
:102CD000E552E552E552E552030EE66EE66A130E42
:102CE000E66E0B0EE66E080EE66E030EE66E3EEC2A
:102CF0003AF0146E060EE15E1450030EE66EE66ABC
:102D0000170EE66E0B0EE66E080EE66E030EE66E0E
:102D10003EEC3AF0146E060EE15E1450080EE66EBC
:102D2000030EE66E97EC22F0E552E552F3CF14F075
:102D3000F4CF15F014C0E6FF15C0E6FF52EC24F006
:102D4000E552E5520C011D6F010EE66EE66A1D0E9E
:102D5000E66E0C0EE66E080EE66E030EE66E3EECB8
:102D60003AF0146E060EE15E14500701CE51CF11F9
:102D7000D011D11101E0A7D0130EE66E0B0EE66E56
:102D800091EC38F0E552E552F3CFF4F7F4CFF5F7D4
:102D9000130EE66E0B0EE66E91EC38F0E552E5523E
:102DA000F3CFF6F7F4CFF7F7640E0D6E0E6AF6C7A1
:102DB00008F0F7C709F0C1EC3AF008C0F6F709C00F
:102DC000F7F7640E086E096AF6C70DF0F7C70EF044
:102DD000E7EC3AF006500701F45D0701F26F075087
:102DE0000701F5590701F36F05018C6B8D6B050128
:102DF0008D510701F719E8AE02D0F73507D0F6512B
:102E000005018C5D0701F75105018D5948E27A0EE5
:102E1000E66EE66AE66ACA0EE66E050EE66EB1EC8E
:102E200039F0146E050EE15E1450020EE66EE66A8D
:102E30008CC514F08DC515F0030E1502F3CF15F0F7
:102E4000030E1402F3CF14F0F4501526D60E1426F8
:102E5000070E1522010E1426000E152214C0E6FFDF
:102E600015C0E6FFCA0EE66E050EE66EEEEC03F048
:102E7000166E060EE15E1650CA0EE66E050EE66E82
:102E800091EC38F0E552E552F3500701F227F45087
:102E90000701F32305018C2B000E8D23A8D7780E94
:102EA000086E096AF2C70DF0F3C70EF0E7EC3AF0CE
:102EB00006C0CEF707C0CFF70701D06BD16BCFAFFD
:102EC00002D0D069D169CEC7E6FFCFC7E6FFD0C731
:102ED000E6FFD1C7E6FFE0EC06F0E552E552E55229
:102EE000E5525DEC07F0080EE66E030EE66E30EC80
:102EF0003AF0E552E552F3CF4FF7F4CF50F74FC712
:102F0000E6FF50C7E6FF080EE66E030EE66E7DECA8
:102F100005F0E552E552E552E552010EE66EE66A2D
:102F2000E66AE66AE0EC06F0E552E552E552E55263
:102F300064EF0CF0940EE66E0A0EE66EC30EE66EBB
:102F4000070EE66E6FEC3AF0E552E552E552E552B7
:102F5000F3CF06F1F4CF07F101010651071101E1AA
:102F6000C0D0280EE66EE66AE66A440EE66E060EED
:102F7000E66EB1EC39F0146E050EE15E1450020EEF
:102F8000E66EE66ACA0EE66E030EE66E440EE66E66
:102F9000060EE66EEEEC03F0146E060EE15E1450C3
:102FA000440EE66E060EE66E91EC38F0E552E55200
:102FB000F3CF8CF5F4CF8DF5280EE66EE66AE66A5F
:102FC000440EE66E060EE66EB1EC39F0146E050E98
:102FD000E15E145005018E6B8F6B05018F51050169
:102FE0008D19E8AE02D08D3507D08C5105018E5D6C
:102FF00005018D5105018F5972E2080E086E096AAC
:103000008EC50DF08FC50EF0E7EC3AF006C090F5D6
:1030100007C091F5030EE66EE66ACC0E0501902519
:10302000146E030E05019121156E14C0E6FF15C044
:10303000E6FF440EE66E060EE66EEEEC03F0166E4C
:10304000060EE15E1650130EE66E0B0EE66E440E93
:10305000E66E060EE66EEFEC39F0E552E552E5520B
:10306000E552000937E1280EE66EE66AE66A440E8C
:10307000E66E060EE66EB1EC39F0146E050EE15EFA
:103080001450050EE66EE66ACF0E05019025146E0B
:10309000030E05019121156E14C0E6FF15C0E6FF71
:1030A000440EE66E060EE66EEEEC03F0166E060EAD
:1030B000E15E1650440EE66E060EE66E06EC39F042
:1030C000E552E55206C0CEF707C0CFF708C0D0F7EB
:1030D00009C0D1F705018E2B000E8F237ED764EF38
:1030E0000CF0130EE66EE66ABF0EE66E030EE66E99
:1030F000080EE66E010EE66E2CEC03F0146E060E62
:10310000E15E1450030EE66EE66A130EE66E0B0ED9
:10311000E66E0B0EE66E010EE66E97EC03F0146E93
:10312000060EE15E1450000901E073D3D00EE66E86
:103130000A0EE66EC30EE66E070EE66E6FEC3AF010
:10314000E552E552E552E552F3CF06F1F4CF07F12F
:1031500001010651071110E00A01506B200EE66EC6
:1031600027EC2EF0E552200EE66E85EC30F0E552AD
:103170009AEC24F064EF0CF0020EE66EE66AE66A62
:103180008A0EE66E050EE66EB1EC39F0146E050E91
:10319000E15E1450010EE66EE66A080EE66E010E60
:1031A000E66E8A0EE66E050EE66EEEEC03F0146E29
:1031B000060EE15E14508A0EE66E050EE66E91EC88
:1031C00038F0E552E552F3CF14F0F4CF15F00501D5
:1031D0008851141802E18951151801E0E4D2030E58
:1031E000E66EE66AE66A200EE66E0C0EE66EB1EC5E
:1031F00039F0146E050EE15E1450020EE66EE66ABA
:103200000E0EE66E010EE66E200EE66E0C0EE66EFB
:103210002CEC03F0146E060EE15E1450200EE66EE8
:103220000C0EE66E91EC38F0E552E552F3CF00F16A
:10323000F4CF01F1020EE66EE66A090EE66E010EAB
:10324000E66E1A0EE66E0C0EE66E2CEC03F0146EB3
:10325000060EE15E14500501986B996B1A0EE66E2E
:103260000C0EE66E91EC38F0E552E552F3CF14F017
:10327000F4CF15F0050199511518E8AE02D01534B8
:1032800004D01450985D1550995901E37BD2130E68
:10329000E66EE66AE66A080EE66E010EE66EB1ECD0
:1032A00039F0146E050EE15E14500201C70EEA6F8C
:1032B000030EEB6FA5C708F0A6C709F098C50DF07F
:1032C00099C50EF0E7EC3AF006500201EA270750E4
:1032D0000201EB23120EE66EE66AEAC2E6FFEBC2DB
:1032E000E6FF080EE66E010EE66E2CEC03F0146E9F
:1032F000060EE15E14502EEC1EF00C011651171153
:1033000003E1E9EC1EF039D2110E0201E6AF02D062
:10331000D89003D0E55D000EE65901E31ED2010E00
:103320000501156A9825146E99511522145007014C
:10333000512505018C6F15500701522105018D6F34
:10334000030EE66EE66A8CC514F08DC515F0D890B4
:1033500014361536D89014361536AF0E14260B0ECB
:10336000152214C0E6FF15C0E6FF8CC5E9FF8DC528
:10337000EAFF140EEA02F3CFEAFF140EE902F3CFDC
:10338000E9FFF450EA26290EE926010EEA220C0E86
:10339000E926000EEA22E9CF16F0EACF17F016C0B0
:1033A000E6FF17C0E6FFEEEC03F0186E060EE15ED6
:1033B0001850030EE66EE66A8CC5E9FF8DC5EAFF7C
:1033C000140EEA02F3CFEAFF140EE902F3CFE9FF8D
:1033D000F450EA26290EE926010EEA220C0EE9260F
:1033E000000EEA22E9CF14F0EACF15F014C0E6FF90
:1033F00015C0E6FF9D0EE66E070EE66EEEEC03F0DE
:10340000166E060EE15E1650030EE66EE66AA10E1B
:10341000E66E070EE66E8CC5E9FF8DC5EAFF140E59
:10342000EA02F3CFEAFF140EE902F3CFE9FFF4500A
:10343000EA26290EE926010EEA22100EE926000EE0
:10344000EA22E9CF14F0EACF15F014C0E6FF15C068
:10345000E6FFEEEC03F0166E060EE15E1650140E5B
:10346000E66EE66AE66AF40EE66E020EE66EB1EC11
:1034700039F0146E050EE15E1450080EE66EE66A31
:103480001B0EE66E010EE66EF40EE66E020EE66EA2
:103490002CEC03F0146E060EE15E1450F40EE66E92
:1034A000020EE66E06EC39F0E552E55206C0F0F287
:1034B00007C0F1F208C0F2F209C0F3F28CC5E9FFCF
:1034C0008DC5EAFF140EEA02F3CFEAFF140EE902FB
:1034D000F3CFE9FFF450EA26290EE926010EEA228D
:1034E000F0C2EEFFF1C2EEFFF2C2EEFFF3C2EEFF5A
:1034F000040EE66EE66AE66A8CC5E9FF8DC5EAFF52
:10350000140EEA02F3CFEAFF140EE902F3CFE9FF4B
:10351000F450EA26290EE926010EEA22040EE926D5
:10352000000EEA22E9CF14F0EACF15F014C0E6FF4E
:1035300015C0E6FFB1EC39F0166E050EE15E1650CF
:10354000030EE66EE66A270EE66E0C0EE66E8CC57E
:10355000E9FF8DC5EAFF140EEA02F3CFEAFF140E6D
:10356000E902F3CFE9FFF450EA26290EE926010E1D
:10357000EA22040EE926000EEA22E9CF14F0EACF8F
:1035800015F014C0E6FF15C0E6FF2CEC03F0166E34
:10359000060EE15E1650040EE66EE66AE66A8CC51B
:1035A000E9FF8DC5EAFF140EEA02F3CFEAFF140E1D
:1035B000E902F3CFE9FFF450EA26290EE926010ECD
:1035C000EA22080EE926000EEA22E9CF14F0EACF3B
:1035D00015F014C0E6FF15C0E6FFB1EC39F0166E29
:1035E000050EE15E1650030EE66EE66A940EE66E78
:1035F000050EE66E8CC5E9FF8DC5EAFF140EEA02E2
:10360000F3CFEAFF140EE902F3CFE9FFF450EA2604
:10361000290EE926010EEA22080EE926000EEA220A
:10362000E9CF14F0EACF15F014C0E6FF15C0E6FFAD
:103630002CEC03F0166E060EE15E16507A0EE66E66
:10364000E66AE66ACA0EE66E050EE66EB1EC39F081
:10365000146E050EE15E14500B01440536E1A10E17
:10366000E66E070EE66E9D0EE66E070EE66E270E00
:10367000E66E0C0EE66E940EE66E050EE66E1B0E02
:10368000E66E010EE66E240E146E780E156E166A46
:1036900014C0E6FF15C0E6FF16C0E6FFCA0EE66ED0
:1036A000050EE66E32EC3BF0176E0F0EE15E175022
:1036B000000EE66EE66ACA0EE66E050EE66E45EC94
:1036C00028F0E552E552E552E5520201E52B000EE5
:1036D000E6230201E7510201E55D0201E36F020109
:1036E000E8510201E6590201E46F1A0EE66E0C0E73
:1036F000E66E91EC38F0E552E552F3CF14F0F4CFDA
:1037000015F01406000E155A14500501981902E11F
:103710001550991920E10C01166B176B010E05016C
:1037200098250701516F000E050199210701526F7D
:103730000B0E0701A56FA66B010EE66EE66A410E41
:10374000E66E250EE66E010EE66EB1EC39F0146EF3
:10375000050EE15E145011D010D088D9D60EE66E59
:10376000E66AE66ABF0EE66E030EE66EB1EC39F06D
:10377000146E050EE15E145000D00501982B000E6A
:1037800099236CD557D8D60EE66EE66AE66ABF0E68
:10379000E66E030EE66EB1EC39F0146E050EE15ED6
:1037A000145064EF0CF08A0EE66E050EE66E91EC96
:1037B00038F0E552E552F3CF14F0F4CF15F00501DF
:1037C00015508919E8AE02D0893504D08851145CAF
:1037D0008951155804E28BEC22F00B01486B8A0EDC
:1037E000E66E050EE66E91EC38F0E552E552F3CF49
:1037F00014F0F4CF15F0050189511518E8AE02D088
:10380000153404D01450885D1550895901E22ED921
:1038100000D0D60EE66EE66AE66ABF0EE66E030ECE
:10382000E66EB1EC39F0146E050EE15E145064EFF3
:103830000CF01200D9CFE6FFE1CFD9FF020EE1264E
:10384000300EE66EE66AE66A080EE66E030EE66E77
:10385000B1EC39F0146E050EE15E1450010EE66E07
:10386000E66ABF0EE66E030EE66E080EE66E030E07
:10387000E66E2CEC03F0146E060EE15E1450020EA0
:10388000E66EE66A450EE66E0B0EE66E080EE66E16
:10389000030EE66E3EEC3AF0146E060EE15E145036
:1038A000030EE66EE66A0F0EE66E0B0EE66E080E6F
:1038B000E66E030EE66E3EEC3AF0146E060EE15E26
:1038C0001450020EE66EE66A090EE66E0B0EE66E08
:1038D000080EE66E030EE66E3EEC3AF0146E060E2F
:1038E000E15E14500C01010E341901E1355116E16D
:1038F0003BEC21F0160EE66EE66A980EE66E030EBD
:10390000E66E080EE66E030EE66E3EEC3AF0146EBE
:10391000060EE15E14500C01346B356B020E341947
:1039200001E1355113E13BEC21F0000EE66E0A0E89
:10393000E66E080EE66E030EE66ECBEC39F0E5524D
:10394000E552E552E5520C01346B356B080EE66E1C
:10395000030EE66E97EC22F0E552E552F3CF14F039
:10396000F4CF15F014C0E6FF15C0E6FF52EC24F0CA
:10397000E552E5520C011D6F010EE66EE66A1D0E62
:10398000E66E0C0EE66E080EE66E030EE66E3EEC7C
:103990003AF0146E060EE15E14500A0EE66EE66A08
:1039A000E66AE66AE0EC06F0E552E552E552E552D9
:1039B0005DEC07F01FEC07F00A0EE66EE66AE66AB9
:1039C000E66AE0EC06F0E552E552E552E552080EF3
:1039D000E66E030EE66E30EC3AF0E552E552F3CFB8
:1039E000DEFFF4CFDDFFDECFE6FFDDCFE6FF080E22
:1039F000E66E030EE66E7DEC05F0E552E552E5520B
:103A0000E552010EE66EE66AE66AE66AE0EC06F06A
:103A1000E552E552E552E55267EC07F029EC07F074
:103A20000B01485105E1F751F81102E18BEC24F04C
:103A3000010EE66EE66A080EE66E030EE66E45ECD3
:103A400028F0E552E552E552E5520501010E7E6F80
:103A50007F6B0B01F76BF86B020EE15C02E2E16A2F
:103A6000E552E16EE552E7CFD9FF1200D9CFE6FF6C
:103A7000E1CFD9FF020EE126300EE66EE66AE66A75
:103A8000380EE66E030EE66EB1EC39F0146E050EDC
:103A9000E15E1450010EE66EE66ABF0EE66E030E9E
:103AA000E66E380EE66E030EE66E2CEC03F0146E36
:103AB000060EE15E1450020EE66EE66A450EE66EF4
:103AC0000B0EE66E380EE66E030EE66E3EEC3AF036
:103AD000146E060EE15E1450030EE66EE66A0F0EDB
:103AE000E66E0B0EE66E380EE66E030EE66E3EECEC
:103AF0003AF0146E060EE15E1450020EE66EE66AAF
:103B00000C0EE66E0B0EE66E380EE66E030EE66EDB
:103B10003EEC3AF0146E060EE15E14500C01010EFC
:103B2000341901E1355115E1A6DB150EE66EE66AA2
:103B3000980EE66E030EE66E380EE66E030EE66E27
:103B40003EEC3AF0146E060EE15E14500C01346B3C
:103B5000356B380EE66E030EE66E97EC22F0E552FA
:103B6000E552F3CF14F0F4CF15F014C0E6FF15C002
:103B7000E6FF52EC24F0E552E5520C011D6F010EF8
:103B8000E66EE66A1D0EE66E0C0EE66E380EE66E0A
:103B9000030EE66E3EEC3AF0146E060EE15E145033
:103BA000380EE66E030EE66E30EC3AF0E552E55262
:103BB000F3CFDEFFF4CFDDFF0A0EE66EE66AE66ABB
:103BC000E66AE0EC06F0E552E552E552E5525DECBE
:103BD00007F01FEC07F00A0EE66EE66AE66AE66A90
:103BE000E0EC06F0E552E552E552E552DECFE6FFA5
:103BF000DDCFE6FF380EE66E030EE66E7DEC05F0D7
:103C0000E552E552E552E552010EE66EE66AE66AD5
:103C1000E66AE0EC06F0E552E552E552E55267EC63
:103C200007F029EC07F0010EE66EE66A380EE66E44
:103C3000030EE66E45EC28F0E552E552E552E552FA
:103C40000501010E7F6F7E6B020EE15C02E2E16A0C
:103C5000E552E16EE552E7CFD9FF1200090EE66E9C
:103C6000E66AE66A1B0EE66E010EE66EB1EC39F00E
:103C7000146E050EE15E1450080EE66EE66A0B0E39
:103C8000E66E010EE66E1B0EE66E010EE66E2CEC85
:103C900003F0146E060EE15E14500C01010E1619AD
:103CA00001E117516AE1040EE66EE66AE66AA10ECA
:103CB000E66E070EE66EB1EC39F0146E050EE15EAD
:103CC0001450030EE66EE66A160EE66E010EE66E00
:103CD000A10EE66E070EE66EEEEC03F0146E060E15
:103CE000E15E1450040EE66EE66AE66A270EE66EA2
:103CF0000C0EE66EB1EC39F0146E050EE15E145058
:103D0000030EE66EE66A130EE66E010EE66E270EF1
:103D1000E66E0C0EE66EEEEC03F0146E060EE15E3F
:103D20001450030EE66EE66AE66A940EE66E050E21
:103D3000E66EB1EC39F0146E050EE15E1450030E20
:103D4000E66EE66A080EE66E010EE66E940EE66E0C
:103D5000050EE66EEEEC03F0146E060EE15E1450F6
:103D6000270EE66E0C0EE66E91EC38F0E552E55249
:103D7000F3CF02F1F4CF03F12BD0040EE66EE66A26
:103D8000E66A270EE66E0C0EE66EB1EC39F0146EA4
:103D9000050EE15E1450030EE66EE66A080EE66E4E
:103DA000010EE66E270EE66E0C0EE66EEEEC03F0EC
:103DB000146E060EE15E1450270EE66E0C0EE66ED3
:103DC00091EC38F0E552E552F3CF02F1F4CF03F174
:103DD0001200190E0101001901E1015101E137D270
:103DE000150E0101001901E1015101E12CD2140E5F
:103DF0000101001901E1015101E120D2100E010180
:103E0000001901E1015101E1B1D10D0E01010019CB
:103E100001E1015101E154D1080E0101001901E154
:103E2000015101E14AD1070E0101001901E10151DF
:103E300001E1D4D00B0E0101001901E1015101E1B2
:103E4000CAD00A0E0101001901E1015101E1C0D0FF
:103E5000130E0101001901E1015101E1B6D0060E76
:103E60000101001901E1015101E1ABD0180E01017E
:103E7000001901E1015101E18DD0050E0101001988
:103E800001E1015101E181D0040E0101001901E1BC
:103E9000015167E0110E0101001901E101514CE0EF
:103EA000630E0101001901E1015135E0020E01012B
:103EB000001901E1015115E0010E0101001901E1B4
:103EC000015101E0C9D10A01010E506F08011E6BBA
:103ED0001F6B2BEC09F0530EE66E27EC2EF0E5522B
:103EE000C9D10A01506B32EC09F00501976B440E01
:103EF000E66E47EC2EF0E55286EC07F067EC07F033
:103F0000200EE66E27EC2EF0E552200EE66E85ECD4
:103F100030F0E552AFD1010E0B01F76FF86B200EB8
:103F2000E66E27EC2EF0E552200EE66E85EC30F0C2
:103F3000E5529AEC24F09ED1000EE66EE66A9A0EE7
:103F4000E66E0B0EE66E45EC28F0E552E552E552C2
:103F5000E5520B0E0701A56FA66B0C01166B176BD4
:103F600089D10C01010E381901E1395102E130EC1F
:103F700031F00501970508E102C1E6FF03C1E6FF44
:103F8000A5EC2CF0E552E55275D1010E0C01346F11
:103F9000356B70D1270EE66E0C0EE66E170EE66ED0
:103FA0000B0EE66E0FEC3AF0E552E552E552E552A3
:103FB000170EE66E0B0EE66ED5EC2DF0E552E552CF
:103FC00059D10B01010E446F55D10B01446B52D1F5
:103FD00016EC31F04FD141EC31F04CD10601E90E35
:103FE0006E6F020E6F6F0601240E6E5F010E6F5B27
:103FF00002C114F003C115F01406000E155A000199
:104000006EC6E8FF1402F3CF70F6F4CF71F6150216
:10401000F350060171276FC6E8FF00011402F35048
:1040200006017127000E06017027010E060171239B
:1040300005018C6B8D6B05018D5106016F19E8AE82
:1040400002D06F3507D06E5105018C5D06016F51AE
:1040500005018D5931E206010601705105018C25DB
:104060000601726F06010601715105018D210601DD
:10407000736F61EC3EF0250E05018C250601746F0F
:10408000010E05018D210601756F74C6E9FF75C625
:10409000EAFFEFCF76F676C6E6FF72C6E6FF73C696
:1040A000E6FFD0EC3CF0E552E552E5520400050194
:1040B0008C2B000E8D23BFD7DDD051EC29F0DAD048
:1040C00061EC3EF0300E010102250601766F76C6E6
:1040D000E6FF060EE66EE66AD0EC3CF0E552E552ED
:1040E000E5520A0EE66EE66AE66AE66AE0EC06F07B
:1040F000E552E552E552E552280EE66EE66AE66ABA
:10410000440EE66E060EE66EB1EC39F0146E050E46
:10411000E15E145076C614F0156A14BE156814C01A
:10412000E6FF15C0E6FF0A0E166E780E176E186AC7
:1041300016C0E6FF17C0E6FF18C0E6FF440EE66EA5
:10414000060EE66E32EC3BF0196E070EE15E19507A
:10415000000EE66EE66A440EE66E060EE66E45EC6E
:1041600028F0E552E552E552E55284D0000EE66EA5
:10417000E66A880EE66E0B0EE66E45EC28F0E55218
:10418000E552E552E552010E0C01166F176B020E57
:10419000E66EE66AE66A250EE66E010EE66EB1ECA4
:1041A00039F0146E050EE15E1450030EE66EE66AF9
:1041B000E66A940EE66E050EE66EB1EC39F0146E0A
:1041C000050EE15E1450030EE66EE66A080EE66E1A
:1041D000010EE66E940EE66E050EE66E2CEC03F014
:1041E000146E060EE15E1450940EE66E050EE66E39
:1041F00091EC38F0E552E552F3CF92F5F4CF93F518
:104200000501020E921901E1935117E1010EE66ECC
:10421000E66A540EE66E250EE66E010EE66EB1EC11
:1042200039F0146E050EE15E1450110E0701A56FF2
:10423000A66B020E0101276F286B1CD0010E08012E
:104240001E6F1F6B17D008011E6B1F6B13D0020E61
:104250000C01346F356B0ED0000EE66EE66A750EFB
:10426000E66E0C0EE66E45EC28F0E552E552E5529E
:10427000E55200D01200D9CFE6FFE1CFD9FF080EFA
:10428000E126270EE66EE66AE66A980EE66E030EF3
:10429000E66EB1EC39F0146E050EE15E1450030EBB
:1042A000E66EE66AC30EE66E0E0EE66E980EE66EDB
:1042B000030EE66EEEEC03F0146E060EE15E145093
:1042C000010E0101026F036B110E03AF02D0D890F3
:1042D00003D0025D000E03594EE202C1E6FF03C1A6
:1042E000E6FF00EC29F0E552E552F3CF14F0F4CFED
:1042F00015F014C0E6FF15C0E6FF90EC0AF0E55299
:10430000E552F3CF1FFC02C1E6FF03C1E6FF00EC5C
:1043100029F0E552E552F3CF14F0F4CF15F014C0B4
:10432000E6FF15C0E6FF90EC0AF0E552E552F3CF48
:104330001FFC0C011F510EE1020E0101EA6A022569
:10434000E96E0351EA22980EE926030EEA22300EA6
:10435000EF6E0DD0020E0101EA6A0225E96E0351EB
:10436000EA22980EE926030EEA22310EEF6E022BA6
:10437000000E0323A9D7970503E1310EAB6F02D0DE
:10438000300EAB6F15CCACF335EC2DF0F3CFDEFF78
:10439000F4CFDDFF060EE66EE66A300EE66ED9500B
:1043A000020FE66E000EDA20E66EB1EC39F0146E04
:1043B000050EE15E1450DECFE6FFDDCFE6FF050E11
:1043C000146E780E156E166A14C0E6FF15C0E6FF6F
:1043D00016C0E6FFD950020FE66E000EDA20E66E38
:1043E00032EC3BF0176E070EE15E1750D950020F0A
:1043F000E66E000EDA20E66E980EE66E030EE66EAE
:10440000CBEC39F0E552E552E552E552080EE15C9D
:1044100002E2E16AE552E16EE552E7CFD9FF120010
:10442000D9CFE6FFE1CFD9FF080EE126270EE66ED1
:10443000E66AE66A980EE66E030EE66EB1EC39F0B7
:10444000146E050EE15E1450030EE66EE66AC30EAE
:10445000E66E0E0EE66E980EE66E030EE66EEEEC5F
:1044600003F0146E060EE15E14500501970503E19A
:10447000310E9B6F02D0300E9B6F15CC9CF335EC48
:104480002DF0F3CFDEFFF4CFDDFF060EE66EE66A19
:10449000300EE66ED950020FE66E000EDA20E66EA0
:1044A000B1EC39F0146E050EE15E1450DECFE6FF7C
:1044B000DDCFE6FF050E146E780E156E166A14C079
:1044C000E6FF15C0E6FF16C0E6FFD950020FE66E04
:1044D000000EDA20E66E32EC3BF0176E070EE15E5E
:1044E0001750D950020FE66E000EDA20E66E980ED5
:1044F000E66E030EE66ECBEC39F0E552E552E5527E
:10450000E552080EE15C02E2E16AE552E16EE55235
:10451000E7CFD9FF12000B01010E486F05017E05A0
:1045200003E11AEC1CF002D036EC1DF01200D9CFDA
:10453000E6FFE1CFD9FF140EE126030EF36E0E0E57
:10454000F3CFDBFF0F0EDB6A070EF36E100EF3CF17
:10455000DBFF110EDB6A010EF36E120EF3CFDBFFF1
:10456000130EDB6A080EDB6A090EDB6A020EE66ECA
:10457000E66AE66AD9500C0FE66E000EDA20E66EA7
:10458000B1EC39F0146E050EE15E1450020EDB6AD8
:10459000030EDB6A060EDB6A070EDB6A060EDBCF54
:1045A00014F0070EDBCF15F014C0E6FF15C0E6FFD0
:1045B000FD0EDBCFE6FFFE0EDBCFE6FF30EC3AF080
:1045C000E552E552E552E7CF15F0E552E7CF14F09A
:1045D000F3CF16F0F4CF17F01650145C175015589F
:1045E00001E38ED0020EDBCF14F0030EDBCF15F00B
:1045F000153404E214500208000E155404E2020EB1
:10460000DB6A030EDB6AD9500E0F146EDACF15F099
:10461000020E086E096ADBCF0DF0030EDBCF0EF041
:10462000E7EC3AF014500624E96E15500720EA6EC4
:10463000040EEECFDBFF050EEDCFDBFF010EE66EC5
:10464000E66A060EDBCF16F0070EDBCF17F0FD0E85
:10465000DB501624146EFE0EDB501720156E14C0AE
:10466000E6FF15C0E6FFD9500C0FE66E000EDA200B
:10467000E66E2CEC03F0186E060EE15E1850080E84
:10468000DBCF16F0090EDBCF17F016C0E6FF17C020
:10469000E6FFD9500C0FE66E000EDA20E66E91ECC4
:1046A00038F0E552E552E552E7CF17F0E552E7CF93
:1046B00016F0F3CF18F0F4CF19F0040EDBCF08F0AA
:1046C000050EDBCF09F018C00DF019C00EF0E7ECB5
:1046D0003AF016500624146E17500720156E080E77
:1046E00014C0DBFF090E15C0DBFF020EDB2A030E30
:1046F00001E3DB2A060EDB2A070E01E3DB2A4ED795
:104700000A0E146E156A080EDBCF08F0090EDBCF17
:1047100009F014C00DF015C00EF0C1EC3AF00A0E0D
:1047200008C0DBFF0B0E09C0DBFF080EDBCF16F065
:10473000090EDBCF17F00A0E086E096ADBCF0DF009
:104740000B0EDBCF0EF0E7EC3AF00650165C146E61
:1047500007501758156E0A0E14C0DBFF0B0E15C05C
:10476000DBFF0A0EDBCFE6FF0B0EDBCFE6FFDFEC55
:104770000BF0E552E552140EE15C03E200D0E16A71
:10478000E552E16EE552E7CFD9FF1200D9CFE6FF3F
:10479000E1CFD9FF67EC07F0010EE66EE66AD50EB1
:1047A000E66EE66AFD0EDBCFE6FFFE0EDBCFE6FF30
:1047B0001DEC01F0146E060EE15E1450F3CF76F599
:1047C000F4CF77F50501773504E276510008000E45
:1047D000775541E20B0144053BE1020EE66EE66AC5
:1047E000BF0EE66E030EE66E45EC28F0E552E5528C
:1047F000E552E5520E01B63504E2B5510008000E4F
:10480000B6550FE2B56BB66B000EE66EE66AF90EB2
:10481000E66E0B0EE66E45EC28F0E552E552E552E9
:10482000E5520E01B83504E2B7510008000EB85544
:104830000FE2B76BB86B000EE66EE66A070EE66E27
:104840000C0EE66E45EC28F0E552E552E552E552D5
:104850000C01186B196BD7EC2BF069EC02F00650C9
:1048600008013427075035230850362309503723D1
:10487000D880220E3455010E3555000E3655000EE7
:1048800037550BE2346B356B366B376B050197058B
:1048900004E10C01182B000E192300D0E552E7CFDC
:1048A000D9FF1200D9CFE6FFE1CFD9FF0B0EE126E9
:1048B000D9CFE9FFDACFEAFF300EEE6E310EEE6EA1
:1048C000320EEE6E330EEE6E340EEE6E350EEE6E72
:1048D000360EEE6E370EEE6E380EEE6E390EEE6E52
:1048E000EE6AD9CF14F0DACF15F0FD0EDB501424A8
:1048F000E96EFE0EDB501520EA6EEF50146E0B0EC3
:10490000E15C03E200D0E16AE552E16E1450E55249
:10491000E7CFD9FF12000501882B000E89238935C6
:1049200004E288510908000E895503E2010E886FE0
:10493000896B1200D9CFE6FFE1CFD9FF120EE12635
:10494000D950010FE96EDACFEAFF520EEE6E650E16
:10495000EE6E730EEE6E650EEE6E740EEE6E200E43
:10496000EE6E430EEE6E6F0EEE6E6D0EEE6E700E10
:10497000EE6E6C0EEE6E650EEE6E740EEE6E650EE5
:10498000EE6EEE6AEE6AEE6A000EE66EE66A580EAB
:10499000E66E0B0EE66E79DBE552E552E552E55226
:1049A000010E0501886F896B020EE66EE66AE66A03
:1049B0008A0EE66E050EE66EB1EC39F0146E050E49
:1049C000E15E145029EC07F067EC07F086EC07F085
:1049D00032EC09F00801E80E306F030E316F326BD4
:1049E000336B010E0C01366F376B05018C6F8D6BCD
:1049F000110E8DAF02D0D89003D08C5D000E8D5972
:104A000017E28CC5E9FF8DC5EAFFD890E936EA3692
:104A1000D890E936EA36590EE926070EEA22010E49
:104A2000EE6EEE6AEE6AEE6A8C2B000E8D23E0D7F6
:104A300044EC32F00801306B316B326B336B0501A3
:104A4000976B0A01506B0701B66BB76B766B776B90
:104A5000010EE76FE86BE56FE66BE36BE46B0E014D
:104A6000B16BB26B0E01AF6BB06B0E01B36BB46B7D
:104A70000201E36BE46B270EE66EE66AE66A980EC7
:104A8000E66E030EE66EB1EC39F0146E050EE15ED3
:104A900014500C01186B196B0701E90E4F6F020ED1
:104AA000506F240E4F5F010E505B4FC7E6FF50C79B
:104AB000E6FFE66A240EE66E010EE66EB1EC39F012
:104AC000146E050EE15E1450020EE66EE66AE66AAA
:104AD000250EE66E010EE66EB1EC39F0146E050E91
:104AE000E15E1450040EE66EE66AE66A9D0EE66E1E
:104AF000070EE66EB1EC39F0146E050EE15E14504F
:104B0000040EE66EE66AE66AA10EE66E070EE66E33
:104B1000B1EC39F0146E050EE15E14500701A56B7F
:104B2000A66B0C01166B176B0B0E0701A56FA66B1E
:104B3000270EE66EE66AE66A980EE66E030EE66EED
:104B4000B1EC39F0146E050EE15E1450D60EE66E2F
:104B5000E66AE66A790EE66E060EE66EB1EC39F0AC
:104B6000146E050EE15E14500701516B526B536BCE
:104B7000546BB46BB56BBB6BBC6BBD6BBE6B0C018C
:104B8000300E156F0D01036BAA0EE66E010EE66E78
:104B9000E66A050EE66E0D0EE66EB1EC39F0146EA7
:104BA000050EE15E14505EEC3EF05BEC3EF0D60E7E
:104BB000E66EE66AE66ABF0EE66E030EE66EB1ECDE
:104BC00039F0146E050EE15E14502BEC09F0320E34
:104BD000E66EE66AE66AE66AE0EC06F0E552E55261
:104BE000E552E55232EC09F003EC30F0F3CF77F602
:104BF000F4CF78F60601783504E277510008000E0C
:104C0000785521E277C602F178C603F1300E025FD3
:104C1000000E035B033504E202510008000E035549
:104C200012E23FDB010EE66EE66A770EE66E060ED6
:104C3000E66E150EE66E0C0EE66EEEEC03F0146EEC
:104C4000060EE15E14509AEC30F0DF6E530EDF5C1E
:104C500005E10A01010E506F2BEC09F0C6EC30F0B3
:104C6000DF6E410EDF5C03E1CBEC31F0E5DAB0EC56
:104C700030F0DF6E410EDF5C08E1010E0C01386F91
:104C8000396B0701B66FB76B03D00C01386B396B0A
:104C9000000EE66EE66AD950010FE66E000EDA20CD
:104CA000E66EF3D9E552E552E552E552120EE15CAB
:104CB00002E2E16AE552E16EE552E7CFD9FF120068
:104CC0000501970522E1010E2C1901E12D5105E1A5
:104CD0002C6B2D6B29EC07F005D0010E2C6F2D6B82
:104CE0001FEC07F00701BB2B000EBC23BC3504E210
:104CF000BB51B008040EBC5507E20C01182B000E86
:104D000019230701BB6BBC6B02D029EC07F0120022
:104D1000D9CFE6FFE1CFD9FF0E0EE126D950080F1B
:104D2000E96EDACFEAFFEE6AEE6AD9500A0FE96E51
:104D3000DACFEAFFEE6AEE6AD9500C0FE96EDACFED
:104D4000EAFFEE6AEE6A010EE66EE66A130EE66EA2
:104D50000B0EE66ED950080FE66E000EDA20E66EF6
:104D60002CEC03F0146E060EE15E1450010EE66E9C
:104D7000E66A140EE66E0B0EE66ED9500A0FE66E6A
:104D8000000EDA20E66E2CEC03F0146E060EE15EE7
:104D90001450010EE66EE66A150EE66E0B0EE66E18
:104DA000D9500C0FE66E000EDA20E66E2CEC03F004
:104DB000146E060EE15E1450D950080FE66E000E18
:104DC000DA20E66E91EC38F0E552E552020EF3CFB0
:104DD000DBFF030EF4CFDBFFD9500A0FE66E000EA7
:104DE000DA20E66E91EC38F0E552E552040EF3CF8E
:104DF000DBFF050EF4CFDBFFD9500C0FE66E000E83
:104E0000DA20E66E91EC38F0E552E552060EF3CF6B
:104E1000DBFF070EF4CFDBFFDE6ADD6ADECF14F0C6
:104E2000DDCF15F0020EDBCF16F0030EDBCF17F04F
:104E300015501718E8AE02D0173404D01650145C81
:104E40001750155821E21FEC07F02C0EE66E010EEC
:104E5000E66EE66AE66AE0EC06F0E552E552E552F7
:104E6000E55229EC07F02C0EE66E010EE66EE66ABE
:104E7000E66AE0EC06F0E552E552E552E552DF2A3B
:104E8000010E01E3DB2ACAD7F40EE66E010EE66ED0
:104E9000E66AE66AE0EC06F0E552E552E552E552D4
:104EA000DE6ADD6ADECF14F0DDCF15F0040EDBCF55
:104EB00016F0050EDBCF17F015501718E8AE02D02C
:104EC000173404D01650145C1750155821E21FEC0B
:104ED00007F02C0EE66E010EE66EE66AE66AE0EC7E
:104EE00006F0E552E552E552E55229EC07F02C0EAA
:104EF000E66E010EE66EE66AE66AE0EC06F0E55262
:104F0000E552E552E552DF2A010E01E3DB2ACAD75A
:104F1000020EDBCF14F0030EDBCF15F0153404E2E4
:104F200014500008000E155424E2D950040FE96E05
:104F3000DACFEAFFEE50ED101CE11FEC07F0580E3F
:104F4000E66E020EE66EE66AE66AE0EC06F0E55210
:104F5000E552E552E55229EC07F02C0EE66E010E03
:104F6000E66EE66AE66AE0EC06F0E552E552E552E6
:104F7000E552F40EE66E010EE66EE66AE66AE0ECD5
:104F800006F0E552E552E552E552DE6ADD6ADECF13
:104F900014F0DDCF15F0060EDBCF16F0070EDBCFD9
:104FA00017F015501718E8AE02D0173404D0165079
:104FB000145C1750155821E21FEC07F02C0EE66E1A
:104FC000010EE66EE66AE66AE0EC06F0E552E552AE
:104FD000E552E55229EC07F02C0EE66E010EE66E66
:104FE000E66AE66AE0EC06F0E552E552E552E55283
:104FF000DF2A010E01E3DB2ACAD7020EDBCF14F051
:10500000030EDBCF15F0153404E214500008000E37
:1050100015540DE3040EDBCF16F0050EDBCF17F0B1
:10502000173404E216500008000E175424E2D95039
:10503000060FE96EDACFEAFFEE50ED101CE11FEC2F
:1050400007F0580EE66E020EE66EE66AE66AE0ECDF
:1050500006F0E552E552E552E55229EC07F02C0E38
:10506000E66E010EE66EE66AE66AE0EC06F0E552F0
:10507000E552E552E5520E0EE15C02E2E16AE552CC
:10508000E16EE552E7CFD9FF1200D9CFE6FFE1CFBD
:10509000D9FF020EE1260B01440501E0A7D0D60E90
:1050A000E66EE66AE66AA00EE66E040EE66EB1EC07
:1050B00039F0146E050EE15E1450D950FB0FE96E05
:1050C000FF0EDA20EA6E010EEE1801E1ED5011E15B
:1050D000030EE66EE66A370EE66E0A0EE66EA00E68
:1050E000E66E040EE66E3EEC3AF0146E060EE15EDD
:1050F0001450D950FB0FE96EFF0EDA20EA6E020E53
:10510000EE1801E1ED5011E1030EE66EE66A330E92
:10511000E66E0A0EE66EA00EE66E040EE66E3EEC3D
:105120003AF0146E060EE15E1450D950FB0FE96E92
:10513000FF0EDA20EA6E030EEE1801E1ED5011E1E8
:10514000030EE66EE66A3B0EE66E0A0EE66EA00EF3
:10515000E66E040EE66E3EEC3AF0146E060EE15E6C
:105160001450D950FB0FE96EFF0EDA20EA6E040EE0
:10517000EE1801E1ED5011E1030EE66EE66A3F0E16
:10518000E66E0A0EE66EA00EE66E040EE66E3EECCD
:105190003AF0146E060EE15E1450FD0EDBCFE6FF12
:1051A000FE0EDBCFE6FFA00EE66E040EE66ECBEC45
:1051B00039F0E552E552E552E552020EE66EE66A36
:1051C000230EE66E0B0EE66EA00EE66E040EE66E85
:1051D0003EEC3AF0146E060EE15E1450A00EE66E40
:1051E000040EE66E7EEC04F0E552E552020EE15C40
:1051F00002E2E16AE552E16EE552E7CFD9FF120023
:10520000D9CFE6FFE1CFD9FFFD0EDBCFE9FFFE0EE0
:10521000DBCFEAFF3A0EE9260C0EEA22EFCF14F0BC
:10522000156A14BE156814C0F3FF15C0F4FF00D052
:10523000E552E7CFD9FF1200D9CFE6FFE1CFD9FF82
:10524000020EE1268F0EE66EA6EC3DF0E552A50EAD
:10525000DE6E060EDD6E010EDB50D76EDF50D66EB1
:1052600009010E6B0F6B106B116B020EE15C02E219
:10527000E16AE552E16EE552E7CFD9FF1200750E03
:10528000E66E49EC3DF0E5520801346B356B366B48
:10529000376B000EE66EE66A8AEC3DF0E552E552A9
:1052A0001200D9CFE6FFE1CFD9FF040EE126280E88
:1052B000E66EE66AE66A440EE66E060EE66EB1EC4F
:1052C00039F0146E050EE15E145002C1E6FF03C111
:1052D000E6FFEB0E146E770E156E166A14C0E6FF2D
:1052E00015C0E6FF16C0E6FF440EE66E060EE66E3B
:1052F00032EC3BF0176E070EE15E175001010335EB
:1053000004E202510008000E035501E3D6D0030E5B
:1053100003AF02D0D89003D0025D000E035901E321
:10532000CCD0000EE66EE66A440EE66E060EE66E21
:10533000ACDEE552E552E552E552E90E146E020E7E
:10534000156E240E145E010E155A020E14C0DBFFFA
:10535000030E15C0DBFF020EDBCFE6FF030EDBCF33
:10536000E6FFE66A240EE66E010EE66EB1EC39F059
:10537000146E050EE15E145002C114F003C115F065
:105380001406000E155A14C008F015C009F0020EDC
:10539000DBCF0DF0030EDBCF0EF0E7EC3AF006C0EA
:1053A00070F607C071F6000E06017027010E71231A
:1053B000280EE66EE66AE66A440EE66E060EE66EB5
:1053C000B1EC39F0146E050EE15E145070C6E6FFC4
:1053D00071C6E6FFDC0E146E770E156E166A14C0E9
:1053E000E6FF15C0E6FF16C0E6FF440EE66E060EA9
:1053F000E66E32EC3BF0176E070EE15E1750000EC2
:10540000E66EE66A440EE66E060EE66E3EDEE55297
:10541000E552E552E552DE6ADD6ADECF14F0DDCFFB
:1054200015F0020EDBCF16F0030EDBCF17F0155090
:105430001718E8AE02D0173404D01650145C175079
:10544000155829E261EC3EF0DE500601702500019E
:10545000146EDD50060171210001156E14C0E6FFC7
:1054600015C0E6FFFFEC3CF0E552E5520601766F11
:10547000DECF72F6DDCF73F6250E7227010E732391
:1054800072C6E9FF73C6EAFF76C6EFFFDF2A010E98
:1054900001E3DB2AC2D7010EE66EE66A540EE66E21
:1054A000250EE66E010EE66EB1EC39F0146E050EB7
:1054B000E15E14500201E56BE66B040EE15C02E272
:1054C000E16AE552E16EE552E7CFD9FF1200D9CF8C
:1054D000E6FFE1CFD9FF480EE126D9500A0FE96E69
:1054E000DACFEAFFEE6AEE6AEE6AEE6AEE6AEE6A1A
:1054F000EE6AEE6AEE6AEE6AEE6AEE6AEE6AEE6AEC
:10550000EE6AEE6AEE6AEE6AEE6AEE6AEE6AEE6ADB
:10551000EE6AEE6AEE6AEE6AEE6AEE6AEE6AEE6ACB
:10552000EE6AEE6AEE6AEE6AEE6AEE6AEE6AEE6ABB
:10553000EE6AEE6AD950320FE96EDACFEAFF300E2A
:10554000EE6E310EEE6E320EEE6E330EEE6E340EE9
:10555000EE6E350EEE6E360EEE6E370EEE6E380EC9
:10556000EE6E390EEE6E410EEE6E420EEE6E430E94
:10557000EE6E440EEE6E450EEE6E460EEE6EEE6A6A
:10558000100E146E156AFB0EDBCF08F0FC0EDBCF9D
:1055900009F014C00DF015C00EF0C1EC3AF008C0CF
:1055A000DEFF09C0DDFFFB0EDBCF16F0FC0EDBCF0C
:1055B00017F0100E086E096ADECF0DF0DDCF0EF089
:1055C000E7EC3AF00650165C146E07501758156E4B
:1055D000020E14C0DBFF030E15C0DBFF040EDB6AF6
:1055E000050EDB6A040EDBCF14F0050EDBCF15F0E1
:1055F000DECF16F0DDCF17F015501718E8AE02D049
:10560000173404D01650145C1750155801E3C5D058
:10561000280EE66EE66AE66AD9500A0FE66E000EBC
:10562000DA20E66EB1EC39F0146E050EE15E14502E
:10563000060EDB6A070EDB6A060EDBCF14F0070EE0
:10564000DBCF15F0D890155004E6100E145C000E58
:10565000155801E38ED0040EDBCF18F0050EDBCF1A
:1056600019F0040ED89018361936E806FBE1FD0E45
:10567000DB501824166EFE0EDB501920176E060E36
:10568000DB501624146E070EDB501720156E460EE5
:1056900014C0DBFF470E15C0DBFFD950320F146E6C
:1056A000DACF15F0460EDBCFE9FF470EDBCFEAFF7E
:1056B000EF500F0B166E176A16BE1768145016249B
:1056C000E96E15501720EA6E450EEFCFDBFFD9507B
:1056D000320F146EDACF15F0460EDBCFE9FF470E1E
:1056E000DBCFEAFFEF50F00BE8380F0B0F0114246B
:1056F000E96E000E1520EA6E440EEFCFDBFFD950A5
:105700000A0F146EDACF15F0020E086E096A060E43
:10571000DBCF0DF0070EDBCF0EF0E7EC3AF01450C4
:105720000624E96E15500720EA6E440EDBCFEFFF2A
:10573000D9500A0F146EDACF15F0060EDBCF16F033
:10574000070EDBCF17F0D89016361736010E162647
:10575000000E172214501624E96E15501720EA6E19
:10576000450EDBCFEFFF060EDB2A070E01E3DB2A37
:1057700063D7000EE66EE66AD9500A0FE66E000E99
:10578000DA20E66E82DCE552E552E552E552040E7F
:10579000DB2A050E01E3DB2A25D7480EE15C02E295
:1057A000E16AE552E16EE552E7CFD9FF1200D9CFA9
:1057B000E6FFE1CFD9FF2C0EE1260C01365137115F
:1057C00001E1B9D0366B376B010EDE6EDD6ADECFDC
:1057D00014F0DDCF15F0D890155004E6110E145CCE
:1057E000000E155801E3A7D0DECFE6FFDDCFE6FFC0
:1057F00007DDE552E552020EF3CFDBFF030EF4CFD7
:10580000DBFFDECFE9FFDDCFEAFFD890E936EA36ED
:10581000D890E936EA36590EE926070EEA22080141
:105820003051EE5C3151EE583251EE583351EE5852
:1058300001E378D0146A156A166A176ADECFE9FFA9
:10584000DDCFEAFFD890E936EA36D890E936EA3675
:10585000590EE926070EEA22030EEBCFF3FF17508D
:10586000F318E8AE02D0F33408D0EE50145CEE50DA
:105870001558EE501658EE50175853E2020EDBCF73
:10588000E6FF030EDBCFE6FFEAEC09F0E552E55256
:105890000B01440534E130C8E6FF31C8E6FF32C8E9
:1058A000E6FF33C8E6FF020EDBCFE6FF030EDBCFD9
:1058B000E6FFC90E146E770E156E166A14C0E6FF69
:1058C00015C0E6FF16C0E6FFD950040FE66E000EC5
:1058D000DA20E66E32EC3BF0176E0B0EE15E1750ED
:1058E000000EE66EE66AD950040FE66E000EDA206E
:1058F000E66E45EC28F0E552E552E552E552DECF82
:10590000E9FFDDCFEAFFD890E936EA36D890E936EC
:10591000EA36590EE926070EEA22EE6AEE6AEE6AC8
:10592000EE6A04D0010E0C01366F376BDF2A010ED0
:1059300001E3DB2A4CD72C0EE15C02E2E16AE5527E
:10594000E16EE552E7CFD9FF1200D9CFE6FFE1CFF4
:10595000D9FF200EE126FD0EDBCFE6FFFE0EDBCFEA
:10596000E6FF4EDCE552E552F3CFDEFFF4CFDDFF7C
:10597000DECFE6FFDDCFE6FF44EC09F0E552E5526D
:10598000F30EE96E0B0EEA6E08013051EE24146E30
:105990003151EE20156E3251EE20166E3351EE204D
:1059A000176EFD0EDBCFE9FFFE0EDBCFEAFFD890CE
:1059B000E936EA36D890E936EA36590EE926070E76
:1059C000EA2214C0EEFF15C0EEFF16C0EEFF17C0AE
:1059D000EEFF010E0C01366F376BDECFBDF7DDCF6A
:1059E000BEF7440538E130C8E6FF31C8E6FF32C8EB
:1059F000E6FF33C8E6FFDECFE6FFDDCFE6FFFD0EB4
:105A0000DBCFE6FFFE0EDBCFE6FFAE0E146E770EA9
:105A1000156E166A14C0E6FF15C0E6FF16C0E6FF55
:105A2000D950020FE66E000EDA20E66E32EC3BF043
:105A3000176E0D0EE15E1750000EE66EE66AD95045
:105A4000020FE66E000EDA20E66E45EC28F0E55215
:105A5000E552E552E552200EE15C02E2E16AE552D0
:105A6000E16EE552E7CFD9FF1200D9CFE6FFE1CFD3
:105A7000D9FF060EE126FE0EE66E040EE66EE6681F
:105A800099EC3CF0E552E552E552050EE66E47EC26
:105A90003EF0E55267EC3EF007EC00F0000901E053
:105AA000FBD7C450DE6EDD6AC350E66ED950020FDC
:105AB000E96EDACFEAFFE552E750EE6EED6ADECF2F
